{
  "_format": "hh-sol-artifact-1",
  "contractName": "TestUtil",
  "sourceName": "contracts/test/TestUtil.sol",
  "abi": [
    {
      "inputs": [
        {
          "components": [
            {
              "internalType": "address",
              "name": "sender",
              "type": "address"
            },
            {
              "internalType": "uint256",
              "name": "nonce",
              "type": "uint256"
            },
            {
              "internalType": "bytes",
              "name": "initCode",
              "type": "bytes"
            },
            {
              "internalType": "bytes",
              "name": "callData",
              "type": "bytes"
            },
            {
              "internalType": "uint256",
              "name": "callGasLimit",
              "type": "uint256"
            },
            {
              "internalType": "uint256",
              "name": "verificationGasLimit",
              "type": "uint256"
            },
            {
              "internalType": "uint256",
              "name": "preVerificationGas",
              "type": "uint256"
            },
            {
              "internalType": "uint256",
              "name": "maxFeePerGas",
              "type": "uint256"
            },
            {
              "internalType": "uint256",
              "name": "maxPriorityFeePerGas",
              "type": "uint256"
            },
            {
              "internalType": "bytes",
              "name": "paymasterAndData",
              "type": "bytes"
            },
            {
              "internalType": "bytes",
              "name": "signature",
              "type": "bytes"
            }
          ],
          "internalType": "struct UserOperation",
          "name": "op",
          "type": "tuple"
        }
      ],
      "name": "packUserOp",
      "outputs": [
        {
          "internalType": "bytes",
          "name": "",
          "type": "bytes"
        }
      ],
      "stateMutability": "pure",
      "type": "function"
    }
  ],
  "bytecode": "0x608060405234801561001057600080fd5b50610458806100206000396000f3fe608060405234801561001057600080fd5b506004361061002b5760003560e01c80633a24dea414610030575b600080fd5b61004a600480360381019061004591906101a6565b610060565b604051610057919061027f565b60405180910390f35b606061006b82610072565b9050919050565b6060600061007f83610150565b905060008360200135905060006100a485806040019061009f91906102b0565b610160565b905060006100c08680606001906100bb91906102b0565b610160565b905060008660800135905060008760a00135905060008860c00135905060008960e00135905060008a61010001359050600061010b8c80610120019061010691906102b0565b610160565b9050898989898989898989896040516020016101309a99989796959493929190610386565b6040516020818303038152906040529a5050505050505050505050919050565b6000808235905080915050919050565b600060405182808583378082209250505092915050565b600080fd5b600080fd5b600080fd5b6000610160828403121561019d5761019c610181565b5b81905092915050565b6000602082840312156101bc576101bb610177565b5b600082013567ffffffffffffffff8111156101da576101d961017c565b5b6101e684828501610186565b91505092915050565b600081519050919050565b600082825260208201905092915050565b60005b8381101561022957808201518184015260208101905061020e565b60008484015250505050565b6000601f19601f8301169050919050565b6000610251826101ef565b61025b81856101fa565b935061026b81856020860161020b565b61027481610235565b840191505092915050565b600060208201905081810360008301526102998184610246565b905092915050565b600080fd5b600080fd5b600080fd5b600080833560016020038436030381126102cd576102cc6102a1565b5b80840192508235915067ffffffffffffffff8211156102ef576102ee6102a6565b5b60208301925060018202360383131561030b5761030a6102ab565b5b509250929050565b600073ffffffffffffffffffffffffffffffffffffffff82169050919050565b600061033e82610313565b9050919050565b61034e81610333565b82525050565b6000819050919050565b61036781610354565b82525050565b6000819050919050565b6103808161036d565b82525050565b60006101408201905061039c600083018d610345565b6103a9602083018c61035e565b6103b6604083018b610377565b6103c3606083018a610377565b6103d0608083018961035e565b6103dd60a083018861035e565b6103ea60c083018761035e565b6103f760e083018661035e565b61040561010083018561035e565b610413610120830184610377565b9b9a505050505050505050505056fea2646970667358221220a7eea9b96dc3a3ea2d70c9600ea520b49726e0a4120f8920b2c7a1cdb594540e64736f6c63430008130033",
  "linkReferences": {},
  "deployedLinkReferences": {}
}