{
  "_format": "hh-sol-artifact-1",
  "contractName": "TestOracle2",
  "sourceName": "contracts/test/TestOracle2.sol",
  "abi": [
    {
      "inputs": [
        {
          "internalType": "int256",
          "name": "_price",
          "type": "int256"
        },
        {
          "internalType": "uint8",
          "name": "_decimals",
          "type": "uint8"
        }
      ],
      "stateMutability": "nonpayable",
      "type": "constructor"
    },
    {
      "inputs": [],
      "name": "decimals",
      "outputs": [
        {
          "internalType": "uint8",
          "name": "",
          "type": "uint8"
        }
      ],
      "stateMutability": "view",
      "type": "function"
    },
    {
      "inputs": [],
      "name": "latestRoundData",
      "outputs": [
        {
          "internalType": "uint80",
          "name": "roundId",
          "type": "uint80"
        },
        {
          "internalType": "int256",
          "name": "answer",
          "type": "int256"
        },
        {
          "internalType": "uint256",
          "name": "startedAt",
          "type": "uint256"
        },
        {
          "internalType": "uint256",
          "name": "updatedAt",
          "type": "uint256"
        },
        {
          "internalType": "uint80",
          "name": "answeredInRound",
          "type": "uint80"
        }
      ],
      "stateMutability": "view",
      "type": "function"
    },
    {
      "inputs": [],
      "name": "price",
      "outputs": [
        {
          "internalType": "int256",
          "name": "",
          "type": "int256"
        }
      ],
      "stateMutability": "view",
      "type": "function"
    },
    {
      "inputs": [
        {
          "internalType": "uint8",
          "name": "_decimals",
          "type": "uint8"
        }
      ],
      "name": "setDecimals",
      "outputs": [],
      "stateMutability": "nonpayable",
      "type": "function"
    },
    {
      "inputs": [
        {
          "internalType": "int256",
          "name": "_price",
          "type": "int256"
        }
      ],
      "name": "setPrice",
      "outputs": [],
      "stateMutability": "nonpayable",
      "type": "function"
    }
  ],
  "bytecode": "0x608060405234801561001057600080fd5b50604051610474380380610474833981810160405281019061003291906100cf565b8160008190555080600160006101000a81548160ff021916908360ff160217905550505061010f565b600080fd5b6000819050919050565b61007381610060565b811461007e57600080fd5b50565b6000815190506100908161006a565b92915050565b600060ff82169050919050565b6100ac81610096565b81146100b757600080fd5b50565b6000815190506100c9816100a3565b92915050565b600080604083850312156100e6576100e561005b565b5b60006100f485828601610081565b9250506020610105858286016100ba565b9150509250929050565b6103568061011e6000396000f3fe608060405234801561001057600080fd5b50600436106100575760003560e01c8063313ce5671461005c5780637a1395aa1461007a578063a035b1fe14610096578063f7a30806146100b4578063feaf968c146100d0575b600080fd5b6100646100f2565b6040516100719190610189565b60405180910390f35b610094600480360381019061008f91906101d5565b610109565b005b61009e610127565b6040516100ab919061021b565b60405180910390f35b6100ce60048036038101906100c99190610262565b61012d565b005b6100d8610137565b6040516100e99594939291906102cd565b60405180910390f35b6000600160009054906101000a900460ff16905090565b80600160006101000a81548160ff021916908360ff16021790555050565b60005481565b8060008190555050565b60008060008060006804000000000000247a60005463642a887b426804000000000000247a945094509450945094509091929394565b600060ff82169050919050565b6101838161016d565b82525050565b600060208201905061019e600083018461017a565b92915050565b600080fd5b6101b28161016d565b81146101bd57600080fd5b50565b6000813590506101cf816101a9565b92915050565b6000602082840312156101eb576101ea6101a4565b5b60006101f9848285016101c0565b91505092915050565b6000819050919050565b61021581610202565b82525050565b6000602082019050610230600083018461020c565b92915050565b61023f81610202565b811461024a57600080fd5b50565b60008135905061025c81610236565b92915050565b600060208284031215610278576102776101a4565b5b60006102868482850161024d565b91505092915050565b600069ffffffffffffffffffff82169050919050565b6102ae8161028f565b82525050565b6000819050919050565b6102c7816102b4565b82525050565b600060a0820190506102e260008301886102a5565b6102ef602083018761020c565b6102fc60408301866102be565b61030960608301856102be565b61031660808301846102a5565b969550505050505056fea2646970667358221220810dffd1059714d8f181a0855fc7611e0817e0d50ef2e8c56dd04ba576ef68de64736f6c63430008130033",
  "linkReferences": {},
  "deployedLinkReferences": {}
}