{
  "_format": "hh-sol-artifact-1",
  "contractName": "BrokenBLSAccountFactory",
  "sourceName": "contracts/test/BrokenBlsAccount.sol",
  "abi": [
    {
      "inputs": [
        {
          "internalType": "contract IEntryPoint",
          "name": "entryPoint",
          "type": "address"
        },
        {
          "internalType": "address",
          "name": "aggregator",
          "type": "address"
        }
      ],
      "stateMutability": "nonpayable",
      "type": "constructor"
    },
    {
      "inputs": [],
      "name": "accountImplementation",
      "outputs": [
        {
          "internalType": "contract BrokenBLSAccount",
          "name": "",
          "type": "address"
        }
      ],
      "stateMutability": "view",
      "type": "function"
    },
    {
      "inputs": [
        {
          "internalType": "uint256",
          "name": "salt",
          "type": "uint256"
        },
        {
          "internalType": "uint256[4]",
          "name": "aPublicKey",
          "type": "uint256[4]"
        }
      ],
      "name": "createAccount",
      "outputs": [
        {
          "internalType": "contract BrokenBLSAccount",
          "name": "",
          "type": "address"
        }
      ],
      "stateMutability": "nonpayable",
      "type": "function"
    },
    {
      "inputs": [
        {
          "internalType": "uint256",
          "name": "salt",
          "type": "uint256"
        },
        {
          "internalType": "uint256[4]",
          "name": "aPublicKey",
          "type": "uint256[4]"
        }
      ],
      "name": "getAddress",
      "outputs": [
        {
          "internalType": "address",
          "name": "",
          "type": "address"
        }
      ],
      "stateMutability": "view",
      "type": "function"
    }
  ],
  "bytecode": "0x60a06040523480156200001157600080fd5b50604051620049be380380620049be83398181016040528101906200003791906200016a565b81816040516200004790620000ad565b620000549291906200022d565b604051809103906000f08015801562000071573d6000803e3d6000fd5b5073ffffffffffffffffffffffffffffffffffffffff1660808173ffffffffffffffffffffffffffffffffffffffff168152505050506200025a565b613659806200136583390190565b600080fd5b600073ffffffffffffffffffffffffffffffffffffffff82169050919050565b6000620000ed82620000c0565b9050919050565b60006200010182620000e0565b9050919050565b6200011381620000f4565b81146200011f57600080fd5b50565b600081519050620001338162000108565b92915050565b6200014481620000e0565b81146200015057600080fd5b50565b600081519050620001648162000139565b92915050565b60008060408385031215620001845762000183620000bb565b5b6000620001948582860162000122565b9250506020620001a78582860162000153565b9150509250929050565b6000819050919050565b6000620001dc620001d6620001d084620000c0565b620001b1565b620000c0565b9050919050565b6000620001f082620001bb565b9050919050565b60006200020482620001e3565b9050919050565b6200021681620001f7565b82525050565b6200022781620000e0565b82525050565b60006040820190506200024460008301856200020b565b6200025360208301846200021c565b9392505050565b6080516110e2620002836000396000818160db01528181610145015261023601526110e26000f3fe60806040523480156200001157600080fd5b5060043610620000465760003560e01c806311464fbe146200004b57806319c2a1b2146200006d578063de3398dd14620000a3575b600080fd5b62000055620000d9565b604051620000649190620003e1565b60405180910390f35b6200008b6004803603810190620000859190620005ab565b620000fd565b6040516200009a9190620003e1565b60405180910390f35b620000c16004803603810190620000bb9190620005ab565b62000204565b604051620000d0919062000617565b60405180910390f35b7f000000000000000000000000000000000000000000000000000000000000000081565b6000806200010c848462000204565b905060008173ffffffffffffffffffffffffffffffffffffffff163b905060008111156200013f578192505050620001fe565b8460001b7f000000000000000000000000000000000000000000000000000000000000000085604051602401620001779190620006ef565b60405160208183030381529060405263ee472f3660e01b6020820180517bffffffffffffffffffffffffffffffffffffffffffffffffffffffff8381831617835250505050604051620001ca9062000348565b620001d792919062000795565b8190604051809103906000f5905080158015620001f8573d6000803e3d6000fd5b50925050505b92915050565b6000620002fe8360001b60405180602001620002209062000348565b6020820181038252601f19601f820116604052507f000000000000000000000000000000000000000000000000000000000000000085604051602401620002689190620006ef565b60405160208183030381529060405263ee472f3660e01b6020820180517bffffffffffffffffffffffffffffffffffffffffffffffffffffffff8381831617835250505050604051602001620002c092919062000795565b604051602081830303815290604052604051602001620002e29291906200080b565b6040516020818303038152906040528051906020012062000306565b905092915050565b6000620003158383306200031d565b905092915050565b6000604051836040820152846020820152828152600b810160ff815360558120925050509392505050565b610879806200083483390190565b600073ffffffffffffffffffffffffffffffffffffffff82169050919050565b6000819050919050565b6000620003a16200039b620003958462000356565b62000376565b62000356565b9050919050565b6000620003b58262000380565b9050919050565b6000620003c982620003a8565b9050919050565b620003db81620003bc565b82525050565b6000602082019050620003f86000830184620003d0565b92915050565b6000604051905090565b600080fd5b6000819050919050565b62000422816200040d565b81146200042e57600080fd5b50565b600081359050620004428162000417565b92915050565b600080fd5b6000601f19601f8301169050919050565b7f4e487b7100000000000000000000000000000000000000000000000000000000600052604160045260246000fd5b62000498826200044d565b810181811067ffffffffffffffff82111715620004ba57620004b96200045e565b5b80604052505050565b6000620004cf620003fe565b9050620004dd82826200048d565b919050565b600067ffffffffffffffff8211156200050057620004ff6200045e565b5b602082029050919050565b600080fd5b6000620005276200052184620004e2565b620004c3565b905080602084028301858111156200054457620005436200050b565b5b835b818110156200057157806200055c888262000431565b84526020840193505060208101905062000546565b5050509392505050565b600082601f83011262000593576200059262000448565b5b6004620005a284828562000510565b91505092915050565b60008060a08385031215620005c557620005c462000408565b5b6000620005d58582860162000431565b9250506020620005e8858286016200057b565b9150509250929050565b6000620005ff8262000356565b9050919050565b6200061181620005f2565b82525050565b60006020820190506200062e600083018462000606565b92915050565b600060049050919050565b600081905092915050565b6000819050919050565b6200065f816200040d565b82525050565b600062000673838362000654565b60208301905092915050565b6000602082019050919050565b620006978162000634565b620006a381846200063f565b9250620006b0826200064a565b8060005b83811015620006e7578151620006cb878262000665565b9650620006d8836200067f565b925050600181019050620006b4565b505050505050565b60006080820190506200070660008301846200068c565b92915050565b600081519050919050565b600082825260208201905092915050565b60005b83811015620007485780820151818401526020810190506200072b565b60008484015250505050565b600062000761826200070c565b6200076d818562000717565b93506200077f81856020860162000728565b6200078a816200044d565b840191505092915050565b6000604082019050620007ac600083018562000606565b8181036020830152620007c0818462000754565b90509392505050565b600081905092915050565b6000620007e1826200070c565b620007ed8185620007c9565b9350620007ff81856020860162000728565b80840191505092915050565b6000620008198285620007d4565b9150620008278284620007d4565b9150819050939250505056fe608060405260405161087938038061087983398181016040528101906100259190610520565b6100378282600061003e60201b60201c565b505061074f565b61004d8361007660201b60201c565b60008251118061005a5750805b156100715761006f83836100cb60201b60201c565b505b505050565b610085816100fe60201b60201c565b8073ffffffffffffffffffffffffffffffffffffffff167fbc7cd75a20ee27fd9adebab32041f755214dbc6bffa90cc0225b39da2e5c2d3b60405160405180910390a250565b60606100f68383604051806060016040528060278152602001610852602791396101c360201b60201c565b905092915050565b61010d8161024f60201b60201c565b61014c576040517f08c379a0000000000000000000000000000000000000000000000000000000008152600401610143906105ff565b60405180910390fd5b8061017f7f360894a13ba1a3210667c828492db98dca3e2076cc3735a920a3ca505d382bbc60001b61027260201b60201c565b60000160006101000a81548173ffffffffffffffffffffffffffffffffffffffff021916908373ffffffffffffffffffffffffffffffffffffffff16021790555050565b60606000808573ffffffffffffffffffffffffffffffffffffffff16856040516101ed9190610666565b600060405180830381855af49150503d8060008114610228576040519150601f19603f3d011682016040523d82523d6000602084013e61022d565b606091505b50915091506102448683838761027c60201b60201c565b925050509392505050565b6000808273ffffffffffffffffffffffffffffffffffffffff163b119050919050565b6000819050919050565b606083156102e45760008351036102dc5761029c8561024f60201b60201c565b6102db576040517f08c379a00000000000000000000000000000000000000000000000000000000081526004016102d2906106c9565b60405180910390fd5b5b8290506102f5565b6102f483836102fd60201b60201c565b5b949350505050565b6000825111156103105781518083602001fd5b806040517f08c379a0000000000000000000000000000000000000000000000000000000008152600401610344919061072d565b60405180910390fd5b6000604051905090565b600080fd5b600080fd5b600073ffffffffffffffffffffffffffffffffffffffff82169050919050565b600061038c82610361565b9050919050565b61039c81610381565b81146103a757600080fd5b50565b6000815190506103b981610393565b92915050565b600080fd5b600080fd5b6000601f19601f8301169050919050565b7f4e487b7100000000000000000000000000000000000000000000000000000000600052604160045260246000fd5b610412826103c9565b810181811067ffffffffffffffff82111715610431576104306103da565b5b80604052505050565b600061044461034d565b90506104508282610409565b919050565b600067ffffffffffffffff8211156104705761046f6103da565b5b610479826103c9565b9050602081019050919050565b60005b838110156104a4578082015181840152602081019050610489565b60008484015250505050565b60006104c36104be84610455565b61043a565b9050828152602081018484840111156104df576104de6103c4565b5b6104ea848285610486565b509392505050565b600082601f830112610507576105066103bf565b5b81516105178482602086016104b0565b91505092915050565b6000806040838503121561053757610536610357565b5b6000610545858286016103aa565b925050602083015167ffffffffffffffff8111156105665761056561035c565b5b610572858286016104f2565b9150509250929050565b600082825260208201905092915050565b7f455243313936373a206e657720696d706c656d656e746174696f6e206973206e60008201527f6f74206120636f6e747261637400000000000000000000000000000000000000602082015250565b60006105e9602d8361057c565b91506105f48261058d565b604082019050919050565b60006020820190508181036000830152610618816105dc565b9050919050565b600081519050919050565b600081905092915050565b60006106408261061f565b61064a818561062a565b935061065a818560208601610486565b80840191505092915050565b60006106728284610635565b915081905092915050565b7f416464726573733a2063616c6c20746f206e6f6e2d636f6e7472616374000000600082015250565b60006106b3601d8361057c565b91506106be8261067d565b602082019050919050565b600060208201905081810360008301526106e2816106a6565b9050919050565b600081519050919050565b60006106ff826106e9565b610709818561057c565b9350610719818560208601610486565b610722816103c9565b840191505092915050565b6000602082019050818103600083015261074781846106f4565b905092915050565b60f58061075d6000396000f3fe608060405236601057600e6018565b005b60166018565b005b601e602c565b602a6026602e565b603b565b565b565b600060366060565b905090565b3660008037600080366000845af43d6000803e8060008114605b573d6000f35b3d6000fd5b6000608c7f360894a13ba1a3210667c828492db98dca3e2076cc3735a920a3ca505d382bbc60001b60b5565b60000160009054906101000a900473ffffffffffffffffffffffffffffffffffffffff16905090565b600081905091905056fea2646970667358221220e91df930f25c61d529b4137f50e631e23eccd38c73a16d064ccea73f532839f764736f6c63430008130033416464726573733a206c6f772d6c6576656c2064656c65676174652063616c6c206661696c6564a264697066735822122089eb9ffc22949d131f31f2c93548193d05f9a0b524ccf3536be63442c3ab9b9c64736f6c6343000813003360e06040523073ffffffffffffffffffffffffffffffffffffffff1660809073ffffffffffffffffffffffffffffffffffffffff168152503480156200004457600080fd5b50604051620036593803806200365983398181016040528101906200006a919062000261565b818073ffffffffffffffffffffffffffffffffffffffff1660a08173ffffffffffffffffffffffffffffffffffffffff1681525050620000af620000ec60201b60201c565b508073ffffffffffffffffffffffffffffffffffffffff1660c08173ffffffffffffffffffffffffffffffffffffffff168152505050506200038c565b600060019054906101000a900460ff16156200013f576040517f08c379a000000000000000000000000000000000000000000000000000000000815260040162000136906200032f565b60405180910390fd5b60ff801660008054906101000a900460ff1660ff1614620001b05760ff6000806101000a81548160ff021916908360ff1602179055507f7f26b83ff96e1f2b6a682f133852f6798a09c465da95921460cefb384740249860ff604051620001a791906200036f565b60405180910390a15b565b600080fd5b600073ffffffffffffffffffffffffffffffffffffffff82169050919050565b6000620001e482620001b7565b9050919050565b6000620001f882620001d7565b9050919050565b6200020a81620001eb565b81146200021657600080fd5b50565b6000815190506200022a81620001ff565b92915050565b6200023b81620001d7565b81146200024757600080fd5b50565b6000815190506200025b8162000230565b92915050565b600080604083850312156200027b576200027a620001b2565b5b60006200028b8582860162000219565b92505060206200029e858286016200024a565b9150509250929050565b600082825260208201905092915050565b7f496e697469616c697a61626c653a20636f6e747261637420697320696e69746960008201527f616c697a696e6700000000000000000000000000000000000000000000000000602082015250565b600062000317602783620002a8565b91506200032482620002b9565b604082019050919050565b600060208201905081810360008301526200034a8162000308565b9050919050565b600060ff82169050919050565b620003698162000351565b82525050565b60006020820190506200038660008301846200035e565b92915050565b60805160a05160c051613273620003e6600039600081816107b501526114f8015260008181610cf201526118110152600081816107d90152818161086701528181610a8901528181610b170152610bc701526132736000f3fe6080604052600436106101435760003560e01c80635fb701c8116100b6578063c399ec881161006f578063c399ec8814610438578063c4d66de814610463578063d087d2881461048c578063e02afbae146104b7578063ee472f36146104e2578063f23a6e611461050b5761014a565b80635fb701c8146103265780638da5cb5b146103515780639a1b77401461037c578063b0d691fe146103a7578063b61d27f6146103d2578063bc197c81146103fb5761014a565b80633659cfe6116101085780633659cfe6146102465780633a871cdd1461026f5780634a58db19146102ac5780634d44560d146102b65780634f1ef286146102df57806352d1902d146102fb5761014a565b806223de291461014f57806301ffc9a714610178578063150b7a02146101b557806318dfb3c7146101f2578063245a7bfc1461021b5761014a565b3661014a57005b600080fd5b34801561015b57600080fd5b5061017660048036038101906101719190611cac565b610548565b005b34801561018457600080fd5b5061019f600480360381019061019a9190611dd3565b610552565b6040516101ac9190611e1b565b60405180910390f35b3480156101c157600080fd5b506101dc60048036038101906101d79190611e36565b61068c565b6040516101e99190611ecd565b60405180910390f35b3480156101fe57600080fd5b5061021960048036038101906102149190611f94565b6106a1565b005b34801561022757600080fd5b506102306107b3565b60405161023d9190612024565b60405180910390f35b34801561025257600080fd5b5061026d6004803603810190610268919061203f565b6107d7565b005b34801561027b57600080fd5b50610296600480360381019061029191906120c7565b61095f565b6040516102a39190612145565b60405180910390f35b6102b4610992565b005b3480156102c257600080fd5b506102dd60048036038101906102d8919061219e565b610a07565b005b6102f960048036038101906102f4919061231f565b610a87565b005b34801561030757600080fd5b50610310610bc3565b60405161031d919061238a565b60405180910390f35b34801561033257600080fd5b5061033b610c7c565b6040516103489190612024565b60405180910390f35b34801561035d57600080fd5b50610366610ca2565b6040516103739190612024565b60405180910390f35b34801561038857600080fd5b50610391610cc8565b60405161039e9190612024565b60405180910390f35b3480156103b357600080fd5b506103bc610cee565b6040516103c99190612404565b60405180910390f35b3480156103de57600080fd5b506103f960048036038101906103f4919061241f565b610d16565b005b34801561040757600080fd5b50610422600480360381019061041d91906124e9565b610d73565b60405161042f9190611ecd565b60405180910390f35b34801561044457600080fd5b5061044d610d8b565b60405161045a9190612145565b60405180910390f35b34801561046f57600080fd5b5061048a6004803603810190610485919061203f565b610e13565b005b34801561049857600080fd5b506104a1610f53565b6040516104ae9190612145565b60405180910390f35b3480156104c357600080fd5b506104cc610fde565b6040516104d99190612670565b60405180910390f35b3480156104ee57600080fd5b506105096004803603810190610504919061273c565b610ff5565b005b34801561051757600080fd5b50610532600480360381019061052d9190612769565b611136565b60405161053f9190611ecd565b60405180910390f35b5050505050505050565b60007f150b7a02000000000000000000000000000000000000000000000000000000007bffffffffffffffffffffffffffffffffffffffffffffffffffffffff1916827bffffffffffffffffffffffffffffffffffffffffffffffffffffffff1916148061061d57507f4e2312e0000000000000000000000000000000000000000000000000000000007bffffffffffffffffffffffffffffffffffffffffffffffffffffffff1916827bffffffffffffffffffffffffffffffffffffffffffffffffffffffff1916145b8061068557507f01ffc9a7000000000000000000000000000000000000000000000000000000007bffffffffffffffffffffffffffffffffffffffffffffffffffffffff1916827bffffffffffffffffffffffffffffffffffffffffffffffffffffffff1916145b9050919050565b600063150b7a0260e01b905095945050505050565b6106a961114c565b8181905084849050146106f1576040517f08c379a00000000000000000000000000000000000000000000000000000000081526004016106e890612860565b60405180910390fd5b60005b848490508110156107ac5761079985858381811061071557610714612880565b5b905060200201602081019061072a919061203f565b600085858581811061073f5761073e612880565b5b905060200281019061075191906128be565b8080601f016020809104026020016040519081016040528093929190818152602001838380828437600081840152601f19601f8201169050808301925050505050505061121b565b80806107a490612950565b9150506106f4565b5050505050565b7f000000000000000000000000000000000000000000000000000000000000000081565b7f000000000000000000000000000000000000000000000000000000000000000073ffffffffffffffffffffffffffffffffffffffff163073ffffffffffffffffffffffffffffffffffffffff1603610865576040517f08c379a000000000000000000000000000000000000000000000000000000000815260040161085c90612a0a565b60405180910390fd5b7f000000000000000000000000000000000000000000000000000000000000000073ffffffffffffffffffffffffffffffffffffffff166108a461129f565b73ffffffffffffffffffffffffffffffffffffffff16146108fa576040517f08c379a00000000000000000000000000000000000000000000000000000000081526004016108f190612a9c565b60405180910390fd5b610903816112f6565b61095c81600067ffffffffffffffff811115610922576109216121f4565b5b6040519080825280601f01601f1916602001820160405280156109545781602001600182028036833780820191505090505b506000611301565b50565b600061096961146f565b61097384846114e6565b9050610982846020013561155b565b61098b8261155e565b9392505050565b61099a610cee565b73ffffffffffffffffffffffffffffffffffffffff1663b760faf934306040518363ffffffff1660e01b81526004016109d39190612024565b6000604051808303818588803b1580156109ec57600080fd5b505af1158015610a00573d6000803e3d6000fd5b5050505050565b610a0f6115fa565b610a17610cee565b73ffffffffffffffffffffffffffffffffffffffff1663205c287883836040518363ffffffff1660e01b8152600401610a51929190612acb565b600060405180830381600087803b158015610a6b57600080fd5b505af1158015610a7f573d6000803e3d6000fd5b505050505050565b7f000000000000000000000000000000000000000000000000000000000000000073ffffffffffffffffffffffffffffffffffffffff163073ffffffffffffffffffffffffffffffffffffffff1603610b15576040517f08c379a0000000000000000000000000000000000000000000000000000000008152600401610b0c90612a0a565b60405180910390fd5b7f000000000000000000000000000000000000000000000000000000000000000073ffffffffffffffffffffffffffffffffffffffff16610b5461129f565b73ffffffffffffffffffffffffffffffffffffffff1614610baa576040517f08c379a0000000000000000000000000000000000000000000000000000000008152600401610ba190612a9c565b60405180910390fd5b610bb3826112f6565b610bbf82826001611301565b5050565b60007f000000000000000000000000000000000000000000000000000000000000000073ffffffffffffffffffffffffffffffffffffffff163073ffffffffffffffffffffffffffffffffffffffff1614610c53576040517f08c379a0000000000000000000000000000000000000000000000000000000008152600401610c4a90612b66565b60405180910390fd5b7f360894a13ba1a3210667c828492db98dca3e2076cc3735a920a3ca505d382bbc60001b905090565b600260009054906101000a900473ffffffffffffffffffffffffffffffffffffffff1681565b600060029054906101000a900473ffffffffffffffffffffffffffffffffffffffff1681565b600160009054906101000a900473ffffffffffffffffffffffffffffffffffffffff1681565b60007f0000000000000000000000000000000000000000000000000000000000000000905090565b610d1e61114c565b610d6d848484848080601f016020809104026020016040519081016040528093929190818152602001838380828437600081840152601f19601f8201169050808301925050505050505061121b565b50505050565b600063bc197c8160e01b905098975050505050505050565b6000610d95610cee565b73ffffffffffffffffffffffffffffffffffffffff166370a08231306040518263ffffffff1660e01b8152600401610dcd9190612024565b602060405180830381865afa158015610dea573d6000803e3d6000fd5b505050506040513d601f19601f82011682018060405250810190610e0e9190612b9b565b905090565b60008060019054906101000a900460ff16159050808015610e445750600160008054906101000a900460ff1660ff16105b80610e715750610e5330611772565b158015610e705750600160008054906101000a900460ff1660ff16145b5b610eb0576040517f08c379a0000000000000000000000000000000000000000000000000000000008152600401610ea790612c3a565b60405180910390fd5b60016000806101000a81548160ff021916908360ff1602179055508015610eed576001600060016101000a81548160ff0219169083151502179055505b610ef682611795565b8015610f4f5760008060016101000a81548160ff0219169083151502179055507f7f26b83ff96e1f2b6a682f133852f6798a09c465da95921460cefb38474024986001604051610f469190612ca2565b60405180910390a15b5050565b6000610f5d610cee565b73ffffffffffffffffffffffffffffffffffffffff166335567e1a3060006040518363ffffffff1660e01b8152600401610f98929190612d1c565b602060405180830381865afa158015610fb5573d6000803e3d6000fd5b505050506040513d601f19601f82011682018060405250810190610fd99190612b9b565b905090565b610fe6611b7d565b610fee611b7d565b8091505090565b60008060019054906101000a900460ff161590508080156110265750600160008054906101000a900460ff1660ff16105b80611053575061103530611772565b1580156110525750600160008054906101000a900460ff1660ff16145b5b611092576040517f08c379a000000000000000000000000000000000000000000000000000000000815260040161108990612c3a565b60405180910390fd5b60016000806101000a81548160ff021916908360ff16021790555080156110cf576001600060016101000a81548160ff0219169083151502179055505b6110d96000611795565b80156111325760008060016101000a81548160ff0219169083151502179055507f7f26b83ff96e1f2b6a682f133852f6798a09c465da95921460cefb384740249860016040516111299190612ca2565b60405180910390a15b5050565b600063f23a6e6160e01b90509695505050505050565b611154610cee565b73ffffffffffffffffffffffffffffffffffffffff163373ffffffffffffffffffffffffffffffffffffffff1614806111da5750600060029054906101000a900473ffffffffffffffffffffffffffffffffffffffff1673ffffffffffffffffffffffffffffffffffffffff163373ffffffffffffffffffffffffffffffffffffffff16145b611219576040517f08c379a000000000000000000000000000000000000000000000000000000000815260040161121090612d91565b60405180910390fd5b565b6000808473ffffffffffffffffffffffffffffffffffffffff1684846040516112449190612e22565b60006040518083038185875af1925050503d8060008114611281576040519150601f19603f3d011682016040523d82523d6000602084013e611286565b606091505b50915091508161129857805160208201fd5b5050505050565b60006112cd7f360894a13ba1a3210667c828492db98dca3e2076cc3735a920a3ca505d382bbc60001b611875565b60000160009054906101000a900473ffffffffffffffffffffffffffffffffffffffff16905090565b6112fe6115fa565b50565b61132d7f4910fdfa16fed3260ed0e7147f7cc6da11a60208b5b9406d12a635614ffd914360001b61187f565b60000160009054906101000a900460ff16156113515761134c83611889565b61146a565b8273ffffffffffffffffffffffffffffffffffffffff166352d1902d6040518163ffffffff1660e01b8152600401602060405180830381865afa9250505080156113b957506040513d601f19601f820116820180604052508101906113b69190612e4e565b60015b6113f8576040517f08c379a00000000000000000000000000000000000000000000000000000000081526004016113ef90612eed565b60405180910390fd5b7f360894a13ba1a3210667c828492db98dca3e2076cc3735a920a3ca505d382bbc60001b811461145d576040517f08c379a000000000000000000000000000000000000000000000000000000000815260040161145490612f7f565b60405180910390fd5b50611469838383611942565b5b505050565b611477610cee565b73ffffffffffffffffffffffffffffffffffffffff163373ffffffffffffffffffffffffffffffffffffffff16146114e4576040517f08c379a00000000000000000000000000000000000000000000000000000000081526004016114db90612feb565b60405180910390fd5b565b600061155360405180606001604052807f000000000000000000000000000000000000000000000000000000000000000073ffffffffffffffffffffffffffffffffffffffff168152602001600065ffffffffffff168152602001600065ffffffffffff1681525061196e565b905092915050565b50565b600081146115f75760003373ffffffffffffffffffffffffffffffffffffffff16827fffffffffffffffffffffffffffffffffffffffffffffffffffffffffffffffff906040516115ae90613031565b600060405180830381858888f193505050503d80600081146115ec576040519150601f19603f3d011682016040523d82523d6000602084013e6115f1565b606091505b50509050505b50565b600060029054906101000a900473ffffffffffffffffffffffffffffffffffffffff1673ffffffffffffffffffffffffffffffffffffffff163373ffffffffffffffffffffffffffffffffffffffff16148061168157503073ffffffffffffffffffffffffffffffffffffffff163373ffffffffffffffffffffffffffffffffffffffff16145b806116d95750600160009054906101000a900473ffffffffffffffffffffffffffffffffffffffff1673ffffffffffffffffffffffffffffffffffffffff163373ffffffffffffffffffffffffffffffffffffffff16145b806117315750600260009054906101000a900473ffffffffffffffffffffffffffffffffffffffff1673ffffffffffffffffffffffffffffffffffffffff163373ffffffffffffffffffffffffffffffffffffffff16145b611770576040517f08c379a000000000000000000000000000000000000000000000000000000000815260040161176790613092565b60405180910390fd5b565b6000808273ffffffffffffffffffffffffffffffffffffffff163b119050919050565b80600060026101000a81548173ffffffffffffffffffffffffffffffffffffffff021916908373ffffffffffffffffffffffffffffffffffffffff160217905550600060029054906101000a900473ffffffffffffffffffffffffffffffffffffffff1673ffffffffffffffffffffffffffffffffffffffff167f000000000000000000000000000000000000000000000000000000000000000073ffffffffffffffffffffffffffffffffffffffff167f47e55c76e7a6f1fd8996a1da8008c1ea29699cca35e7bcd057f2dec313b6e5de60405160405180910390a350565b6000819050919050565b6000819050919050565b61189281611772565b6118d1576040517f08c379a00000000000000000000000000000000000000000000000000000000081526004016118c890613124565b60405180910390fd5b806118fe7f360894a13ba1a3210667c828492db98dca3e2076cc3735a920a3ca505d382bbc60001b611875565b60000160006101000a81548173ffffffffffffffffffffffffffffffffffffffff021916908373ffffffffffffffffffffffffffffffffffffffff16021790555050565b61194b836119b6565b6000825111806119585750805b15611969576119678383611a05565b505b505050565b600060d0826020015165ffffffffffff16901b60a0836040015165ffffffffffff16901b836000015173ffffffffffffffffffffffffffffffffffffffff1617179050919050565b6119bf81611889565b8073ffffffffffffffffffffffffffffffffffffffff167fbc7cd75a20ee27fd9adebab32041f755214dbc6bffa90cc0225b39da2e5c2d3b60405160405180910390a250565b6060611a2a838360405180606001604052806027815260200161321760279139611a32565b905092915050565b60606000808573ffffffffffffffffffffffffffffffffffffffff1685604051611a5c9190612e22565b600060405180830381855af49150503d8060008114611a97576040519150601f19603f3d011682016040523d82523d6000602084013e611a9c565b606091505b5091509150611aad86838387611ab8565b925050509392505050565b60608315611b1a576000835103611b1257611ad285611772565b611b11576040517f08c379a0000000000000000000000000000000000000000000000000000000008152600401611b0890613190565b60405180910390fd5b5b829050611b25565b611b248383611b2d565b5b949350505050565b600082511115611b405781518083602001fd5b806040517f08c379a0000000000000000000000000000000000000000000000000000000008152600401611b7491906131f4565b60405180910390fd5b6040518060800160405280600490602082028036833780820191505090505090565b6000604051905090565b600080fd5b600080fd5b600073ffffffffffffffffffffffffffffffffffffffff82169050919050565b6000611bde82611bb3565b9050919050565b611bee81611bd3565b8114611bf957600080fd5b50565b600081359050611c0b81611be5565b92915050565b6000819050919050565b611c2481611c11565b8114611c2f57600080fd5b50565b600081359050611c4181611c1b565b92915050565b600080fd5b600080fd5b600080fd5b60008083601f840112611c6c57611c6b611c47565b5b8235905067ffffffffffffffff811115611c8957611c88611c4c565b5b602083019150836001820283011115611ca557611ca4611c51565b5b9250929050565b60008060008060008060008060c0898b031215611ccc57611ccb611ba9565b5b6000611cda8b828c01611bfc565b9850506020611ceb8b828c01611bfc565b9750506040611cfc8b828c01611bfc565b9650506060611d0d8b828c01611c32565b955050608089013567ffffffffffffffff811115611d2e57611d2d611bae565b5b611d3a8b828c01611c56565b945094505060a089013567ffffffffffffffff811115611d5d57611d5c611bae565b5b611d698b828c01611c56565b92509250509295985092959890939650565b60007fffffffff0000000000000000000000000000000000000000000000000000000082169050919050565b611db081611d7b565b8114611dbb57600080fd5b50565b600081359050611dcd81611da7565b92915050565b600060208284031215611de957611de8611ba9565b5b6000611df784828501611dbe565b91505092915050565b60008115159050919050565b611e1581611e00565b82525050565b6000602082019050611e306000830184611e0c565b92915050565b600080600080600060808688031215611e5257611e51611ba9565b5b6000611e6088828901611bfc565b9550506020611e7188828901611bfc565b9450506040611e8288828901611c32565b935050606086013567ffffffffffffffff811115611ea357611ea2611bae565b5b611eaf88828901611c56565b92509250509295509295909350565b611ec781611d7b565b82525050565b6000602082019050611ee26000830184611ebe565b92915050565b60008083601f840112611efe57611efd611c47565b5b8235905067ffffffffffffffff811115611f1b57611f1a611c4c565b5b602083019150836020820283011115611f3757611f36611c51565b5b9250929050565b60008083601f840112611f5457611f53611c47565b5b8235905067ffffffffffffffff811115611f7157611f70611c4c565b5b602083019150836020820283011115611f8d57611f8c611c51565b5b9250929050565b60008060008060408587031215611fae57611fad611ba9565b5b600085013567ffffffffffffffff811115611fcc57611fcb611bae565b5b611fd887828801611ee8565b9450945050602085013567ffffffffffffffff811115611ffb57611ffa611bae565b5b61200787828801611f3e565b925092505092959194509250565b61201e81611bd3565b82525050565b60006020820190506120396000830184612015565b92915050565b60006020828403121561205557612054611ba9565b5b600061206384828501611bfc565b91505092915050565b600080fd5b600061016082840312156120885761208761206c565b5b81905092915050565b6000819050919050565b6120a481612091565b81146120af57600080fd5b50565b6000813590506120c18161209b565b92915050565b6000806000606084860312156120e0576120df611ba9565b5b600084013567ffffffffffffffff8111156120fe576120fd611bae565b5b61210a86828701612071565b935050602061211b868287016120b2565b925050604061212c86828701611c32565b9150509250925092565b61213f81611c11565b82525050565b600060208201905061215a6000830184612136565b92915050565b600061216b82611bb3565b9050919050565b61217b81612160565b811461218657600080fd5b50565b60008135905061219881612172565b92915050565b600080604083850312156121b5576121b4611ba9565b5b60006121c385828601612189565b92505060206121d485828601611c32565b9150509250929050565b600080fd5b6000601f19601f8301169050919050565b7f4e487b7100000000000000000000000000000000000000000000000000000000600052604160045260246000fd5b61222c826121e3565b810181811067ffffffffffffffff8211171561224b5761224a6121f4565b5b80604052505050565b600061225e611b9f565b905061226a8282612223565b919050565b600067ffffffffffffffff82111561228a576122896121f4565b5b612293826121e3565b9050602081019050919050565b82818337600083830152505050565b60006122c26122bd8461226f565b612254565b9050828152602081018484840111156122de576122dd6121de565b5b6122e98482856122a0565b509392505050565b600082601f83011261230657612305611c47565b5b81356123168482602086016122af565b91505092915050565b6000806040838503121561233657612335611ba9565b5b600061234485828601611bfc565b925050602083013567ffffffffffffffff81111561236557612364611bae565b5b612371858286016122f1565b9150509250929050565b61238481612091565b82525050565b600060208201905061239f600083018461237b565b92915050565b6000819050919050565b60006123ca6123c56123c084611bb3565b6123a5565b611bb3565b9050919050565b60006123dc826123af565b9050919050565b60006123ee826123d1565b9050919050565b6123fe816123e3565b82525050565b600060208201905061241960008301846123f5565b92915050565b6000806000806060858703121561243957612438611ba9565b5b600061244787828801611bfc565b945050602061245887828801611c32565b935050604085013567ffffffffffffffff81111561247957612478611bae565b5b61248587828801611c56565b925092505092959194509250565b60008083601f8401126124a9576124a8611c47565b5b8235905067ffffffffffffffff8111156124c6576124c5611c4c565b5b6020830191508360208202830111156124e2576124e1611c51565b5b9250929050565b60008060008060008060008060a0898b03121561250957612508611ba9565b5b60006125178b828c01611bfc565b98505060206125288b828c01611bfc565b975050604089013567ffffffffffffffff81111561254957612548611bae565b5b6125558b828c01612493565b9650965050606089013567ffffffffffffffff81111561257857612577611bae565b5b6125848b828c01612493565b9450945050608089013567ffffffffffffffff8111156125a7576125a6611bae565b5b6125b38b828c01611c56565b92509250509295985092959890939650565b600060049050919050565b600081905092915050565b6000819050919050565b6125ee81611c11565b82525050565b600061260083836125e5565b60208301905092915050565b6000602082019050919050565b612622816125c5565b61262c81846125d0565b9250612637826125db565b8060005b8381101561266857815161264f87826125f4565b965061265a8361260c565b92505060018101905061263b565b505050505050565b60006080820190506126856000830184612619565b92915050565b600067ffffffffffffffff8211156126a6576126a56121f4565b5b602082029050919050565b60006126c46126bf8461268b565b612254565b905080602084028301858111156126de576126dd611c51565b5b835b8181101561270757806126f38882611c32565b8452602084019350506020810190506126e0565b5050509392505050565b600082601f83011261272657612725611c47565b5b60046127338482856126b1565b91505092915050565b60006080828403121561275257612751611ba9565b5b600061276084828501612711565b91505092915050565b60008060008060008060a0878903121561278657612785611ba9565b5b600061279489828a01611bfc565b96505060206127a589828a01611bfc565b95505060406127b689828a01611c32565b94505060606127c789828a01611c32565b935050608087013567ffffffffffffffff8111156127e8576127e7611bae565b5b6127f489828a01611c56565b92509250509295509295509295565b600082825260208201905092915050565b7f77726f6e67206172726179206c656e6774687300000000000000000000000000600082015250565b600061284a601383612803565b915061285582612814565b602082019050919050565b600060208201905081810360008301526128798161283d565b9050919050565b7f4e487b7100000000000000000000000000000000000000000000000000000000600052603260045260246000fd5b600080fd5b600080fd5b600080fd5b600080833560016020038436030381126128db576128da6128af565b5b80840192508235915067ffffffffffffffff8211156128fd576128fc6128b4565b5b602083019250600182023603831315612919576129186128b9565b5b509250929050565b7f4e487b7100000000000000000000000000000000000000000000000000000000600052601160045260246000fd5b600061295b82611c11565b91507fffffffffffffffffffffffffffffffffffffffffffffffffffffffffffffffff820361298d5761298c612921565b5b600182019050919050565b7f46756e6374696f6e206d7573742062652063616c6c6564207468726f7567682060008201527f64656c656761746563616c6c0000000000000000000000000000000000000000602082015250565b60006129f4602c83612803565b91506129ff82612998565b604082019050919050565b60006020820190508181036000830152612a23816129e7565b9050919050565b7f46756e6374696f6e206d7573742062652063616c6c6564207468726f7567682060008201527f6163746976652070726f78790000000000000000000000000000000000000000602082015250565b6000612a86602c83612803565b9150612a9182612a2a565b604082019050919050565b60006020820190508181036000830152612ab581612a79565b9050919050565b612ac581612160565b82525050565b6000604082019050612ae06000830185612abc565b612aed6020830184612136565b9392505050565b7f555550535570677261646561626c653a206d757374206e6f742062652063616c60008201527f6c6564207468726f7567682064656c656761746563616c6c0000000000000000602082015250565b6000612b50603883612803565b9150612b5b82612af4565b604082019050919050565b60006020820190508181036000830152612b7f81612b43565b9050919050565b600081519050612b9581611c1b565b92915050565b600060208284031215612bb157612bb0611ba9565b5b6000612bbf84828501612b86565b91505092915050565b7f496e697469616c697a61626c653a20636f6e747261637420697320616c72656160008201527f647920696e697469616c697a6564000000000000000000000000000000000000602082015250565b6000612c24602e83612803565b9150612c2f82612bc8565b604082019050919050565b60006020820190508181036000830152612c5381612c17565b9050919050565b6000819050919050565b600060ff82169050919050565b6000612c8c612c87612c8284612c5a565b6123a5565b612c64565b9050919050565b612c9c81612c71565b82525050565b6000602082019050612cb76000830184612c93565b92915050565b6000819050919050565b600077ffffffffffffffffffffffffffffffffffffffffffffffff82169050919050565b6000612d06612d01612cfc84612cbd565b6123a5565b612cc7565b9050919050565b612d1681612ceb565b82525050565b6000604082019050612d316000830185612015565b612d3e6020830184612d0d565b9392505050565b7f6163636f756e743a206e6f74204f776e6572206f7220456e747279506f696e74600082015250565b6000612d7b602083612803565b9150612d8682612d45565b602082019050919050565b60006020820190508181036000830152612daa81612d6e565b9050919050565b600081519050919050565b600081905092915050565b60005b83811015612de5578082015181840152602081019050612dca565b60008484015250505050565b6000612dfc82612db1565b612e068185612dbc565b9350612e16818560208601612dc7565b80840191505092915050565b6000612e2e8284612df1565b915081905092915050565b600081519050612e488161209b565b92915050565b600060208284031215612e6457612e63611ba9565b5b6000612e7284828501612e39565b91505092915050565b7f45524331393637557067726164653a206e657720696d706c656d656e7461746960008201527f6f6e206973206e6f742055555053000000000000000000000000000000000000602082015250565b6000612ed7602e83612803565b9150612ee282612e7b565b604082019050919050565b60006020820190508181036000830152612f0681612eca565b9050919050565b7f45524331393637557067726164653a20756e737570706f727465642070726f7860008201527f6961626c65555549440000000000000000000000000000000000000000000000602082015250565b6000612f69602983612803565b9150612f7482612f0d565b604082019050919050565b60006020820190508181036000830152612f9881612f5c565b9050919050565b7f6163636f756e743a206e6f742066726f6d20456e747279506f696e7400000000600082015250565b6000612fd5601c83612803565b9150612fe082612f9f565b602082019050919050565b6000602082019050818103600083015261300481612fc8565b9050919050565b50565b600061301b600083612dbc565b91506130268261300b565b600082019050919050565b600061303c8261300e565b9150819050919050565b7f6f6e6c79206f776e657200000000000000000000000000000000000000000000600082015250565b600061307c600a83612803565b915061308782613046565b602082019050919050565b600060208201905081810360008301526130ab8161306f565b9050919050565b7f455243313936373a206e657720696d706c656d656e746174696f6e206973206e60008201527f6f74206120636f6e747261637400000000000000000000000000000000000000602082015250565b600061310e602d83612803565b9150613119826130b2565b604082019050919050565b6000602082019050818103600083015261313d81613101565b9050919050565b7f416464726573733a2063616c6c20746f206e6f6e2d636f6e7472616374000000600082015250565b600061317a601d83612803565b915061318582613144565b602082019050919050565b600060208201905081810360008301526131a98161316d565b9050919050565b600081519050919050565b60006131c6826131b0565b6131d08185612803565b93506131e0818560208601612dc7565b6131e9816121e3565b840191505092915050565b6000602082019050818103600083015261320e81846131bb565b90509291505056fe416464726573733a206c6f772d6c6576656c2064656c65676174652063616c6c206661696c6564a26469706673582212207bd633e322992f3174c1e87fd67dbb14a884f16ea94c37b1260c8298e71299f864736f6c63430008130033",
  "linkReferences": {},
  "deployedLinkReferences": {}
}