{
  "_format": "hh-sol-artifact-1",
  "contractName": "ModuleManager",
  "sourceName": "@gnosis.pm/safe-contracts/contracts/base/ModuleManager.sol",
  "abi": [
    {
      "anonymous": false,
      "inputs": [
        {
          "indexed": false,
          "internalType": "address",
          "name": "module",
          "type": "address"
        }
      ],
      "name": "DisabledModule",
      "type": "event"
    },
    {
      "anonymous": false,
      "inputs": [
        {
          "indexed": false,
          "internalType": "address",
          "name": "module",
          "type": "address"
        }
      ],
      "name": "EnabledModule",
      "type": "event"
    },
    {
      "anonymous": false,
      "inputs": [
        {
          "indexed": true,
          "internalType": "address",
          "name": "module",
          "type": "address"
        }
      ],
      "name": "ExecutionFromModuleFailure",
      "type": "event"
    },
    {
      "anonymous": false,
      "inputs": [
        {
          "indexed": true,
          "internalType": "address",
          "name": "module",
          "type": "address"
        }
      ],
      "name": "ExecutionFromModuleSuccess",
      "type": "event"
    },
    {
      "inputs": [
        {
          "internalType": "address",
          "name": "prevModule",
          "type": "address"
        },
        {
          "internalType": "address",
          "name": "module",
          "type": "address"
        }
      ],
      "name": "disableModule",
      "outputs": [],
      "stateMutability": "nonpayable",
      "type": "function"
    },
    {
      "inputs": [
        {
          "internalType": "address",
          "name": "module",
          "type": "address"
        }
      ],
      "name": "enableModule",
      "outputs": [],
      "stateMutability": "nonpayable",
      "type": "function"
    },
    {
      "inputs": [
        {
          "internalType": "address",
          "name": "to",
          "type": "address"
        },
        {
          "internalType": "uint256",
          "name": "value",
          "type": "uint256"
        },
        {
          "internalType": "bytes",
          "name": "data",
          "type": "bytes"
        },
        {
          "internalType": "enum Enum.Operation",
          "name": "operation",
          "type": "uint8"
        }
      ],
      "name": "execTransactionFromModule",
      "outputs": [
        {
          "internalType": "bool",
          "name": "success",
          "type": "bool"
        }
      ],
      "stateMutability": "nonpayable",
      "type": "function"
    },
    {
      "inputs": [
        {
          "internalType": "address",
          "name": "to",
          "type": "address"
        },
        {
          "internalType": "uint256",
          "name": "value",
          "type": "uint256"
        },
        {
          "internalType": "bytes",
          "name": "data",
          "type": "bytes"
        },
        {
          "internalType": "enum Enum.Operation",
          "name": "operation",
          "type": "uint8"
        }
      ],
      "name": "execTransactionFromModuleReturnData",
      "outputs": [
        {
          "internalType": "bool",
          "name": "success",
          "type": "bool"
        },
        {
          "internalType": "bytes",
          "name": "returnData",
          "type": "bytes"
        }
      ],
      "stateMutability": "nonpayable",
      "type": "function"
    },
    {
      "inputs": [
        {
          "internalType": "address",
          "name": "start",
          "type": "address"
        },
        {
          "internalType": "uint256",
          "name": "pageSize",
          "type": "uint256"
        }
      ],
      "name": "getModulesPaginated",
      "outputs": [
        {
          "internalType": "address[]",
          "name": "array",
          "type": "address[]"
        },
        {
          "internalType": "address",
          "name": "next",
          "type": "address"
        }
      ],
      "stateMutability": "view",
      "type": "function"
    },
    {
      "inputs": [
        {
          "internalType": "address",
          "name": "module",
          "type": "address"
        }
      ],
      "name": "isModuleEnabled",
      "outputs": [
        {
          "internalType": "bool",
          "name": "",
          "type": "bool"
        }
      ],
      "stateMutability": "view",
      "type": "function"
    }
  ],
  "bytecode": "0x608060405234801561001057600080fd5b5061157d806100206000396000f3fe608060405234801561001057600080fd5b50600436106100625760003560e01c80632d9ad53d14610067578063468721a7146100975780635229073f146100c7578063610b5925146100f8578063cc2f845214610114578063e009cfde14610145575b600080fd5b610081600480360381019061007c9190610d77565b610161565b60405161008e9190610dbf565b60405180910390f35b6100b160048036038101906100ac9190610f7b565b610232565b6040516100be9190610dbf565b60405180910390f35b6100e160048036038101906100dc9190610f7b565b6103e4565b6040516100ef92919061107d565b60405180910390f35b610112600480360381019061010d9190610d77565b61041a565b005b61012e600480360381019061012991906110ad565b61072c565b60405161013c9291906111ba565b60405180910390f35b61015f600480360381019061015a91906111ea565b61092b565b005b60008173ffffffffffffffffffffffffffffffffffffffff16600173ffffffffffffffffffffffffffffffffffffffff161415801561022b5750600073ffffffffffffffffffffffffffffffffffffffff166000808473ffffffffffffffffffffffffffffffffffffffff1673ffffffffffffffffffffffffffffffffffffffff16815260200190815260200160002060009054906101000a900473ffffffffffffffffffffffffffffffffffffffff1673ffffffffffffffffffffffffffffffffffffffff1614155b9050919050565b6000600173ffffffffffffffffffffffffffffffffffffffff163373ffffffffffffffffffffffffffffffffffffffff16141580156102fc5750600073ffffffffffffffffffffffffffffffffffffffff166000803373ffffffffffffffffffffffffffffffffffffffff1673ffffffffffffffffffffffffffffffffffffffff16815260200190815260200160002060009054906101000a900473ffffffffffffffffffffffffffffffffffffffff1673ffffffffffffffffffffffffffffffffffffffff1614155b61033b576040517f08c379a000000000000000000000000000000000000000000000000000000000815260040161033290611287565b60405180910390fd5b610348858585855a610c3c565b90508015610398573373ffffffffffffffffffffffffffffffffffffffff167f6895c13664aa4f67288b25d7a21d7aaa34916e355fb9b6fae0a139a9085becb860405160405180910390a26103dc565b3373ffffffffffffffffffffffffffffffffffffffff167facd2c8702804128fdb0db2bb49f6d127dd0181c13fd45dbfe16de0930e2bd37560405160405180910390a25b949350505050565b600060606103f486868686610232565b915060405160203d0181016040523d81523d6000602083013e8091505094509492505050565b610422610c95565b600073ffffffffffffffffffffffffffffffffffffffff168173ffffffffffffffffffffffffffffffffffffffff161415801561048c5750600173ffffffffffffffffffffffffffffffffffffffff168173ffffffffffffffffffffffffffffffffffffffff1614155b6104cb576040517f08c379a00000000000000000000000000000000000000000000000000000000081526004016104c2906112f3565b60405180910390fd5b600073ffffffffffffffffffffffffffffffffffffffff166000808373ffffffffffffffffffffffffffffffffffffffff1673ffffffffffffffffffffffffffffffffffffffff16815260200190815260200160002060009054906101000a900473ffffffffffffffffffffffffffffffffffffffff1673ffffffffffffffffffffffffffffffffffffffff1614610598576040517f08c379a000000000000000000000000000000000000000000000000000000000815260040161058f9061135f565b60405180910390fd5b600080600173ffffffffffffffffffffffffffffffffffffffff1673ffffffffffffffffffffffffffffffffffffffff16815260200190815260200160002060009054906101000a900473ffffffffffffffffffffffffffffffffffffffff166000808373ffffffffffffffffffffffffffffffffffffffff1673ffffffffffffffffffffffffffffffffffffffff16815260200190815260200160002060006101000a81548173ffffffffffffffffffffffffffffffffffffffff021916908373ffffffffffffffffffffffffffffffffffffffff16021790555080600080600173ffffffffffffffffffffffffffffffffffffffff1673ffffffffffffffffffffffffffffffffffffffff16815260200190815260200160002060006101000a81548173ffffffffffffffffffffffffffffffffffffffff021916908373ffffffffffffffffffffffffffffffffffffffff1602179055507fecdf3a3effea5783a3c4c2140e677577666428d44ed9d474a0b3a4c9943f844081604051610721919061137f565b60405180910390a150565b606060008267ffffffffffffffff81111561074a57610749610e2b565b5b6040519080825280602002602001820160405280156107785781602001602082028036833780820191505090505b5091506000808060008773ffffffffffffffffffffffffffffffffffffffff1673ffffffffffffffffffffffffffffffffffffffff16815260200190815260200160002060009054906101000a900473ffffffffffffffffffffffffffffffffffffffff1690505b600073ffffffffffffffffffffffffffffffffffffffff168173ffffffffffffffffffffffffffffffffffffffff161415801561084a5750600173ffffffffffffffffffffffffffffffffffffffff168173ffffffffffffffffffffffffffffffffffffffff1614155b801561085557508482105b1561091c578084838151811061086e5761086d61139a565b5b602002602001019073ffffffffffffffffffffffffffffffffffffffff16908173ffffffffffffffffffffffffffffffffffffffff16815250506000808273ffffffffffffffffffffffffffffffffffffffff1673ffffffffffffffffffffffffffffffffffffffff16815260200190815260200160002060009054906101000a900473ffffffffffffffffffffffffffffffffffffffff1690508180610914906113f8565b9250506107e0565b80925081845250509250929050565b610933610c95565b600073ffffffffffffffffffffffffffffffffffffffff168173ffffffffffffffffffffffffffffffffffffffff161415801561099d5750600173ffffffffffffffffffffffffffffffffffffffff168173ffffffffffffffffffffffffffffffffffffffff1614155b6109dc576040517f08c379a00000000000000000000000000000000000000000000000000000000081526004016109d3906112f3565b60405180910390fd5b8073ffffffffffffffffffffffffffffffffffffffff166000808473ffffffffffffffffffffffffffffffffffffffff1673ffffffffffffffffffffffffffffffffffffffff16815260200190815260200160002060009054906101000a900473ffffffffffffffffffffffffffffffffffffffff1673ffffffffffffffffffffffffffffffffffffffff1614610aa8576040517f08c379a0000000000000000000000000000000000000000000000000000000008152600401610a9f9061148c565b60405180910390fd5b6000808273ffffffffffffffffffffffffffffffffffffffff1673ffffffffffffffffffffffffffffffffffffffff16815260200190815260200160002060009054906101000a900473ffffffffffffffffffffffffffffffffffffffff166000808473ffffffffffffffffffffffffffffffffffffffff1673ffffffffffffffffffffffffffffffffffffffff16815260200190815260200160002060006101000a81548173ffffffffffffffffffffffffffffffffffffffff021916908373ffffffffffffffffffffffffffffffffffffffff16021790555060008060008373ffffffffffffffffffffffffffffffffffffffff1673ffffffffffffffffffffffffffffffffffffffff16815260200190815260200160002060006101000a81548173ffffffffffffffffffffffffffffffffffffffff021916908373ffffffffffffffffffffffffffffffffffffffff1602179055507faab4fa2b463f581b2b32cb3b7e3b704b9ce37cc209b5fb4d77e593ace405427681604051610c30919061137f565b60405180910390a15050565b6000600180811115610c5157610c506114ac565b5b836001811115610c6457610c636114ac565b5b03610c7c576000808551602087018986f49050610c8c565b600080855160208701888a87f190505b95945050505050565b3073ffffffffffffffffffffffffffffffffffffffff163373ffffffffffffffffffffffffffffffffffffffff1614610d03576040517f08c379a0000000000000000000000000000000000000000000000000000000008152600401610cfa90611527565b60405180910390fd5b565b6000604051905090565b600080fd5b600080fd5b600073ffffffffffffffffffffffffffffffffffffffff82169050919050565b6000610d4482610d19565b9050919050565b610d5481610d39565b8114610d5f57600080fd5b50565b600081359050610d7181610d4b565b92915050565b600060208284031215610d8d57610d8c610d0f565b5b6000610d9b84828501610d62565b91505092915050565b60008115159050919050565b610db981610da4565b82525050565b6000602082019050610dd46000830184610db0565b92915050565b6000819050919050565b610ded81610dda565b8114610df857600080fd5b50565b600081359050610e0a81610de4565b92915050565b600080fd5b600080fd5b6000601f19601f8301169050919050565b7f4e487b7100000000000000000000000000000000000000000000000000000000600052604160045260246000fd5b610e6382610e1a565b810181811067ffffffffffffffff82111715610e8257610e81610e2b565b5b80604052505050565b6000610e95610d05565b9050610ea18282610e5a565b919050565b600067ffffffffffffffff821115610ec157610ec0610e2b565b5b610eca82610e1a565b9050602081019050919050565b82818337600083830152505050565b6000610ef9610ef484610ea6565b610e8b565b905082815260208101848484011115610f1557610f14610e15565b5b610f20848285610ed7565b509392505050565b600082601f830112610f3d57610f3c610e10565b5b8135610f4d848260208601610ee6565b91505092915050565b60028110610f6357600080fd5b50565b600081359050610f7581610f56565b92915050565b60008060008060808587031215610f9557610f94610d0f565b5b6000610fa387828801610d62565b9450506020610fb487828801610dfb565b935050604085013567ffffffffffffffff811115610fd557610fd4610d14565b5b610fe187828801610f28565b9250506060610ff287828801610f66565b91505092959194509250565b600081519050919050565b600082825260208201905092915050565b60005b8381101561103857808201518184015260208101905061101d565b60008484015250505050565b600061104f82610ffe565b6110598185611009565b935061106981856020860161101a565b61107281610e1a565b840191505092915050565b60006040820190506110926000830185610db0565b81810360208301526110a48184611044565b90509392505050565b600080604083850312156110c4576110c3610d0f565b5b60006110d285828601610d62565b92505060206110e385828601610dfb565b9150509250929050565b600081519050919050565b600082825260208201905092915050565b6000819050602082019050919050565b61112281610d39565b82525050565b60006111348383611119565b60208301905092915050565b6000602082019050919050565b6000611158826110ed565b61116281856110f8565b935061116d83611109565b8060005b8381101561119e5781516111858882611128565b975061119083611140565b925050600181019050611171565b5085935050505092915050565b6111b481610d39565b82525050565b600060408201905081810360008301526111d4818561114d565b90506111e360208301846111ab565b9392505050565b6000806040838503121561120157611200610d0f565b5b600061120f85828601610d62565b925050602061122085828601610d62565b9150509250929050565b600082825260208201905092915050565b7f4753313034000000000000000000000000000000000000000000000000000000600082015250565b600061127160058361122a565b915061127c8261123b565b602082019050919050565b600060208201905081810360008301526112a081611264565b9050919050565b7f4753313031000000000000000000000000000000000000000000000000000000600082015250565b60006112dd60058361122a565b91506112e8826112a7565b602082019050919050565b6000602082019050818103600083015261130c816112d0565b9050919050565b7f4753313032000000000000000000000000000000000000000000000000000000600082015250565b600061134960058361122a565b915061135482611313565b602082019050919050565b600060208201905081810360008301526113788161133c565b9050919050565b600060208201905061139460008301846111ab565b92915050565b7f4e487b7100000000000000000000000000000000000000000000000000000000600052603260045260246000fd5b7f4e487b7100000000000000000000000000000000000000000000000000000000600052601160045260246000fd5b600061140382610dda565b91507fffffffffffffffffffffffffffffffffffffffffffffffffffffffffffffffff8203611435576114346113c9565b5b600182019050919050565b7f4753313033000000000000000000000000000000000000000000000000000000600082015250565b600061147660058361122a565b915061148182611440565b602082019050919050565b600060208201905081810360008301526114a581611469565b9050919050565b7f4e487b7100000000000000000000000000000000000000000000000000000000600052602160045260246000fd5b7f4753303331000000000000000000000000000000000000000000000000000000600082015250565b600061151160058361122a565b915061151c826114db565b602082019050919050565b6000602082019050818103600083015261154081611504565b905091905056fea264697066735822122083c4381d30ab0bc2a47050b326540f5b95a477f85db4f4f7b768c9e1dc2f2d0064736f6c63430008130033",
  "linkReferences": {},
  "deployedLinkReferences": {}
}