{
  "_format": "hh-sol-artifact-1",
  "contractName": "DepositPaymaster",
  "sourceName": "contracts/samples/DepositPaymaster.sol",
  "abi": [
    {
      "inputs": [
        {
          "internalType": "contract IEntryPoint",
          "name": "_entryPoint",
          "type": "address"
        }
      ],
      "stateMutability": "nonpayable",
      "type": "constructor"
    },
    {
      "anonymous": false,
      "inputs": [
        {
          "indexed": true,
          "internalType": "address",
          "name": "previousOwner",
          "type": "address"
        },
        {
          "indexed": true,
          "internalType": "address",
          "name": "newOwner",
          "type": "address"
        }
      ],
      "name": "OwnershipTransferred",
      "type": "event"
    },
    {
      "inputs": [],
      "name": "COST_OF_POST",
      "outputs": [
        {
          "internalType": "uint256",
          "name": "",
          "type": "uint256"
        }
      ],
      "stateMutability": "view",
      "type": "function"
    },
    {
      "inputs": [
        {
          "internalType": "contract IERC20",
          "name": "token",
          "type": "address"
        },
        {
          "internalType": "address",
          "name": "account",
          "type": "address"
        },
        {
          "internalType": "uint256",
          "name": "amount",
          "type": "uint256"
        }
      ],
      "name": "addDepositFor",
      "outputs": [],
      "stateMutability": "nonpayable",
      "type": "function"
    },
    {
      "inputs": [
        {
          "internalType": "uint32",
          "name": "unstakeDelaySec",
          "type": "uint32"
        }
      ],
      "name": "addStake",
      "outputs": [],
      "stateMutability": "payable",
      "type": "function"
    },
    {
      "inputs": [
        {
          "internalType": "contract IERC20",
          "name": "token",
          "type": "address"
        },
        {
          "internalType": "contract IOracle",
          "name": "tokenPriceOracle",
          "type": "address"
        }
      ],
      "name": "addToken",
      "outputs": [],
      "stateMutability": "nonpayable",
      "type": "function"
    },
    {
      "inputs": [
        {
          "internalType": "contract IERC20",
          "name": "",
          "type": "address"
        },
        {
          "internalType": "address",
          "name": "",
          "type": "address"
        }
      ],
      "name": "balances",
      "outputs": [
        {
          "internalType": "uint256",
          "name": "",
          "type": "uint256"
        }
      ],
      "stateMutability": "view",
      "type": "function"
    },
    {
      "inputs": [],
      "name": "deposit",
      "outputs": [],
      "stateMutability": "payable",
      "type": "function"
    },
    {
      "inputs": [
        {
          "internalType": "contract IERC20",
          "name": "token",
          "type": "address"
        },
        {
          "internalType": "address",
          "name": "account",
          "type": "address"
        }
      ],
      "name": "depositInfo",
      "outputs": [
        {
          "internalType": "uint256",
          "name": "amount",
          "type": "uint256"
        },
        {
          "internalType": "uint256",
          "name": "_unlockBlock",
          "type": "uint256"
        }
      ],
      "stateMutability": "view",
      "type": "function"
    },
    {
      "inputs": [],
      "name": "entryPoint",
      "outputs": [
        {
          "internalType": "contract IEntryPoint",
          "name": "",
          "type": "address"
        }
      ],
      "stateMutability": "view",
      "type": "function"
    },
    {
      "inputs": [],
      "name": "getDeposit",
      "outputs": [
        {
          "internalType": "uint256",
          "name": "",
          "type": "uint256"
        }
      ],
      "stateMutability": "view",
      "type": "function"
    },
    {
      "inputs": [],
      "name": "lockTokenDeposit",
      "outputs": [],
      "stateMutability": "nonpayable",
      "type": "function"
    },
    {
      "inputs": [
        {
          "internalType": "contract IERC20",
          "name": "",
          "type": "address"
        }
      ],
      "name": "oracles",
      "outputs": [
        {
          "internalType": "contract IOracle",
          "name": "",
          "type": "address"
        }
      ],
      "stateMutability": "view",
      "type": "function"
    },
    {
      "inputs": [],
      "name": "owner",
      "outputs": [
        {
          "internalType": "address",
          "name": "",
          "type": "address"
        }
      ],
      "stateMutability": "view",
      "type": "function"
    },
    {
      "inputs": [
        {
          "internalType": "enum IPaymaster.PostOpMode",
          "name": "mode",
          "type": "uint8"
        },
        {
          "internalType": "bytes",
          "name": "context",
          "type": "bytes"
        },
        {
          "internalType": "uint256",
          "name": "actualGasCost",
          "type": "uint256"
        }
      ],
      "name": "postOp",
      "outputs": [],
      "stateMutability": "nonpayable",
      "type": "function"
    },
    {
      "inputs": [],
      "name": "renounceOwnership",
      "outputs": [],
      "stateMutability": "nonpayable",
      "type": "function"
    },
    {
      "inputs": [
        {
          "internalType": "address",
          "name": "newOwner",
          "type": "address"
        }
      ],
      "name": "transferOwnership",
      "outputs": [],
      "stateMutability": "nonpayable",
      "type": "function"
    },
    {
      "inputs": [
        {
          "internalType": "address",
          "name": "",
          "type": "address"
        }
      ],
      "name": "unlockBlock",
      "outputs": [
        {
          "internalType": "uint256",
          "name": "",
          "type": "uint256"
        }
      ],
      "stateMutability": "view",
      "type": "function"
    },
    {
      "inputs": [],
      "name": "unlockStake",
      "outputs": [],
      "stateMutability": "nonpayable",
      "type": "function"
    },
    {
      "inputs": [],
      "name": "unlockTokenDeposit",
      "outputs": [],
      "stateMutability": "nonpayable",
      "type": "function"
    },
    {
      "inputs": [
        {
          "components": [
            {
              "internalType": "address",
              "name": "sender",
              "type": "address"
            },
            {
              "internalType": "uint256",
              "name": "nonce",
              "type": "uint256"
            },
            {
              "internalType": "bytes",
              "name": "initCode",
              "type": "bytes"
            },
            {
              "internalType": "bytes",
              "name": "callData",
              "type": "bytes"
            },
            {
              "internalType": "uint256",
              "name": "callGasLimit",
              "type": "uint256"
            },
            {
              "internalType": "uint256",
              "name": "verificationGasLimit",
              "type": "uint256"
            },
            {
              "internalType": "uint256",
              "name": "preVerificationGas",
              "type": "uint256"
            },
            {
              "internalType": "uint256",
              "name": "maxFeePerGas",
              "type": "uint256"
            },
            {
              "internalType": "uint256",
              "name": "maxPriorityFeePerGas",
              "type": "uint256"
            },
            {
              "internalType": "bytes",
              "name": "paymasterAndData",
              "type": "bytes"
            },
            {
              "internalType": "bytes",
              "name": "signature",
              "type": "bytes"
            }
          ],
          "internalType": "struct UserOperation",
          "name": "userOp",
          "type": "tuple"
        },
        {
          "internalType": "bytes32",
          "name": "userOpHash",
          "type": "bytes32"
        },
        {
          "internalType": "uint256",
          "name": "maxCost",
          "type": "uint256"
        }
      ],
      "name": "validatePaymasterUserOp",
      "outputs": [
        {
          "internalType": "bytes",
          "name": "context",
          "type": "bytes"
        },
        {
          "internalType": "uint256",
          "name": "validationData",
          "type": "uint256"
        }
      ],
      "stateMutability": "nonpayable",
      "type": "function"
    },
    {
      "inputs": [
        {
          "internalType": "address payable",
          "name": "withdrawAddress",
          "type": "address"
        }
      ],
      "name": "withdrawStake",
      "outputs": [],
      "stateMutability": "nonpayable",
      "type": "function"
    },
    {
      "inputs": [
        {
          "internalType": "address payable",
          "name": "withdrawAddress",
          "type": "address"
        },
        {
          "internalType": "uint256",
          "name": "amount",
          "type": "uint256"
        }
      ],
      "name": "withdrawTo",
      "outputs": [],
      "stateMutability": "nonpayable",
      "type": "function"
    },
    {
      "inputs": [
        {
          "internalType": "contract IERC20",
          "name": "token",
          "type": "address"
        },
        {
          "internalType": "address",
          "name": "target",
          "type": "address"
        },
        {
          "internalType": "uint256",
          "name": "amount",
          "type": "uint256"
        }
      ],
      "name": "withdrawTokensTo",
      "outputs": [],
      "stateMutability": "nonpayable",
      "type": "function"
    }
  ],
  "bytecode": "0x60a06040523480156200001157600080fd5b50604051620032b3380380620032b3833981810160405281019062000037919062000234565b80620000586200004c620000a460201b60201c565b620000ac60201b60201c565b8073ffffffffffffffffffffffffffffffffffffffff1660808173ffffffffffffffffffffffffffffffffffffffff1681525050506200009d6200017060201b60201c565b5062000266565b600033905090565b60008060009054906101000a900473ffffffffffffffffffffffffffffffffffffffff169050816000806101000a81548173ffffffffffffffffffffffffffffffffffffffff021916908373ffffffffffffffffffffffffffffffffffffffff1602179055508173ffffffffffffffffffffffffffffffffffffffff168173ffffffffffffffffffffffffffffffffffffffff167f8be0079c531659141344cd1fd0a4f28419497f9722a3daafe3b4186f6b6457e060405160405180910390a35050565b43600360003373ffffffffffffffffffffffffffffffffffffffff1673ffffffffffffffffffffffffffffffffffffffff16815260200190815260200160002081905550565b600080fd5b600073ffffffffffffffffffffffffffffffffffffffff82169050919050565b6000620001e882620001bb565b9050919050565b6000620001fc82620001db565b9050919050565b6200020e81620001ef565b81146200021a57600080fd5b50565b6000815190506200022e8162000203565b92915050565b6000602082840312156200024d576200024c620001b6565b5b60006200025d848285016200021d565b91505092915050565b608051613000620002b3600039600081816104c40152818161055b01528181610acc01528181610af801528181610b8201528181610c3701528181610ead01526111ac01526130006000f3fe6080604052600436106101355760003560e01c8063addd5099116100ab578063c399ec881161006f578063c399ec88146103de578063cc9c837c14610409578063cd8f80c214610432578063d0e30db014610449578063f2fde38b14610453578063f465c77e1461047c57610135565b8063addd5099146102f9578063b0d691fe14610336578063bb9fe6bf14610361578063c23a5cea14610378578063c23f001f146103a157610135565b80635476bd72116100fd5780635476bd7214610223578063715018a61461024c578063796d4371146102635780638da5cb5b1461028e5780639ed0fb68146102b9578063a9a23409146102d057610135565b80630396cb601461013a578063205c287814610156578063382edd9e1461017f578063493b0170146101a85780634a6f84cf146101e6575b600080fd5b610154600480360381019061014f9190611bbd565b6104ba565b005b34801561016257600080fd5b5061017d60048036038101906101789190611c7e565b610551565b005b34801561018b57600080fd5b506101a660048036038101906101a19190611d3a565b6105ea565b005b3480156101b457600080fd5b506101cf60048036038101906101ca9190611d8d565b6107b9565b6040516101dd929190611ddc565b60405180910390f35b3480156101f257600080fd5b5061020d60048036038101906102089190611e05565b610884565b60405161021a9190611e32565b60405180910390f35b34801561022f57600080fd5b5061024a60048036038101906102459190611e8b565b61089c565b005b34801561025857600080fd5b506102616109f4565b005b34801561026f57600080fd5b50610278610a08565b6040516102859190611e32565b60405180910390f35b34801561029a57600080fd5b506102a3610a0e565b6040516102b09190611eda565b60405180910390f35b3480156102c557600080fd5b506102ce610a37565b005b3480156102dc57600080fd5b506102f760048036038101906102f29190611f7f565b610a7d565b005b34801561030557600080fd5b50610320600480360381019061031b9190611ff3565b610a97565b60405161032d919061207f565b60405180910390f35b34801561034257600080fd5b5061034b610aca565b60405161035891906120bb565b60405180910390f35b34801561036d57600080fd5b50610376610aee565b005b34801561038457600080fd5b5061039f600480360381019061039a91906120d6565b610b78565b005b3480156103ad57600080fd5b506103c860048036038101906103c39190611d8d565b610c0e565b6040516103d59190611e32565b60405180910390f35b3480156103ea57600080fd5b506103f3610c33565b6040516104009190611e32565b60405180910390f35b34801561041557600080fd5b50610430600480360381019061042b9190611d3a565b610cd4565b005b34801561043e57600080fd5b50610447610e64565b005b610451610eab565b005b34801561045f57600080fd5b5061047a60048036038101906104759190611e05565b610f39565b005b34801561048857600080fd5b506104a3600480360381019061049e919061215e565b610fbc565b6040516104b192919061225d565b60405180910390f35b6104c2610fdf565b7f000000000000000000000000000000000000000000000000000000000000000073ffffffffffffffffffffffffffffffffffffffff16630396cb6034836040518363ffffffff1660e01b815260040161051c919061229c565b6000604051808303818588803b15801561053557600080fd5b505af1158015610549573d6000803e3d6000fd5b505050505050565b610559610fdf565b7f000000000000000000000000000000000000000000000000000000000000000073ffffffffffffffffffffffffffffffffffffffff1663205c287883836040518363ffffffff1660e01b81526004016105b49291906122c6565b600060405180830381600087803b1580156105ce57600080fd5b505af11580156105e2573d6000803e3d6000fd5b505050505050565b600073ffffffffffffffffffffffffffffffffffffffff16600160008573ffffffffffffffffffffffffffffffffffffffff1673ffffffffffffffffffffffffffffffffffffffff16815260200190815260200160002060009054906101000a900473ffffffffffffffffffffffffffffffffffffffff1673ffffffffffffffffffffffffffffffffffffffff16036106b8576040517f08c379a00000000000000000000000000000000000000000000000000000000081526004016106af9061234c565b60405180910390fd5b6106e53330838673ffffffffffffffffffffffffffffffffffffffff1661105d909392919063ffffffff16565b80600260008573ffffffffffffffffffffffffffffffffffffffff1673ffffffffffffffffffffffffffffffffffffffff16815260200190815260200160002060008473ffffffffffffffffffffffffffffffffffffffff1673ffffffffffffffffffffffffffffffffffffffff1681526020019081526020016000206000828254610771919061239b565b925050819055508173ffffffffffffffffffffffffffffffffffffffff163373ffffffffffffffffffffffffffffffffffffffff16036107b4576107b3610e64565b5b505050565b600080600260008573ffffffffffffffffffffffffffffffffffffffff1673ffffffffffffffffffffffffffffffffffffffff16815260200190815260200160002060008473ffffffffffffffffffffffffffffffffffffffff1673ffffffffffffffffffffffffffffffffffffffff168152602001908152602001600020549150600360008473ffffffffffffffffffffffffffffffffffffffff1673ffffffffffffffffffffffffffffffffffffffff1681526020019081526020016000205490509250929050565b60036020528060005260406000206000915090505481565b6108a4610fdf565b600073ffffffffffffffffffffffffffffffffffffffff16600160008473ffffffffffffffffffffffffffffffffffffffff1673ffffffffffffffffffffffffffffffffffffffff16815260200190815260200160002060009054906101000a900473ffffffffffffffffffffffffffffffffffffffff1673ffffffffffffffffffffffffffffffffffffffff1614610972576040517f08c379a00000000000000000000000000000000000000000000000000000000081526004016109699061241b565b60405180910390fd5b80600160008473ffffffffffffffffffffffffffffffffffffffff1673ffffffffffffffffffffffffffffffffffffffff16815260200190815260200160002060006101000a81548173ffffffffffffffffffffffffffffffffffffffff021916908373ffffffffffffffffffffffffffffffffffffffff1602179055505050565b6109fc610fdf565b610a0660006110e6565b565b6188b881565b60008060009054906101000a900473ffffffffffffffffffffffffffffffffffffffff16905090565b43600360003373ffffffffffffffffffffffffffffffffffffffff1673ffffffffffffffffffffffffffffffffffffffff16815260200190815260200160002081905550565b610a856111aa565b610a918484848461123a565b50505050565b60016020528060005260406000206000915054906101000a900473ffffffffffffffffffffffffffffffffffffffff1681565b7f000000000000000000000000000000000000000000000000000000000000000081565b610af6610fdf565b7f000000000000000000000000000000000000000000000000000000000000000073ffffffffffffffffffffffffffffffffffffffff1663bb9fe6bf6040518163ffffffff1660e01b8152600401600060405180830381600087803b158015610b5e57600080fd5b505af1158015610b72573d6000803e3d6000fd5b50505050565b610b80610fdf565b7f000000000000000000000000000000000000000000000000000000000000000073ffffffffffffffffffffffffffffffffffffffff1663c23a5cea826040518263ffffffff1660e01b8152600401610bd9919061243b565b600060405180830381600087803b158015610bf357600080fd5b505af1158015610c07573d6000803e3d6000fd5b5050505050565b6002602052816000526040600020602052806000526040600020600091509150505481565b60007f000000000000000000000000000000000000000000000000000000000000000073ffffffffffffffffffffffffffffffffffffffff166370a08231306040518263ffffffff1660e01b8152600401610c8e9190611eda565b602060405180830381865afa158015610cab573d6000803e3d6000fd5b505050506040513d601f19601f82011682018060405250810190610ccf919061246b565b905090565b6000600360003373ffffffffffffffffffffffffffffffffffffffff1673ffffffffffffffffffffffffffffffffffffffff1681526020019081526020016000205414158015610d625750600360003373ffffffffffffffffffffffffffffffffffffffff1673ffffffffffffffffffffffffffffffffffffffff1681526020019081526020016000205443115b610da1576040517f08c379a0000000000000000000000000000000000000000000000000000000008152600401610d989061250a565b60405180910390fd5b80600260008573ffffffffffffffffffffffffffffffffffffffff1673ffffffffffffffffffffffffffffffffffffffff16815260200190815260200160002060003373ffffffffffffffffffffffffffffffffffffffff1673ffffffffffffffffffffffffffffffffffffffff1681526020019081526020016000206000828254610e2d919061252a565b92505081905550610e5f82828573ffffffffffffffffffffffffffffffffffffffff166114259092919063ffffffff16565b505050565b6000600360003373ffffffffffffffffffffffffffffffffffffffff1673ffffffffffffffffffffffffffffffffffffffff16815260200190815260200160002081905550565b7f000000000000000000000000000000000000000000000000000000000000000073ffffffffffffffffffffffffffffffffffffffff1663b760faf934306040518363ffffffff1660e01b8152600401610f059190611eda565b6000604051808303818588803b158015610f1e57600080fd5b505af1158015610f32573d6000803e3d6000fd5b5050505050565b610f41610fdf565b600073ffffffffffffffffffffffffffffffffffffffff168173ffffffffffffffffffffffffffffffffffffffff1603610fb0576040517f08c379a0000000000000000000000000000000000000000000000000000000008152600401610fa7906125d0565b60405180910390fd5b610fb9816110e6565b50565b60606000610fc86111aa565b610fd38585856114ab565b91509150935093915050565b610fe761171f565b73ffffffffffffffffffffffffffffffffffffffff16611005610a0e565b73ffffffffffffffffffffffffffffffffffffffff161461105b576040517f08c379a00000000000000000000000000000000000000000000000000000000081526004016110529061263c565b60405180910390fd5b565b6110e0846323b872dd60e01b85858560405160240161107e9392919061265c565b604051602081830303815290604052907bffffffffffffffffffffffffffffffffffffffffffffffffffffffff19166020820180517bffffffffffffffffffffffffffffffffffffffffffffffffffffffff8381831617835250505050611727565b50505050565b60008060009054906101000a900473ffffffffffffffffffffffffffffffffffffffff169050816000806101000a81548173ffffffffffffffffffffffffffffffffffffffff021916908373ffffffffffffffffffffffffffffffffffffffff1602179055508173ffffffffffffffffffffffffffffffffffffffff168173ffffffffffffffffffffffffffffffffffffffff167f8be0079c531659141344cd1fd0a4f28419497f9722a3daafe3b4186f6b6457e060405160405180910390a35050565b7f000000000000000000000000000000000000000000000000000000000000000073ffffffffffffffffffffffffffffffffffffffff163373ffffffffffffffffffffffffffffffffffffffff1614611238576040517f08c379a000000000000000000000000000000000000000000000000000000000815260040161122f906126df565b60405180910390fd5b565b6000806000806000878781019061125191906126ff565b9450945094509450945060008183856188b861126d919061277a565b89611278919061239b565b611282919061277a565b61128c91906127eb565b90506002808111156112a1576112a061281c565b5b8a60028111156112b4576112b361281c565b5b146112eb576112e68630838873ffffffffffffffffffffffffffffffffffffffff1661105d909392919063ffffffff16565b61137f565b80600260008773ffffffffffffffffffffffffffffffffffffffff1673ffffffffffffffffffffffffffffffffffffffff16815260200190815260200160002060008873ffffffffffffffffffffffffffffffffffffffff1673ffffffffffffffffffffffffffffffffffffffff1681526020019081526020016000206000828254611377919061252a565b925050819055505b80600260008773ffffffffffffffffffffffffffffffffffffffff1673ffffffffffffffffffffffffffffffffffffffff16815260200190815260200160002060006113c9610a0e565b73ffffffffffffffffffffffffffffffffffffffff1673ffffffffffffffffffffffffffffffffffffffff1681526020019081526020016000206000828254611412919061239b565b9250508190555050505050505050505050565b6114a68363a9059cbb60e01b848460405160240161144492919061284b565b604051602081830303815290604052907bffffffffffffffffffffffffffffffffffffffffffffffffffffffff19166020820180517bffffffffffffffffffffffffffffffffffffffffffffffffffffffff8381831617835250505050611727565b505050565b606060006188b88560a00135116114f7576040517f08c379a00000000000000000000000000000000000000000000000000000000081526004016114ee906128e6565b60405180910390fd5b3660008680610120019061150b9190612915565b9150915060288282905014611555576040517f08c379a000000000000000000000000000000000000000000000000000000000815260040161154c906129ea565b60405180910390fd5b60008282601490809261156a93929190612a14565b906115759190612a93565b60601c90506000611585896117ef565b9050600061159383896117ff565b905060006115a08b611956565b90506000600360008573ffffffffffffffffffffffffffffffffffffffff1673ffffffffffffffffffffffffffffffffffffffff1681526020019081526020016000205414611624576040517f08c379a000000000000000000000000000000000000000000000000000000000815260040161161b90612b64565b60405180910390fd5b81600260008673ffffffffffffffffffffffffffffffffffffffff1673ffffffffffffffffffffffffffffffffffffffff16815260200190815260200160002060008573ffffffffffffffffffffffffffffffffffffffff1673ffffffffffffffffffffffffffffffffffffffff1681526020019081526020016000205410156116e3576040517f08c379a00000000000000000000000000000000000000000000000000000000081526004016116da90612bf6565b60405180910390fd5b828482848c6040516020016116fc959493929190612c37565b604051602081830303815290604052600097509750505050505050935093915050565b600033905090565b6000611789826040518060400160405280602081526020017f5361666545524332303a206c6f772d6c6576656c2063616c6c206661696c65648152508573ffffffffffffffffffffffffffffffffffffffff166119919092919063ffffffff16565b90506000815114806117ab5750808060200190518101906117aa9190612cc2565b5b6117ea576040517f08c379a00000000000000000000000000000000000000000000000000000000081526004016117e190612d61565b60405180910390fd5b505050565b6000808235905080915050919050565b600080600160008573ffffffffffffffffffffffffffffffffffffffff1673ffffffffffffffffffffffffffffffffffffffff16815260200190815260200160002060009054906101000a900473ffffffffffffffffffffffffffffffffffffffff169050600073ffffffffffffffffffffffffffffffffffffffff168173ffffffffffffffffffffffffffffffffffffffff16036118d3576040517f08c379a00000000000000000000000000000000000000000000000000000000081526004016118ca90612df3565b60405180910390fd5b8073ffffffffffffffffffffffffffffffffffffffff1663d1eca9cf846040518263ffffffff1660e01b815260040161190c9190611e32565b602060405180830381865afa158015611929573d6000803e3d6000fd5b505050506040513d601f19601f8201168201806040525081019061194d919061246b565b91505092915050565b6000808260e0013590506000836101000135905080820361197b57819250505061198c565b611987824883016119a9565b925050505b919050565b60606119a084846000856119c2565b90509392505050565b60008183106119b857816119ba565b825b905092915050565b606082471015611a07576040517f08c379a00000000000000000000000000000000000000000000000000000000081526004016119fe90612e85565b60405180910390fd5b6000808673ffffffffffffffffffffffffffffffffffffffff168587604051611a309190612ee1565b60006040518083038185875af1925050503d8060008114611a6d576040519150601f19603f3d011682016040523d82523d6000602084013e611a72565b606091505b5091509150611a8387838387611a8f565b92505050949350505050565b60608315611af1576000835103611ae957611aa985611b04565b611ae8576040517f08c379a0000000000000000000000000000000000000000000000000000000008152600401611adf90612f44565b60405180910390fd5b5b829050611afc565b611afb8383611b27565b5b949350505050565b6000808273ffffffffffffffffffffffffffffffffffffffff163b119050919050565b600082511115611b3a5781518083602001fd5b806040517f08c379a0000000000000000000000000000000000000000000000000000000008152600401611b6e9190612fa8565b60405180910390fd5b600080fd5b600080fd5b600063ffffffff82169050919050565b611b9a81611b81565b8114611ba557600080fd5b50565b600081359050611bb781611b91565b92915050565b600060208284031215611bd357611bd2611b77565b5b6000611be184828501611ba8565b91505092915050565b600073ffffffffffffffffffffffffffffffffffffffff82169050919050565b6000611c1582611bea565b9050919050565b611c2581611c0a565b8114611c3057600080fd5b50565b600081359050611c4281611c1c565b92915050565b6000819050919050565b611c5b81611c48565b8114611c6657600080fd5b50565b600081359050611c7881611c52565b92915050565b60008060408385031215611c9557611c94611b77565b5b6000611ca385828601611c33565b9250506020611cb485828601611c69565b9150509250929050565b6000611cc982611bea565b9050919050565b6000611cdb82611cbe565b9050919050565b611ceb81611cd0565b8114611cf657600080fd5b50565b600081359050611d0881611ce2565b92915050565b611d1781611cbe565b8114611d2257600080fd5b50565b600081359050611d3481611d0e565b92915050565b600080600060608486031215611d5357611d52611b77565b5b6000611d6186828701611cf9565b9350506020611d7286828701611d25565b9250506040611d8386828701611c69565b9150509250925092565b60008060408385031215611da457611da3611b77565b5b6000611db285828601611cf9565b9250506020611dc385828601611d25565b9150509250929050565b611dd681611c48565b82525050565b6000604082019050611df16000830185611dcd565b611dfe6020830184611dcd565b9392505050565b600060208284031215611e1b57611e1a611b77565b5b6000611e2984828501611d25565b91505092915050565b6000602082019050611e476000830184611dcd565b92915050565b6000611e5882611cbe565b9050919050565b611e6881611e4d565b8114611e7357600080fd5b50565b600081359050611e8581611e5f565b92915050565b60008060408385031215611ea257611ea1611b77565b5b6000611eb085828601611cf9565b9250506020611ec185828601611e76565b9150509250929050565b611ed481611cbe565b82525050565b6000602082019050611eef6000830184611ecb565b92915050565b60038110611f0257600080fd5b50565b600081359050611f1481611ef5565b92915050565b600080fd5b600080fd5b600080fd5b60008083601f840112611f3f57611f3e611f1a565b5b8235905067ffffffffffffffff811115611f5c57611f5b611f1f565b5b602083019150836001820283011115611f7857611f77611f24565b5b9250929050565b60008060008060608587031215611f9957611f98611b77565b5b6000611fa787828801611f05565b945050602085013567ffffffffffffffff811115611fc857611fc7611b7c565b5b611fd487828801611f29565b93509350506040611fe787828801611c69565b91505092959194509250565b60006020828403121561200957612008611b77565b5b600061201784828501611cf9565b91505092915050565b6000819050919050565b600061204561204061203b84611bea565b612020565b611bea565b9050919050565b60006120578261202a565b9050919050565b60006120698261204c565b9050919050565b6120798161205e565b82525050565b60006020820190506120946000830184612070565b92915050565b60006120a58261204c565b9050919050565b6120b58161209a565b82525050565b60006020820190506120d060008301846120ac565b92915050565b6000602082840312156120ec576120eb611b77565b5b60006120fa84828501611c33565b91505092915050565b600080fd5b6000610160828403121561211f5761211e612103565b5b81905092915050565b6000819050919050565b61213b81612128565b811461214657600080fd5b50565b60008135905061215881612132565b92915050565b60008060006060848603121561217757612176611b77565b5b600084013567ffffffffffffffff81111561219557612194611b7c565b5b6121a186828701612108565b93505060206121b286828701612149565b92505060406121c386828701611c69565b9150509250925092565b600081519050919050565b600082825260208201905092915050565b60005b838110156122075780820151818401526020810190506121ec565b60008484015250505050565b6000601f19601f8301169050919050565b600061222f826121cd565b61223981856121d8565b93506122498185602086016121e9565b61225281612213565b840191505092915050565b600060408201905081810360008301526122778185612224565b90506122866020830184611dcd565b9392505050565b61229681611b81565b82525050565b60006020820190506122b1600083018461228d565b92915050565b6122c081611c0a565b82525050565b60006040820190506122db60008301856122b7565b6122e86020830184611dcd565b9392505050565b600082825260208201905092915050565b7f756e737570706f7274656420746f6b656e000000000000000000000000000000600082015250565b60006123366011836122ef565b915061234182612300565b602082019050919050565b6000602082019050818103600083015261236581612329565b9050919050565b7f4e487b7100000000000000000000000000000000000000000000000000000000600052601160045260246000fd5b60006123a682611c48565b91506123b183611c48565b92508282019050808211156123c9576123c861236c565b5b92915050565b7f546f6b656e20616c726561647920736574000000000000000000000000000000600082015250565b60006124056011836122ef565b9150612410826123cf565b602082019050919050565b60006020820190508181036000830152612434816123f8565b9050919050565b600060208201905061245060008301846122b7565b92915050565b60008151905061246581611c52565b92915050565b60006020828403121561248157612480611b77565b5b600061248f84828501612456565b91505092915050565b7f4465706f7369745061796d61737465723a206d75737420756e6c6f636b546f6b60008201527f656e4465706f7369740000000000000000000000000000000000000000000000602082015250565b60006124f46029836122ef565b91506124ff82612498565b604082019050919050565b60006020820190508181036000830152612523816124e7565b9050919050565b600061253582611c48565b915061254083611c48565b92508282039050818111156125585761255761236c565b5b92915050565b7f4f776e61626c653a206e6577206f776e657220697320746865207a65726f206160008201527f6464726573730000000000000000000000000000000000000000000000000000602082015250565b60006125ba6026836122ef565b91506125c58261255e565b604082019050919050565b600060208201905081810360008301526125e9816125ad565b9050919050565b7f4f776e61626c653a2063616c6c6572206973206e6f7420746865206f776e6572600082015250565b60006126266020836122ef565b9150612631826125f0565b602082019050919050565b6000602082019050818103600083015261265581612619565b9050919050565b60006060820190506126716000830186611ecb565b61267e6020830185611ecb565b61268b6040830184611dcd565b949350505050565b7f53656e646572206e6f7420456e747279506f696e740000000000000000000000600082015250565b60006126c96015836122ef565b91506126d482612693565b602082019050919050565b600060208201905081810360008301526126f8816126bc565b9050919050565b600080600080600060a0868803121561271b5761271a611b77565b5b600061272988828901611c33565b955050602061273a88828901611cf9565b945050604061274b88828901611c69565b935050606061275c88828901611c69565b925050608061276d88828901611c69565b9150509295509295909350565b600061278582611c48565b915061279083611c48565b925082820261279e81611c48565b915082820484148315176127b5576127b461236c565b5b5092915050565b7f4e487b7100000000000000000000000000000000000000000000000000000000600052601260045260246000fd5b60006127f682611c48565b915061280183611c48565b925082612811576128106127bc565b5b828204905092915050565b7f4e487b7100000000000000000000000000000000000000000000000000000000600052602160045260246000fd5b60006040820190506128606000830185611ecb565b61286d6020830184611dcd565b9392505050565b7f4465706f7369745061796d61737465723a2067617320746f6f206c6f7720666f60008201527f7220706f73744f70000000000000000000000000000000000000000000000000602082015250565b60006128d06028836122ef565b91506128db82612874565b604082019050919050565b600060208201905081810360008301526128ff816128c3565b9050919050565b600080fd5b600080fd5b600080fd5b6000808335600160200384360303811261293257612931612906565b5b80840192508235915067ffffffffffffffff8211156129545761295361290b565b5b6020830192506001820236038313156129705761296f612910565b5b509250929050565b7f4465706f7369745061796d61737465723a207061796d6173746572416e64446160008201527f7461206d757374207370656369667920746f6b656e0000000000000000000000602082015250565b60006129d46035836122ef565b91506129df82612978565b604082019050919050565b60006020820190508181036000830152612a03816129c7565b9050919050565b600080fd5b600080fd5b60008085851115612a2857612a27612a0a565b5b83861115612a3957612a38612a0f565b5b6001850283019150848603905094509492505050565b600082905092915050565b60007fffffffffffffffffffffffffffffffffffffffff00000000000000000000000082169050919050565b600082821b905092915050565b6000612a9f8383612a4f565b82612aaa8135612a5a565b92506014821015612aea57612ae57fffffffffffffffffffffffffffffffffffffffff00000000000000000000000083601403600802612a86565b831692505b505092915050565b7f4465706f7369745061796d61737465723a206465706f736974206e6f74206c6f60008201527f636b656400000000000000000000000000000000000000000000000000000000602082015250565b6000612b4e6024836122ef565b9150612b5982612af2565b604082019050919050565b60006020820190508181036000830152612b7d81612b41565b9050919050565b7f4465706f7369745061796d61737465723a206465706f73697420746f6f206c6f60008201527f7700000000000000000000000000000000000000000000000000000000000000602082015250565b6000612be06021836122ef565b9150612beb82612b84565b604082019050919050565b60006020820190508181036000830152612c0f81612bd3565b9050919050565b6000612c218261204c565b9050919050565b612c3181612c16565b82525050565b600060a082019050612c4c6000830188611ecb565b612c596020830187612c28565b612c666040830186611dcd565b612c736060830185611dcd565b612c806080830184611dcd565b9695505050505050565b60008115159050919050565b612c9f81612c8a565b8114612caa57600080fd5b50565b600081519050612cbc81612c96565b92915050565b600060208284031215612cd857612cd7611b77565b5b6000612ce684828501612cad565b91505092915050565b7f5361666545524332303a204552433230206f7065726174696f6e20646964206e60008201527f6f74207375636365656400000000000000000000000000000000000000000000602082015250565b6000612d4b602a836122ef565b9150612d5682612cef565b604082019050919050565b60006020820190508181036000830152612d7a81612d3e565b9050919050565b7f4465706f7369745061796d61737465723a20756e737570706f7274656420746f60008201527f6b656e0000000000000000000000000000000000000000000000000000000000602082015250565b6000612ddd6023836122ef565b9150612de882612d81565b604082019050919050565b60006020820190508181036000830152612e0c81612dd0565b9050919050565b7f416464726573733a20696e73756666696369656e742062616c616e636520666f60008201527f722063616c6c0000000000000000000000000000000000000000000000000000602082015250565b6000612e6f6026836122ef565b9150612e7a82612e13565b604082019050919050565b60006020820190508181036000830152612e9e81612e62565b9050919050565b600081905092915050565b6000612ebb826121cd565b612ec58185612ea5565b9350612ed58185602086016121e9565b80840191505092915050565b6000612eed8284612eb0565b915081905092915050565b7f416464726573733a2063616c6c20746f206e6f6e2d636f6e7472616374000000600082015250565b6000612f2e601d836122ef565b9150612f3982612ef8565b602082019050919050565b60006020820190508181036000830152612f5d81612f21565b9050919050565b600081519050919050565b6000612f7a82612f64565b612f8481856122ef565b9350612f948185602086016121e9565b612f9d81612213565b840191505092915050565b60006020820190508181036000830152612fc28184612f6f565b90509291505056fea2646970667358221220ac7d582707085cd8cf4c690cd7ff60bae8aa2ed16ae8a33c4e517e1d1490491a64736f6c63430008130033",
  "linkReferences": {},
  "deployedLinkReferences": {}
}