{
  "_format": "hh-sol-artifact-1",
  "contractName": "TestUniswap",
  "sourceName": "contracts/test/TestUniswap.sol",
  "abi": [
    {
      "inputs": [
        {
          "internalType": "contract TestWrappedNativeToken",
          "name": "_weth",
          "type": "address"
        }
      ],
      "stateMutability": "nonpayable",
      "type": "constructor"
    },
    {
      "anonymous": false,
      "inputs": [
        {
          "indexed": false,
          "internalType": "uint256",
          "name": "amountIn",
          "type": "uint256"
        },
        {
          "indexed": false,
          "internalType": "uint256",
          "name": "amountOut",
          "type": "uint256"
        },
        {
          "indexed": false,
          "internalType": "address",
          "name": "tokenIn",
          "type": "address"
        },
        {
          "indexed": false,
          "internalType": "address",
          "name": "tokenOut",
          "type": "address"
        }
      ],
      "name": "StubUniswapExchangeEvent",
      "type": "event"
    },
    {
      "inputs": [
        {
          "components": [
            {
              "internalType": "address",
              "name": "tokenIn",
              "type": "address"
            },
            {
              "internalType": "address",
              "name": "tokenOut",
              "type": "address"
            },
            {
              "internalType": "uint24",
              "name": "fee",
              "type": "uint24"
            },
            {
              "internalType": "address",
              "name": "recipient",
              "type": "address"
            },
            {
              "internalType": "uint256",
              "name": "deadline",
              "type": "uint256"
            },
            {
              "internalType": "uint256",
              "name": "amountIn",
              "type": "uint256"
            },
            {
              "internalType": "uint256",
              "name": "amountOutMinimum",
              "type": "uint256"
            },
            {
              "internalType": "uint160",
              "name": "sqrtPriceLimitX96",
              "type": "uint160"
            }
          ],
          "internalType": "struct ISwapRouter.ExactInputSingleParams",
          "name": "params",
          "type": "tuple"
        }
      ],
      "name": "exactInputSingle",
      "outputs": [
        {
          "internalType": "uint256",
          "name": "",
          "type": "uint256"
        }
      ],
      "stateMutability": "nonpayable",
      "type": "function"
    },
    {
      "inputs": [
        {
          "components": [
            {
              "internalType": "address",
              "name": "tokenIn",
              "type": "address"
            },
            {
              "internalType": "address",
              "name": "tokenOut",
              "type": "address"
            },
            {
              "internalType": "uint24",
              "name": "fee",
              "type": "uint24"
            },
            {
              "internalType": "address",
              "name": "recipient",
              "type": "address"
            },
            {
              "internalType": "uint256",
              "name": "deadline",
              "type": "uint256"
            },
            {
              "internalType": "uint256",
              "name": "amountOut",
              "type": "uint256"
            },
            {
              "internalType": "uint256",
              "name": "amountInMaximum",
              "type": "uint256"
            },
            {
              "internalType": "uint160",
              "name": "sqrtPriceLimitX96",
              "type": "uint160"
            }
          ],
          "internalType": "struct ISwapRouter.ExactOutputSingleParams",
          "name": "params",
          "type": "tuple"
        }
      ],
      "name": "exactOutputSingle",
      "outputs": [
        {
          "internalType": "uint256",
          "name": "",
          "type": "uint256"
        }
      ],
      "stateMutability": "nonpayable",
      "type": "function"
    },
    {
      "inputs": [
        {
          "internalType": "uint256",
          "name": "amountMinimum",
          "type": "uint256"
        },
        {
          "internalType": "address",
          "name": "recipient",
          "type": "address"
        }
      ],
      "name": "unwrapWETH9",
      "outputs": [],
      "stateMutability": "payable",
      "type": "function"
    },
    {
      "inputs": [],
      "name": "weth",
      "outputs": [
        {
          "internalType": "contract TestWrappedNativeToken",
          "name": "",
          "type": "address"
        }
      ],
      "stateMutability": "view",
      "type": "function"
    },
    {
      "stateMutability": "payable",
      "type": "receive"
    }
  ],
  "bytecode": "0x608060405234801561001057600080fd5b50604051610ca7380380610ca7833981810160405281019061003291906100ed565b806000806101000a81548173ffffffffffffffffffffffffffffffffffffffff021916908373ffffffffffffffffffffffffffffffffffffffff1602179055505061011a565b600080fd5b600073ffffffffffffffffffffffffffffffffffffffff82169050919050565b60006100a88261007d565b9050919050565b60006100ba8261009d565b9050919050565b6100ca816100af565b81146100d557600080fd5b50565b6000815190506100e7816100c1565b92915050565b60006020828403121561010357610102610078565b5b6000610111848285016100d8565b91505092915050565b610b7e806101296000396000f3fe6080604052600436106100435760003560e01c80633fc8cef31461004f578063414bf3891461007a57806349404b7c146100b7578063db3e2198146100d35761004a565b3661004a57005b600080fd5b34801561005b57600080fd5b50610064610110565b60405161007191906106f2565b60405180910390f35b34801561008657600080fd5b506100a1600480360381019061009c9190610737565b610134565b6040516100ae919061077e565b60405180910390f35b6100d160048036038101906100cc9190610803565b6102f2565b005b3480156100df57600080fd5b506100fa60048036038101906100f59190610863565b6104b5565b604051610107919061077e565b60405180910390f35b60008054906101000a900473ffffffffffffffffffffffffffffffffffffffff1681565b60008060058360c0013561014891906108c0565b90507f29a1b057b49189ad91f5d92216fc55e37caf33e398f9e914469523c9aa5f6a038360a001358285600001602081019061018491906108f4565b86602001602081019061019791906108f4565b6040516101a79493929190610930565b60405180910390a18260000160208101906101c291906108f4565b73ffffffffffffffffffffffffffffffffffffffff166323b872dd33308660a001356040518463ffffffff1660e01b815260040161020293929190610975565b6020604051808303816000875af1158015610221573d6000803e3d6000fd5b505050506040513d601f19601f8201168201806040525081019061024591906109e4565b5082602001602081019061025991906108f4565b73ffffffffffffffffffffffffffffffffffffffff1663a9059cbb84606001602081019061028791906108f4565b836040518363ffffffff1660e01b81526004016102a5929190610a11565b6020604051808303816000875af11580156102c4573d6000803e3d6000fd5b505050506040513d601f19601f820116820180604052508101906102e891906109e4565b5080915050919050565b60008060009054906101000a900473ffffffffffffffffffffffffffffffffffffffff1673ffffffffffffffffffffffffffffffffffffffff166370a08231306040518263ffffffff1660e01b815260040161034e9190610a3a565b602060405180830381865afa15801561036b573d6000803e3d6000fd5b505050506040513d601f19601f8201168201806040525081019061038f9190610a6a565b9050828110156103d4576040517f08c379a00000000000000000000000000000000000000000000000000000000081526004016103cb90610af4565b60405180910390fd5b60008111156104b05760008054906101000a900473ffffffffffffffffffffffffffffffffffffffff1673ffffffffffffffffffffffffffffffffffffffff16632e1a7d4d826040518263ffffffff1660e01b8152600401610436919061077e565b600060405180830381600087803b15801561045057600080fd5b505af1158015610464573d6000803e3d6000fd5b505050508173ffffffffffffffffffffffffffffffffffffffff166108fc829081150290604051600060405180830381858888f193505050501580156104ae573d6000803e3d6000fd5b505b505050565b60008060058360c001356104c99190610b14565b90507f29a1b057b49189ad91f5d92216fc55e37caf33e398f9e914469523c9aa5f6a03818460a0013585600001602081019061050591906108f4565b86602001602081019061051891906108f4565b6040516105289493929190610930565b60405180910390a182600001602081019061054391906108f4565b73ffffffffffffffffffffffffffffffffffffffff166323b872dd3330846040518463ffffffff1660e01b815260040161057f93929190610975565b6020604051808303816000875af115801561059e573d6000803e3d6000fd5b505050506040513d601f19601f820116820180604052508101906105c291906109e4565b508260200160208101906105d691906108f4565b73ffffffffffffffffffffffffffffffffffffffff1663a9059cbb84606001602081019061060491906108f4565b8560a001356040518363ffffffff1660e01b8152600401610626929190610a11565b6020604051808303816000875af1158015610645573d6000803e3d6000fd5b505050506040513d601f19601f8201168201806040525081019061066991906109e4565b5080915050919050565b600073ffffffffffffffffffffffffffffffffffffffff82169050919050565b6000819050919050565b60006106b86106b36106ae84610673565b610693565b610673565b9050919050565b60006106ca8261069d565b9050919050565b60006106dc826106bf565b9050919050565b6106ec816106d1565b82525050565b600060208201905061070760008301846106e3565b92915050565b600080fd5b600080fd5b6000610100828403121561072e5761072d610712565b5b81905092915050565b6000610100828403121561074e5761074d61070d565b5b600061075c84828501610717565b91505092915050565b6000819050919050565b61077881610765565b82525050565b6000602082019050610793600083018461076f565b92915050565b6107a281610765565b81146107ad57600080fd5b50565b6000813590506107bf81610799565b92915050565b60006107d082610673565b9050919050565b6107e0816107c5565b81146107eb57600080fd5b50565b6000813590506107fd816107d7565b92915050565b6000806040838503121561081a5761081961070d565b5b6000610828858286016107b0565b9250506020610839858286016107ee565b9150509250929050565b6000610100828403121561085a57610859610712565b5b81905092915050565b6000610100828403121561087a5761087961070d565b5b600061088884828501610843565b91505092915050565b7f4e487b7100000000000000000000000000000000000000000000000000000000600052601160045260246000fd5b60006108cb82610765565b91506108d683610765565b92508282019050808211156108ee576108ed610891565b5b92915050565b60006020828403121561090a5761090961070d565b5b6000610918848285016107ee565b91505092915050565b61092a816107c5565b82525050565b6000608082019050610945600083018761076f565b610952602083018661076f565b61095f6040830185610921565b61096c6060830184610921565b95945050505050565b600060608201905061098a6000830186610921565b6109976020830185610921565b6109a4604083018461076f565b949350505050565b60008115159050919050565b6109c1816109ac565b81146109cc57600080fd5b50565b6000815190506109de816109b8565b92915050565b6000602082840312156109fa576109f961070d565b5b6000610a08848285016109cf565b91505092915050565b6000604082019050610a266000830185610921565b610a33602083018461076f565b9392505050565b6000602082019050610a4f6000830184610921565b92915050565b600081519050610a6481610799565b92915050565b600060208284031215610a8057610a7f61070d565b5b6000610a8e84828501610a55565b91505092915050565b600082825260208201905092915050565b7f496e73756666696369656e742057455448390000000000000000000000000000600082015250565b6000610ade601283610a97565b9150610ae982610aa8565b602082019050919050565b60006020820190508181036000830152610b0d81610ad1565b9050919050565b6000610b1f82610765565b9150610b2a83610765565b9250828203905081811115610b4257610b41610891565b5b9291505056fea264697066735822122064b93b3185861c7933d27e8778d04c225c21239691cf5500f894773685650ef864736f6c63430008130033",
  "linkReferences": {},
  "deployedLinkReferences": {}
}