{
  "_format": "hh-sol-artifact-1",
  "contractName": "TokenPaymaster",
  "sourceName": "contracts/samples/TokenPaymaster.sol",
  "abi": [
    {
      "inputs": [
        {
          "internalType": "contract IERC20Metadata",
          "name": "_token",
          "type": "address"
        },
        {
          "internalType": "contract IEntryPoint",
          "name": "_entryPoint",
          "type": "address"
        },
        {
          "internalType": "contract IERC20",
          "name": "_wrappedNative",
          "type": "address"
        },
        {
          "internalType": "contract ISwapRouter",
          "name": "_uniswap",
          "type": "address"
        },
        {
          "components": [
            {
              "internalType": "uint256",
              "name": "priceMarkup",
              "type": "uint256"
            },
            {
              "internalType": "uint256",
              "name": "minEntryPointBalance",
              "type": "uint256"
            },
            {
              "internalType": "uint256",
              "name": "refundPostopCost",
              "type": "uint256"
            },
            {
              "internalType": "uint256",
              "name": "priceMaxAge",
              "type": "uint256"
            }
          ],
          "internalType": "struct TokenPaymaster.TokenPaymasterConfig",
          "name": "_tokenPaymasterConfig",
          "type": "tuple"
        },
        {
          "components": [
            {
              "internalType": "contract IOracle",
              "name": "tokenOracle",
              "type": "address"
            },
            {
              "internalType": "contract IOracle",
              "name": "nativeOracle",
              "type": "address"
            },
            {
              "internalType": "bool",
              "name": "tokenToNativeOracle",
              "type": "bool"
            },
            {
              "internalType": "bool",
              "name": "tokenOracleReverse",
              "type": "bool"
            },
            {
              "internalType": "bool",
              "name": "nativeOracleReverse",
              "type": "bool"
            },
            {
              "internalType": "uint256",
              "name": "priceUpdateThreshold",
              "type": "uint256"
            },
            {
              "internalType": "uint256",
              "name": "cacheTimeToLive",
              "type": "uint256"
            }
          ],
          "internalType": "struct OracleHelper.OracleHelperConfig",
          "name": "_oracleHelperConfig",
          "type": "tuple"
        },
        {
          "components": [
            {
              "internalType": "uint256",
              "name": "minSwapAmount",
              "type": "uint256"
            },
            {
              "internalType": "uint24",
              "name": "uniswapPoolFee",
              "type": "uint24"
            },
            {
              "internalType": "uint8",
              "name": "slippage",
              "type": "uint8"
            }
          ],
          "internalType": "struct UniswapHelper.UniswapHelperConfig",
          "name": "_uniswapHelperConfig",
          "type": "tuple"
        },
        {
          "internalType": "address",
          "name": "_owner",
          "type": "address"
        }
      ],
      "stateMutability": "nonpayable",
      "type": "constructor"
    },
    {
      "anonymous": false,
      "inputs": [
        {
          "components": [
            {
              "internalType": "uint256",
              "name": "priceMarkup",
              "type": "uint256"
            },
            {
              "internalType": "uint256",
              "name": "minEntryPointBalance",
              "type": "uint256"
            },
            {
              "internalType": "uint256",
              "name": "refundPostopCost",
              "type": "uint256"
            },
            {
              "internalType": "uint256",
              "name": "priceMaxAge",
              "type": "uint256"
            }
          ],
          "indexed": false,
          "internalType": "struct TokenPaymaster.TokenPaymasterConfig",
          "name": "tokenPaymasterConfig",
          "type": "tuple"
        }
      ],
      "name": "ConfigUpdated",
      "type": "event"
    },
    {
      "anonymous": false,
      "inputs": [
        {
          "indexed": true,
          "internalType": "address",
          "name": "previousOwner",
          "type": "address"
        },
        {
          "indexed": true,
          "internalType": "address",
          "name": "newOwner",
          "type": "address"
        }
      ],
      "name": "OwnershipTransferred",
      "type": "event"
    },
    {
      "anonymous": false,
      "inputs": [
        {
          "indexed": true,
          "internalType": "address",
          "name": "user",
          "type": "address"
        },
        {
          "indexed": false,
          "internalType": "uint256",
          "name": "preCharge",
          "type": "uint256"
        }
      ],
      "name": "PostOpReverted",
      "type": "event"
    },
    {
      "anonymous": false,
      "inputs": [
        {
          "indexed": true,
          "internalType": "address",
          "name": "sender",
          "type": "address"
        },
        {
          "indexed": false,
          "internalType": "uint256",
          "name": "value",
          "type": "uint256"
        }
      ],
      "name": "Received",
      "type": "event"
    },
    {
      "anonymous": false,
      "inputs": [
        {
          "indexed": false,
          "internalType": "uint256",
          "name": "currentPrice",
          "type": "uint256"
        },
        {
          "indexed": false,
          "internalType": "uint256",
          "name": "previousPrice",
          "type": "uint256"
        },
        {
          "indexed": false,
          "internalType": "uint256",
          "name": "cachedPriceTimestamp",
          "type": "uint256"
        }
      ],
      "name": "TokenPriceUpdated",
      "type": "event"
    },
    {
      "anonymous": false,
      "inputs": [
        {
          "indexed": false,
          "internalType": "address",
          "name": "tokenIn",
          "type": "address"
        },
        {
          "indexed": false,
          "internalType": "address",
          "name": "tokenOut",
          "type": "address"
        },
        {
          "indexed": false,
          "internalType": "uint256",
          "name": "amountIn",
          "type": "uint256"
        },
        {
          "indexed": false,
          "internalType": "uint256",
          "name": "amountOutMin",
          "type": "uint256"
        }
      ],
      "name": "UniswapReverted",
      "type": "event"
    },
    {
      "anonymous": false,
      "inputs": [
        {
          "indexed": true,
          "internalType": "address",
          "name": "user",
          "type": "address"
        },
        {
          "indexed": false,
          "internalType": "uint256",
          "name": "actualTokenCharge",
          "type": "uint256"
        },
        {
          "indexed": false,
          "internalType": "uint256",
          "name": "actualGasCost",
          "type": "uint256"
        },
        {
          "indexed": false,
          "internalType": "uint256",
          "name": "actualTokenPrice",
          "type": "uint256"
        }
      ],
      "name": "UserOperationSponsored",
      "type": "event"
    },
    {
      "inputs": [
        {
          "internalType": "uint32",
          "name": "unstakeDelaySec",
          "type": "uint32"
        }
      ],
      "name": "addStake",
      "outputs": [],
      "stateMutability": "payable",
      "type": "function"
    },
    {
      "inputs": [],
      "name": "cachedPrice",
      "outputs": [
        {
          "internalType": "uint256",
          "name": "",
          "type": "uint256"
        }
      ],
      "stateMutability": "view",
      "type": "function"
    },
    {
      "inputs": [],
      "name": "cachedPriceTimestamp",
      "outputs": [
        {
          "internalType": "uint256",
          "name": "",
          "type": "uint256"
        }
      ],
      "stateMutability": "view",
      "type": "function"
    },
    {
      "inputs": [],
      "name": "deposit",
      "outputs": [],
      "stateMutability": "payable",
      "type": "function"
    },
    {
      "inputs": [],
      "name": "entryPoint",
      "outputs": [
        {
          "internalType": "contract IEntryPoint",
          "name": "",
          "type": "address"
        }
      ],
      "stateMutability": "view",
      "type": "function"
    },
    {
      "inputs": [],
      "name": "getDeposit",
      "outputs": [
        {
          "internalType": "uint256",
          "name": "",
          "type": "uint256"
        }
      ],
      "stateMutability": "view",
      "type": "function"
    },
    {
      "inputs": [],
      "name": "owner",
      "outputs": [
        {
          "internalType": "address",
          "name": "",
          "type": "address"
        }
      ],
      "stateMutability": "view",
      "type": "function"
    },
    {
      "inputs": [
        {
          "internalType": "enum IPaymaster.PostOpMode",
          "name": "mode",
          "type": "uint8"
        },
        {
          "internalType": "bytes",
          "name": "context",
          "type": "bytes"
        },
        {
          "internalType": "uint256",
          "name": "actualGasCost",
          "type": "uint256"
        }
      ],
      "name": "postOp",
      "outputs": [],
      "stateMutability": "nonpayable",
      "type": "function"
    },
    {
      "inputs": [],
      "name": "renounceOwnership",
      "outputs": [],
      "stateMutability": "nonpayable",
      "type": "function"
    },
    {
      "inputs": [
        {
          "components": [
            {
              "internalType": "uint256",
              "name": "priceMarkup",
              "type": "uint256"
            },
            {
              "internalType": "uint256",
              "name": "minEntryPointBalance",
              "type": "uint256"
            },
            {
              "internalType": "uint256",
              "name": "refundPostopCost",
              "type": "uint256"
            },
            {
              "internalType": "uint256",
              "name": "priceMaxAge",
              "type": "uint256"
            }
          ],
          "internalType": "struct TokenPaymaster.TokenPaymasterConfig",
          "name": "_tokenPaymasterConfig",
          "type": "tuple"
        }
      ],
      "name": "setTokenPaymasterConfig",
      "outputs": [],
      "stateMutability": "nonpayable",
      "type": "function"
    },
    {
      "inputs": [
        {
          "components": [
            {
              "internalType": "uint256",
              "name": "minSwapAmount",
              "type": "uint256"
            },
            {
              "internalType": "uint24",
              "name": "uniswapPoolFee",
              "type": "uint24"
            },
            {
              "internalType": "uint8",
              "name": "slippage",
              "type": "uint8"
            }
          ],
          "internalType": "struct UniswapHelper.UniswapHelperConfig",
          "name": "_uniswapHelperConfig",
          "type": "tuple"
        }
      ],
      "name": "setUniswapConfiguration",
      "outputs": [],
      "stateMutability": "nonpayable",
      "type": "function"
    },
    {
      "inputs": [],
      "name": "token",
      "outputs": [
        {
          "internalType": "contract IERC20",
          "name": "",
          "type": "address"
        }
      ],
      "stateMutability": "view",
      "type": "function"
    },
    {
      "inputs": [
        {
          "internalType": "uint256",
          "name": "amount",
          "type": "uint256"
        },
        {
          "internalType": "uint256",
          "name": "price",
          "type": "uint256"
        }
      ],
      "name": "tokenToWei",
      "outputs": [
        {
          "internalType": "uint256",
          "name": "",
          "type": "uint256"
        }
      ],
      "stateMutability": "pure",
      "type": "function"
    },
    {
      "inputs": [
        {
          "internalType": "address",
          "name": "newOwner",
          "type": "address"
        }
      ],
      "name": "transferOwnership",
      "outputs": [],
      "stateMutability": "nonpayable",
      "type": "function"
    },
    {
      "inputs": [],
      "name": "uniswap",
      "outputs": [
        {
          "internalType": "contract ISwapRouter",
          "name": "",
          "type": "address"
        }
      ],
      "stateMutability": "view",
      "type": "function"
    },
    {
      "inputs": [],
      "name": "unlockStake",
      "outputs": [],
      "stateMutability": "nonpayable",
      "type": "function"
    },
    {
      "inputs": [
        {
          "internalType": "bool",
          "name": "force",
          "type": "bool"
        }
      ],
      "name": "updateCachedPrice",
      "outputs": [
        {
          "internalType": "uint256",
          "name": "newPrice",
          "type": "uint256"
        }
      ],
      "stateMutability": "nonpayable",
      "type": "function"
    },
    {
      "inputs": [
        {
          "components": [
            {
              "internalType": "address",
              "name": "sender",
              "type": "address"
            },
            {
              "internalType": "uint256",
              "name": "nonce",
              "type": "uint256"
            },
            {
              "internalType": "bytes",
              "name": "initCode",
              "type": "bytes"
            },
            {
              "internalType": "bytes",
              "name": "callData",
              "type": "bytes"
            },
            {
              "internalType": "uint256",
              "name": "callGasLimit",
              "type": "uint256"
            },
            {
              "internalType": "uint256",
              "name": "verificationGasLimit",
              "type": "uint256"
            },
            {
              "internalType": "uint256",
              "name": "preVerificationGas",
              "type": "uint256"
            },
            {
              "internalType": "uint256",
              "name": "maxFeePerGas",
              "type": "uint256"
            },
            {
              "internalType": "uint256",
              "name": "maxPriorityFeePerGas",
              "type": "uint256"
            },
            {
              "internalType": "bytes",
              "name": "paymasterAndData",
              "type": "bytes"
            },
            {
              "internalType": "bytes",
              "name": "signature",
              "type": "bytes"
            }
          ],
          "internalType": "struct UserOperation",
          "name": "userOp",
          "type": "tuple"
        },
        {
          "internalType": "bytes32",
          "name": "userOpHash",
          "type": "bytes32"
        },
        {
          "internalType": "uint256",
          "name": "maxCost",
          "type": "uint256"
        }
      ],
      "name": "validatePaymasterUserOp",
      "outputs": [
        {
          "internalType": "bytes",
          "name": "context",
          "type": "bytes"
        },
        {
          "internalType": "uint256",
          "name": "validationData",
          "type": "uint256"
        }
      ],
      "stateMutability": "nonpayable",
      "type": "function"
    },
    {
      "inputs": [
        {
          "internalType": "uint256",
          "name": "amount",
          "type": "uint256"
        },
        {
          "internalType": "uint256",
          "name": "price",
          "type": "uint256"
        }
      ],
      "name": "weiToToken",
      "outputs": [
        {
          "internalType": "uint256",
          "name": "",
          "type": "uint256"
        }
      ],
      "stateMutability": "pure",
      "type": "function"
    },
    {
      "inputs": [
        {
          "internalType": "address payable",
          "name": "withdrawAddress",
          "type": "address"
        }
      ],
      "name": "withdrawStake",
      "outputs": [],
      "stateMutability": "nonpayable",
      "type": "function"
    },
    {
      "inputs": [
        {
          "internalType": "address payable",
          "name": "withdrawAddress",
          "type": "address"
        },
        {
          "internalType": "uint256",
          "name": "amount",
          "type": "uint256"
        }
      ],
      "name": "withdrawTo",
      "outputs": [],
      "stateMutability": "nonpayable",
      "type": "function"
    },
    {
      "inputs": [
        {
          "internalType": "address",
          "name": "to",
          "type": "address"
        },
        {
          "internalType": "uint256",
          "name": "amount",
          "type": "uint256"
        }
      ],
      "name": "withdrawToken",
      "outputs": [],
      "stateMutability": "nonpayable",
      "type": "function"
    },
    {
      "inputs": [],
      "name": "wrappedNative",
      "outputs": [
        {
          "internalType": "contract IERC20",
          "name": "",
          "type": "address"
        }
      ],
      "stateMutability": "view",
      "type": "function"
    },
    {
      "stateMutability": "payable",
      "type": "receive"
    }
  ],
  "bytecode": "0x6101206040523480156200001257600080fd5b5060405162004bf538038062004bf5833981810160405281019062000038919062000e48565b828887878b73ffffffffffffffffffffffffffffffffffffffff1663313ce5676040518163ffffffff1660e01b8152600401602060405180830381865afa15801562000088573d6000803e3d6000fd5b505050506040513d601f19601f82011682018060405250810190620000ae919062000f14565b600a620000bc9190620010c9565b868c620000de620000d2620002db60201b60201c565b620002e360201b60201c565b8073ffffffffffffffffffffffffffffffffffffffff1660808173ffffffffffffffffffffffffffffffffffffffff1681525050508473ffffffffffffffffffffffffffffffffffffffff1663095ea7b3847fffffffffffffffffffffffffffffffffffffffffffffffffffffffffffffffff6040518363ffffffff1660e01b8152600401620001709291906200113c565b6020604051808303816000875af115801562000190573d6000803e3d6000fd5b505050506040513d601f19601f82011682018060405250810190620001b6919062001169565b508473ffffffffffffffffffffffffffffffffffffffff1660c08173ffffffffffffffffffffffffffffffffffffffff16815250508373ffffffffffffffffffffffffffffffffffffffff1660e08173ffffffffffffffffffffffffffffffffffffffff16815250508273ffffffffffffffffffffffffffffffffffffffff1660a08173ffffffffffffffffffffffffffffffffffffffff16815250508161010081815250506200026d81620003a760201b60201c565b50505050507fffffffffffffffffffffffffffffffffffffffffffffffffffffffffffffffff600381905550620002aa816200040060201b60201c565b50620002bc84620006ae60201b60201c565b620002cd81620007e060201b60201c565b5050505050505050620014e2565b600033905090565b60008060009054906101000a900473ffffffffffffffffffffffffffffffffffffffff169050816000806101000a81548173ffffffffffffffffffffffffffffffffffffffff021916908373ffffffffffffffffffffffffffffffffffffffff1602179055508173ffffffffffffffffffffffffffffffffffffffff168173ffffffffffffffffffffffffffffffffffffffff167f8be0079c531659141344cd1fd0a4f28419497f9722a3daafe3b4186f6b6457e060405160405180910390a35050565b8060016000820151816000015560208201518160010160006101000a81548162ffffff021916908362ffffff16021790555060408201518160010160036101000a81548160ff021916908360ff16021790555090505050565b80600560008201518160000160006101000a81548173ffffffffffffffffffffffffffffffffffffffff021916908373ffffffffffffffffffffffffffffffffffffffff16021790555060208201518160010160006101000a81548173ffffffffffffffffffffffffffffffffffffffff021916908373ffffffffffffffffffffffffffffffffffffffff16021790555060408201518160010160146101000a81548160ff02191690831515021790555060608201518160010160156101000a81548160ff02191690831515021790555060808201518160010160166101000a81548160ff02191690831515021790555060a0820151816002015560c08201518160030155905050620f42408160a00151111562000555576040517f08c379a00000000000000000000000000000000000000000000000000000000081526004016200054c90620011fc565b60405180910390fd5b600560000160009054906101000a900473ffffffffffffffffffffffffffffffffffffffff1673ffffffffffffffffffffffffffffffffffffffff1663313ce5676040518163ffffffff1660e01b8152600401602060405180830381865afa158015620005c6573d6000803e3d6000fd5b505050506040513d601f19601f82011682018060405250810190620005ec919062000f14565b600a620005fa9190620010c9565b600981905550600560010160009054906101000a900473ffffffffffffffffffffffffffffffffffffffff1673ffffffffffffffffffffffffffffffffffffffff1663313ce5676040518163ffffffff1660e01b8152600401602060405180830381865afa15801562000671573d6000803e3d6000fd5b505050506040513d601f19601f8201168201806040525081019062000697919062000f14565b600a620006a59190620010c9565b600a8190555050565b620006be6200087660201b60201c565b6a52b7d2dcc80cd2e40000006002620006d891906200121e565b8160000151111562000721576040517f08c379a00000000000000000000000000000000000000000000000000000000081526004016200071890620012b9565b60405180910390fd5b6a52b7d2dcc80cd2e40000008160000151101562000776576040517f08c379a00000000000000000000000000000000000000000000000000000000081526004016200076d906200132b565b60405180910390fd5b80600b600082015181600001556020820151816001015560408201518160020155606082015181600301559050507f9359e69ea224934f7cfbc6e6336e1a65f96eb6607c898f94589b52f4806eece881604051620007d59190620013bb565b60405180910390a150565b620007f06200087660201b60201c565b600073ffffffffffffffffffffffffffffffffffffffff168173ffffffffffffffffffffffffffffffffffffffff160362000862576040517f08c379a000000000000000000000000000000000000000000000000000000000815260040162000859906200144e565b60405180910390fd5b6200087381620002e360201b60201c565b50565b62000886620002db60201b60201c565b73ffffffffffffffffffffffffffffffffffffffff16620008ac6200090760201b60201c565b73ffffffffffffffffffffffffffffffffffffffff161462000905576040517f08c379a0000000000000000000000000000000000000000000000000000000008152600401620008fc90620014c0565b60405180910390fd5b565b60008060009054906101000a900473ffffffffffffffffffffffffffffffffffffffff16905090565b6000604051905090565b600080fd5b600073ffffffffffffffffffffffffffffffffffffffff82169050919050565b60006200096c826200093f565b9050919050565b600062000980826200095f565b9050919050565b620009928162000973565b81146200099e57600080fd5b50565b600081519050620009b28162000987565b92915050565b6000620009c5826200095f565b9050919050565b620009d781620009b8565b8114620009e357600080fd5b50565b600081519050620009f781620009cc565b92915050565b600062000a0a826200095f565b9050919050565b62000a1c81620009fd565b811462000a2857600080fd5b50565b60008151905062000a3c8162000a11565b92915050565b600062000a4f826200095f565b9050919050565b62000a618162000a42565b811462000a6d57600080fd5b50565b60008151905062000a818162000a56565b92915050565b600080fd5b6000601f19601f8301169050919050565b7f4e487b7100000000000000000000000000000000000000000000000000000000600052604160045260246000fd5b62000ad78262000a8c565b810181811067ffffffffffffffff8211171562000af95762000af862000a9d565b5b80604052505050565b600062000b0e62000930565b905062000b1c828262000acc565b919050565b6000819050919050565b62000b368162000b21565b811462000b4257600080fd5b50565b60008151905062000b568162000b2b565b92915050565b60006080828403121562000b755762000b7462000a87565b5b62000b81608062000b02565b9050600062000b938482850162000b45565b600083015250602062000ba98482850162000b45565b602083015250604062000bbf8482850162000b45565b604083015250606062000bd58482850162000b45565b60608301525092915050565b600062000bee826200095f565b9050919050565b62000c008162000be1565b811462000c0c57600080fd5b50565b60008151905062000c208162000bf5565b92915050565b60008115159050919050565b62000c3d8162000c26565b811462000c4957600080fd5b50565b60008151905062000c5d8162000c32565b92915050565b600060e0828403121562000c7c5762000c7b62000a87565b5b62000c8860e062000b02565b9050600062000c9a8482850162000c0f565b600083015250602062000cb08482850162000c0f565b602083015250604062000cc68482850162000c4c565b604083015250606062000cdc8482850162000c4c565b606083015250608062000cf28482850162000c4c565b60808301525060a062000d088482850162000b45565b60a08301525060c062000d1e8482850162000b45565b60c08301525092915050565b600062ffffff82169050919050565b62000d448162000d2a565b811462000d5057600080fd5b50565b60008151905062000d648162000d39565b92915050565b600060ff82169050919050565b62000d828162000d6a565b811462000d8e57600080fd5b50565b60008151905062000da28162000d77565b92915050565b60006060828403121562000dc15762000dc062000a87565b5b62000dcd606062000b02565b9050600062000ddf8482850162000b45565b600083015250602062000df58482850162000d53565b602083015250604062000e0b8482850162000d91565b60408301525092915050565b62000e22816200095f565b811462000e2e57600080fd5b50565b60008151905062000e428162000e17565b92915050565b600080600080600080600080610260898b03121562000e6c5762000e6b6200093a565b5b600062000e7c8b828c01620009a1565b985050602062000e8f8b828c01620009e6565b975050604062000ea28b828c0162000a2b565b965050606062000eb58b828c0162000a70565b955050608062000ec88b828c0162000b5c565b94505061010062000edc8b828c0162000c63565b9350506101e062000ef08b828c0162000da8565b92505061024062000f048b828c0162000e31565b9150509295985092959890939650565b60006020828403121562000f2d5762000f2c6200093a565b5b600062000f3d8482850162000d91565b91505092915050565b7f4e487b7100000000000000000000000000000000000000000000000000000000600052601160045260246000fd5b60008160011c9050919050565b6000808291508390505b600185111562000fd45780860481111562000fac5762000fab62000f46565b5b600185161562000fbc5780820291505b808102905062000fcc8562000f75565b945062000f8c565b94509492505050565b60008262000fef5760019050620010c2565b8162000fff5760009050620010c2565b8160018114620010185760028114620010235762001059565b6001915050620010c2565b60ff84111562001038576200103762000f46565b5b8360020a91508482111562001052576200105162000f46565b5b50620010c2565b5060208310610133831016604e8410600b8410161715620010935782820a9050838111156200108d576200108c62000f46565b5b620010c2565b620010a2848484600162000f82565b92509050818404811115620010bc57620010bb62000f46565b5b81810290505b9392505050565b6000620010d68262000b21565b9150620010e38362000d6a565b9250620011127fffffffffffffffffffffffffffffffffffffffffffffffffffffffffffffffff848462000fdd565b905092915050565b62001125816200095f565b82525050565b620011368162000b21565b82525050565b60006040820190506200115360008301856200111a565b6200116260208301846200112b565b9392505050565b6000602082840312156200118257620011816200093a565b5b6000620011928482850162000c4c565b91505092915050565b600082825260208201905092915050565b7f54504d3a20757064617465207468726573686f6c6420746f6f20686967680000600082015250565b6000620011e4601e836200119b565b9150620011f182620011ac565b602082019050919050565b600060208201905081810360008301526200121781620011d5565b9050919050565b60006200122b8262000b21565b9150620012388362000b21565b9250828202620012488162000b21565b9150828204841483151762001262576200126162000f46565b5b5092915050565b7f54504d3a207072696365206d61726b757020746f6f2068696768000000000000600082015250565b6000620012a1601a836200119b565b9150620012ae8262001269565b602082019050919050565b60006020820190508181036000830152620012d48162001292565b9050919050565b7f54504d3a207072696365206d61726b757020746f6f206c6f7700000000000000600082015250565b6000620013136019836200119b565b91506200132082620012db565b602082019050919050565b60006020820190508181036000830152620013468162001304565b9050919050565b620013588162000b21565b82525050565b6080820160008201516200137660008501826200134d565b5060208201516200138b60208501826200134d565b506040820151620013a060408501826200134d565b506060820151620013b560608501826200134d565b50505050565b6000608082019050620013d260008301846200135e565b92915050565b7f4f776e61626c653a206e6577206f776e657220697320746865207a65726f206160008201527f6464726573730000000000000000000000000000000000000000000000000000602082015250565b6000620014366026836200119b565b91506200144382620013d8565b604082019050919050565b60006020820190508181036000830152620014698162001427565b9050919050565b7f4f776e61626c653a2063616c6c6572206973206e6f7420746865206f776e6572600082015250565b6000620014a86020836200119b565b9150620014b58262001470565b602082019050919050565b60006020820190508181036000830152620014db8162001499565b9050919050565b60805160a05160c05160e05161010051613653620015a26000396000505060008181610d3c0152611ab601526000818161091d01528181610e0c015281816114100152818161144a015281816115ea01526118c501526000818161069001528181611afd01528181611ce30152611d4e015260008181610568015281816105ff01528181610977015281816109a301528181610a2d01528181610abd01528181610c7c015281816112700152818161181701526118f701526136536000f3fe6080604052600436106101445760003560e01c8063bb9fe6bf116100b6578063e1d8153c1161006f578063e1d8153c1461044b578063eb6d3a1114610476578063f2fde38b146104a1578063f465c77e146104ca578063f60fdcb314610508578063fc0c546a1461053357610199565b8063bb9fe6bf14610370578063c23a5cea14610387578063c399ec88146103b0578063c63dcf6a146103db578063d0e30db014610404578063d7a23b3c1461040e57610199565b80637c986aac116101085780637c986aac146102625780638da5cb5b1461029f5780639e281a98146102ca578063a0840fa7146102f3578063a9a234091461031c578063b0d691fe1461034557610199565b80630396cb601461019e578063205c2878146101ba5780632681f7e4146101e35780633ba9290f1461020e578063715018a61461024b57610199565b36610199573373ffffffffffffffffffffffffffffffffffffffff167f88a5966d370b9919b20f3e2c13ff65706f196a4e32cc2c12bf57088f885258743460405161018f9190611f3b565b60405180910390a2005b600080fd5b6101b860048036038101906101b39190611fa6565b61055e565b005b3480156101c657600080fd5b506101e160048036038101906101dc919061205d565b6105f5565b005b3480156101ef57600080fd5b506101f861068e565b60405161020591906120fc565b60405180910390f35b34801561021a57600080fd5b506102356004803603810190610230919061214f565b6106b2565b6040516102429190611f3b565b60405180910390f35b34801561025757600080fd5b506102606108a7565b005b34801561026e57600080fd5b506102896004803603810190610284919061217c565b6108bb565b6040516102969190611f3b565b60405180910390f35b3480156102ab57600080fd5b506102b46108e7565b6040516102c191906121dd565b60405180910390f35b3480156102d657600080fd5b506102f160048036038101906102ec9190612224565b610910565b005b3480156102ff57600080fd5b5061031a600480360381019061031591906123cd565b610947565b005b34801561032857600080fd5b50610343600480360381019061033e9190612484565b61095b565b005b34801561035157600080fd5b5061035a610975565b6040516103679190612519565b60405180910390f35b34801561037c57600080fd5b50610385610999565b005b34801561039357600080fd5b506103ae60048036038101906103a99190612534565b610a23565b005b3480156103bc57600080fd5b506103c5610ab9565b6040516103d29190611f3b565b60405180910390f35b3480156103e757600080fd5b5061040260048036038101906103fd91906125d9565b610b5a565b005b61040c610c7a565b005b34801561041a57600080fd5b506104356004803603810190610430919061217c565b610d08565b6040516104429190611f3b565b60405180910390f35b34801561045757600080fd5b50610460610d34565b60405161046d9190611f3b565b60405180910390f35b34801561048257600080fd5b5061048b610d3a565b6040516104989190612627565b60405180910390f35b3480156104ad57600080fd5b506104c860048036038101906104c39190612642565b610d5e565b005b3480156104d657600080fd5b506104f160048036038101906104ec91906126ca565b610de1565b6040516104ff9291906127b8565b60405180910390f35b34801561051457600080fd5b5061051d610e04565b60405161052a9190611f3b565b60405180910390f35b34801561053f57600080fd5b50610548610e0a565b6040516105559190612627565b60405180910390f35b610566610e2e565b7f000000000000000000000000000000000000000000000000000000000000000073ffffffffffffffffffffffffffffffffffffffff16630396cb6034836040518363ffffffff1660e01b81526004016105c091906127f7565b6000604051808303818588803b1580156105d957600080fd5b505af11580156105ed573d6000803e3d6000fd5b505050505050565b6105fd610e2e565b7f000000000000000000000000000000000000000000000000000000000000000073ffffffffffffffffffffffffffffffffffffffff1663205c287883836040518363ffffffff1660e01b8152600401610658929190612821565b600060405180830381600087803b15801561067257600080fd5b505af1158015610686573d6000803e3d6000fd5b505050505050565b7f000000000000000000000000000000000000000000000000000000000000000081565b60008060056003015490506000600454426106cd9190612879565b9050831580156106dd5750818111155b156106ee57600354925050506108a2565b600060056002015490506000600560000160009054906101000a900473ffffffffffffffffffffffffffffffffffffffff1690506000600560010160009054906101000a900473ffffffffffffffffffffffffffffffffffffffff16905060006003549050600061075e84610eac565b9050600060019050600560010160149054906101000a900460ff166107895761078684610eac565b90505b60006107bb8383600560010160159054906101000a900460ff16600560010160169054906101000a900460ff16611027565b90506000846a52b7d2dcc80cd2e4000000836107d791906128ad565b6107e1919061291e565b905060008c806108065750886a52b7d2dcc80cd2e4000000610803919061294f565b82115b806108265750886a52b7d2dcc80cd2e40000006108239190612879565b82105b90508061084057859b5050505050505050505050506108a2565b600086905083965086600381905550426004819055507ed4fe314618b73a96886b87817a53a5ed51433b0234c85a5e9dafe2cb7b8842878260045460405161088a93929190612983565b60405180910390a1869c505050505050505050505050505b919050565b6108af610e2e565b6108b960006110cb565b565b6000816a52b7d2dcc80cd2e4000000846108d591906128ad565b6108df919061291e565b905092915050565b60008060009054906101000a900473ffffffffffffffffffffffffffffffffffffffff16905090565b610918610e2e565b6109437f0000000000000000000000000000000000000000000000000000000000000000838361118f565b5050565b61094f610e2e565b61095881611215565b50565b61096361126e565b61096f848484846112fe565b50505050565b7f000000000000000000000000000000000000000000000000000000000000000081565b6109a1610e2e565b7f000000000000000000000000000000000000000000000000000000000000000073ffffffffffffffffffffffffffffffffffffffff1663bb9fe6bf6040518163ffffffff1660e01b8152600401600060405180830381600087803b158015610a0957600080fd5b505af1158015610a1d573d6000803e3d6000fd5b50505050565b610a2b610e2e565b7f000000000000000000000000000000000000000000000000000000000000000073ffffffffffffffffffffffffffffffffffffffff1663c23a5cea826040518263ffffffff1660e01b8152600401610a8491906129ba565b600060405180830381600087803b158015610a9e57600080fd5b505af1158015610ab2573d6000803e3d6000fd5b5050505050565b60007f000000000000000000000000000000000000000000000000000000000000000073ffffffffffffffffffffffffffffffffffffffff166370a08231306040518263ffffffff1660e01b8152600401610b1491906121dd565b602060405180830381865afa158015610b31573d6000803e3d6000fd5b505050506040513d601f19601f82011682018060405250810190610b5591906129ea565b905090565b610b62610e2e565b6a52b7d2dcc80cd2e40000006002610b7a91906128ad565b81600001511115610bc0576040517f08c379a0000000000000000000000000000000000000000000000000000000008152600401610bb790612a74565b60405180910390fd5b6a52b7d2dcc80cd2e400000081600001511015610c12576040517f08c379a0000000000000000000000000000000000000000000000000000000008152600401610c0990612ae0565b60405180910390fd5b80600b600082015181600001556020820151816001015560408201518160020155606082015181600301559050507f9359e69ea224934f7cfbc6e6336e1a65f96eb6607c898f94589b52f4806eece881604051610c6f9190612b64565b60405180910390a150565b7f000000000000000000000000000000000000000000000000000000000000000073ffffffffffffffffffffffffffffffffffffffff1663b760faf934306040518363ffffffff1660e01b8152600401610cd491906121dd565b6000604051808303818588803b158015610ced57600080fd5b505af1158015610d01573d6000803e3d6000fd5b5050505050565b60006a52b7d2dcc80cd2e40000008284610d2291906128ad565b610d2c919061291e565b905092915050565b60045481565b7f000000000000000000000000000000000000000000000000000000000000000081565b610d66610e2e565b600073ffffffffffffffffffffffffffffffffffffffff168173ffffffffffffffffffffffffffffffffffffffff1603610dd5576040517f08c379a0000000000000000000000000000000000000000000000000000000008152600401610dcc90612bf1565b60405180910390fd5b610dde816110cb565b50565b60606000610ded61126e565b610df88585856114e1565b91509150935093915050565b60035481565b7f000000000000000000000000000000000000000000000000000000000000000081565b610e3661168b565b73ffffffffffffffffffffffffffffffffffffffff16610e546108e7565b73ffffffffffffffffffffffffffffffffffffffff1614610eaa576040517f08c379a0000000000000000000000000000000000000000000000000000000008152600401610ea190612c5d565b60405180910390fd5b565b60008060008060008573ffffffffffffffffffffffffffffffffffffffff1663feaf968c6040518163ffffffff1660e01b815260040160a060405180830381865afa158015610eff573d6000803e3d6000fd5b505050506040513d601f19601f82011682018060405250810190610f239190612cf5565b94509450509350935060008313610f6f576040517f08c379a0000000000000000000000000000000000000000000000000000000008152600401610f6690612dbc565b60405180910390fd5b6202a30042610f7e9190612879565b821015610fc0576040517f08c379a0000000000000000000000000000000000000000000000000000000008152600401610fb790612e28565b60405180910390fd5b8369ffffffffffffffffffff168169ffffffffffffffffffff16101561101b576040517f08c379a000000000000000000000000000000000000000000000000000000000815260040161101290612e94565b60405180910390fd5b82945050505050919050565b6000821561105a57846009546a52b7d2dcc80cd2e400000061104991906128ad565b611053919061291e565b9450611081565b600954856a52b7d2dcc80cd2e400000061107491906128ad565b61107e919061291e565b94505b81156110a757600a54858561109691906128ad565b6110a0919061291e565b90506110c3565b83600a54866110b691906128ad565b6110c0919061291e565b90505b949350505050565b60008060009054906101000a900473ffffffffffffffffffffffffffffffffffffffff169050816000806101000a81548173ffffffffffffffffffffffffffffffffffffffff021916908373ffffffffffffffffffffffffffffffffffffffff1602179055508173ffffffffffffffffffffffffffffffffffffffff168173ffffffffffffffffffffffffffffffffffffffff167f8be0079c531659141344cd1fd0a4f28419497f9722a3daafe3b4186f6b6457e060405160405180910390a35050565b6112108363a9059cbb60e01b84846040516024016111ae929190612eb4565b604051602081830303815290604052907bffffffffffffffffffffffffffffffffffffffffffffffffffffffff19166020820180517bffffffffffffffffffffffffffffffffffffffffffffffffffffffff8381831617835250505050611693565b505050565b8060016000820151816000015560208201518160010160006101000a81548162ffffff021916908362ffffff16021790555060408201518160010160036101000a81548160ff021916908360ff16021790555090505050565b7f000000000000000000000000000000000000000000000000000000000000000073ffffffffffffffffffffffffffffffffffffffff163373ffffffffffffffffffffffffffffffffffffffff16146112fc576040517f08c379a00000000000000000000000000000000000000000000000000000000081526004016112f390612f29565b60405180910390fd5b565b6000600b600001549050600080600080878781019061131d9190612f49565b93509350935093506000611331848461175b565b905060028081111561134657611345612fb0565b5b8a600281111561135957611358612fb0565b5b036113b7578173ffffffffffffffffffffffffffffffffffffffff167f70d0284ddd39eacb3395a2e94c4dc76dfad486bb418b24573ca1c9097501d57e866040516113a49190611f3b565b60405180910390a25050505050506114db565b60006113c360006106b2565b90506000876a52b7d2dcc80cd2e40000008302816113e4576113e36128ef565b5b049050600083600b60020154028a019050600061140182846108bb565b90508089111561143d576114387f000000000000000000000000000000000000000000000000000000000000000087838c0361118f565b611475565b80891015611474576114737f000000000000000000000000000000000000000000000000000000000000000087308c850361178a565b5b5b8573ffffffffffffffffffffffffffffffffffffffff167f46caa0511cf037f06f57a0bf273a2ff04229f5b12fb04675234a6cbe2e7f1a89828d876040516114bf93929190612983565b60405180910390a26114d084611813565b505050505050505050505b50505050565b6060600080600b60000154905060006014878061012001906115039190612fee565b905003905060008114806115175750602081145b611556576040517f08c379a000000000000000000000000000000000000000000000000000000000815260040161154d9061309d565b60405180910390fd5b60008760e00135600b6002015402860190506000836a52b7d2dcc80cd2e40000006003540281611589576115886128ef565b5b049050602083036115d7576000898061012001906115a79190612fee565b6014906034926115b9939291906130c7565b906115c4919061311a565b60001c9050818110156115d5578091505b505b60006115e383836108bb565b90506116237f00000000000000000000000000000000000000000000000000000000000000008b600001602081019061161c9190612642565b308461178a565b808a60e001358b61010001358c60000160208101906116429190612642565b6040516020016116559493929190613179565b604051602081830303815290604052965061167c6000600b60030154600454016000611987565b95505050505050935093915050565b600033905090565b60006116f5826040518060400160405280602081526020017f5361666545524332303a206c6f772d6c6576656c2063616c6c206661696c65648152508573ffffffffffffffffffffffffffffffffffffffff166119c09092919063ffffffff16565b905060008151148061171757508080602001905181019061171691906131d3565b5b611756576040517f08c379a000000000000000000000000000000000000000000000000000000000815260040161174d90613272565b60405180910390fd5b505050565b600081830361176c57829050611784565b61178183488461177c919061294f565b6119d8565b90505b92915050565b61180d846323b872dd60e01b8585856040516024016117ab93929190613292565b604051602081830303815290604052907bffffffffffffffffffffffffffffffffffffffffffffffffffffffff19166020820180517bffffffffffffffffffffffffffffffffffffffffffffffffffffffff8381831617835250505050611693565b50505050565b60007f000000000000000000000000000000000000000000000000000000000000000073ffffffffffffffffffffffffffffffffffffffff166370a08231306040518263ffffffff1660e01b815260040161186e91906121dd565b602060405180830381865afa15801561188b573d6000803e3d6000fd5b505050506040513d601f19601f820116820180604052508101906118af91906129ea565b9050600b600101548110156119835760006118ea7f0000000000000000000000000000000000000000000000000000000000000000846119f1565b90506118f581611afb565b7f000000000000000000000000000000000000000000000000000000000000000073ffffffffffffffffffffffffffffffffffffffff1663b760faf947306040518363ffffffff1660e01b815260040161194f91906121dd565b6000604051808303818588803b15801561196857600080fd5b505af115801561197c573d6000803e3d6000fd5b5050505050505b5050565b600060d08265ffffffffffff16901b60a08465ffffffffffff16901b856119af5760006119b2565b60015b60ff16171790509392505050565b60606119cf8484600085611b8b565b90509392505050565b60008183106119e757816119e9565b825b905092915050565b6000808373ffffffffffffffffffffffffffffffffffffffff166370a08231306040518263ffffffff1660e01b8152600401611a2d91906121dd565b602060405180830381865afa158015611a4a573d6000803e3d6000fd5b505050506040513d601f19601f82011682018060405250810190611a6e91906129ea565b90506000611a96611a7f8386610d08565b6001800160039054906101000a900460ff16611c58565b9050600160000154811015611ab057600092505050611af5565b611af0857f000000000000000000000000000000000000000000000000000000000000000084846001800160009054906101000a900462ffffff16611c8f565b925050505b92915050565b7f000000000000000000000000000000000000000000000000000000000000000073ffffffffffffffffffffffffffffffffffffffff166349404b7c82306040518363ffffffff1660e01b8152600401611b569291906132c9565b600060405180830381600087803b158015611b7057600080fd5b505af1158015611b84573d6000803e3d6000fd5b5050505050565b606082471015611bd0576040517f08c379a0000000000000000000000000000000000000000000000000000000008152600401611bc790613364565b60405180910390fd5b6000808673ffffffffffffffffffffffffffffffffffffffff168587604051611bf991906133c0565b60006040518083038185875af1925050503d8060008114611c36576040519150601f19603f3d011682016040523d82523d6000602084013e611c3b565b606091505b5091509150611c4c87838387611e3a565b92505050949350505050565b60006103e88260ff166103e8611c6e91906133e5565b61ffff1684611c7d91906128ad565b611c87919061291e565b905092915050565b6000806040518061010001604052808873ffffffffffffffffffffffffffffffffffffffff1681526020018773ffffffffffffffffffffffffffffffffffffffff1681526020018462ffffff1681526020017f000000000000000000000000000000000000000000000000000000000000000073ffffffffffffffffffffffffffffffffffffffff168152602001428152602001868152602001858152602001600073ffffffffffffffffffffffffffffffffffffffff1681525090507f000000000000000000000000000000000000000000000000000000000000000073ffffffffffffffffffffffffffffffffffffffff1663414bf389826040518263ffffffff1660e01b8152600401611da591906134ea565b6020604051808303816000875af1925050508015611de157506040513d601f19601f82011682018060405250810190611dde91906129ea565b60015b611e2b577ff7edd4c6ec425decf715a8b8eaa3b65d3d86e31ad0ff750aa60fa834190f515f87878787604051611e1a9493929190613506565b60405180910390a160009150611e30565b809250505b5095945050505050565b60608315611e9c576000835103611e9457611e5485611eaf565b611e93576040517f08c379a0000000000000000000000000000000000000000000000000000000008152600401611e8a90613597565b60405180910390fd5b5b829050611ea7565b611ea68383611ed2565b5b949350505050565b6000808273ffffffffffffffffffffffffffffffffffffffff163b119050919050565b600082511115611ee55781518083602001fd5b806040517f08c379a0000000000000000000000000000000000000000000000000000000008152600401611f1991906135fb565b60405180910390fd5b6000819050919050565b611f3581611f22565b82525050565b6000602082019050611f506000830184611f2c565b92915050565b6000604051905090565b600080fd5b600080fd5b600063ffffffff82169050919050565b611f8381611f6a565b8114611f8e57600080fd5b50565b600081359050611fa081611f7a565b92915050565b600060208284031215611fbc57611fbb611f60565b5b6000611fca84828501611f91565b91505092915050565b600073ffffffffffffffffffffffffffffffffffffffff82169050919050565b6000611ffe82611fd3565b9050919050565b61200e81611ff3565b811461201957600080fd5b50565b60008135905061202b81612005565b92915050565b61203a81611f22565b811461204557600080fd5b50565b60008135905061205781612031565b92915050565b6000806040838503121561207457612073611f60565b5b60006120828582860161201c565b925050602061209385828601612048565b9150509250929050565b6000819050919050565b60006120c26120bd6120b884611fd3565b61209d565b611fd3565b9050919050565b60006120d4826120a7565b9050919050565b60006120e6826120c9565b9050919050565b6120f6816120db565b82525050565b600060208201905061211160008301846120ed565b92915050565b60008115159050919050565b61212c81612117565b811461213757600080fd5b50565b60008135905061214981612123565b92915050565b60006020828403121561216557612164611f60565b5b60006121738482850161213a565b91505092915050565b6000806040838503121561219357612192611f60565b5b60006121a185828601612048565b92505060206121b285828601612048565b9150509250929050565b60006121c782611fd3565b9050919050565b6121d7816121bc565b82525050565b60006020820190506121f260008301846121ce565b92915050565b612201816121bc565b811461220c57600080fd5b50565b60008135905061221e816121f8565b92915050565b6000806040838503121561223b5761223a611f60565b5b60006122498582860161220f565b925050602061225a85828601612048565b9150509250929050565b600080fd5b6000601f19601f8301169050919050565b7f4e487b7100000000000000000000000000000000000000000000000000000000600052604160045260246000fd5b6122b282612269565b810181811067ffffffffffffffff821117156122d1576122d061227a565b5b80604052505050565b60006122e4611f56565b90506122f082826122a9565b919050565b600062ffffff82169050919050565b61230d816122f5565b811461231857600080fd5b50565b60008135905061232a81612304565b92915050565b600060ff82169050919050565b61234681612330565b811461235157600080fd5b50565b6000813590506123638161233d565b92915050565b60006060828403121561237f5761237e612264565b5b61238960606122da565b9050600061239984828501612048565b60008301525060206123ad8482850161231b565b60208301525060406123c184828501612354565b60408301525092915050565b6000606082840312156123e3576123e2611f60565b5b60006123f184828501612369565b91505092915050565b6003811061240757600080fd5b50565b600081359050612419816123fa565b92915050565b600080fd5b600080fd5b600080fd5b60008083601f8401126124445761244361241f565b5b8235905067ffffffffffffffff81111561246157612460612424565b5b60208301915083600182028301111561247d5761247c612429565b5b9250929050565b6000806000806060858703121561249e5761249d611f60565b5b60006124ac8782880161240a565b945050602085013567ffffffffffffffff8111156124cd576124cc611f65565b5b6124d98782880161242e565b935093505060406124ec87828801612048565b91505092959194509250565b6000612503826120c9565b9050919050565b612513816124f8565b82525050565b600060208201905061252e600083018461250a565b92915050565b60006020828403121561254a57612549611f60565b5b60006125588482850161201c565b91505092915050565b60006080828403121561257757612576612264565b5b61258160806122da565b9050600061259184828501612048565b60008301525060206125a584828501612048565b60208301525060406125b984828501612048565b60408301525060606125cd84828501612048565b60608301525092915050565b6000608082840312156125ef576125ee611f60565b5b60006125fd84828501612561565b91505092915050565b6000612611826120c9565b9050919050565b61262181612606565b82525050565b600060208201905061263c6000830184612618565b92915050565b60006020828403121561265857612657611f60565b5b60006126668482850161220f565b91505092915050565b600080fd5b6000610160828403121561268b5761268a61266f565b5b81905092915050565b6000819050919050565b6126a781612694565b81146126b257600080fd5b50565b6000813590506126c48161269e565b92915050565b6000806000606084860312156126e3576126e2611f60565b5b600084013567ffffffffffffffff81111561270157612700611f65565b5b61270d86828701612674565b935050602061271e868287016126b5565b925050604061272f86828701612048565b9150509250925092565b600081519050919050565b600082825260208201905092915050565b60005b83811015612773578082015181840152602081019050612758565b60008484015250505050565b600061278a82612739565b6127948185612744565b93506127a4818560208601612755565b6127ad81612269565b840191505092915050565b600060408201905081810360008301526127d2818561277f565b90506127e16020830184611f2c565b9392505050565b6127f181611f6a565b82525050565b600060208201905061280c60008301846127e8565b92915050565b61281b81611ff3565b82525050565b60006040820190506128366000830185612812565b6128436020830184611f2c565b9392505050565b7f4e487b7100000000000000000000000000000000000000000000000000000000600052601160045260246000fd5b600061288482611f22565b915061288f83611f22565b92508282039050818111156128a7576128a661284a565b5b92915050565b60006128b882611f22565b91506128c383611f22565b92508282026128d181611f22565b915082820484148315176128e8576128e761284a565b5b5092915050565b7f4e487b7100000000000000000000000000000000000000000000000000000000600052601260045260246000fd5b600061292982611f22565b915061293483611f22565b925082612944576129436128ef565b5b828204905092915050565b600061295a82611f22565b915061296583611f22565b925082820190508082111561297d5761297c61284a565b5b92915050565b60006060820190506129986000830186611f2c565b6129a56020830185611f2c565b6129b26040830184611f2c565b949350505050565b60006020820190506129cf6000830184612812565b92915050565b6000815190506129e481612031565b92915050565b600060208284031215612a00576129ff611f60565b5b6000612a0e848285016129d5565b91505092915050565b600082825260208201905092915050565b7f54504d3a207072696365206d61726b757020746f6f2068696768000000000000600082015250565b6000612a5e601a83612a17565b9150612a6982612a28565b602082019050919050565b60006020820190508181036000830152612a8d81612a51565b9050919050565b7f54504d3a207072696365206d61726b757020746f6f206c6f7700000000000000600082015250565b6000612aca601983612a17565b9150612ad582612a94565b602082019050919050565b60006020820190508181036000830152612af981612abd565b9050919050565b612b0981611f22565b82525050565b608082016000820151612b256000850182612b00565b506020820151612b386020850182612b00565b506040820151612b4b6040850182612b00565b506060820151612b5e6060850182612b00565b50505050565b6000608082019050612b796000830184612b0f565b92915050565b7f4f776e61626c653a206e6577206f776e657220697320746865207a65726f206160008201527f6464726573730000000000000000000000000000000000000000000000000000602082015250565b6000612bdb602683612a17565b9150612be682612b7f565b604082019050919050565b60006020820190508181036000830152612c0a81612bce565b9050919050565b7f4f776e61626c653a2063616c6c6572206973206e6f7420746865206f776e6572600082015250565b6000612c47602083612a17565b9150612c5282612c11565b602082019050919050565b60006020820190508181036000830152612c7681612c3a565b9050919050565b600069ffffffffffffffffffff82169050919050565b612c9c81612c7d565b8114612ca757600080fd5b50565b600081519050612cb981612c93565b92915050565b6000819050919050565b612cd281612cbf565b8114612cdd57600080fd5b50565b600081519050612cef81612cc9565b92915050565b600080600080600060a08688031215612d1157612d10611f60565b5b6000612d1f88828901612caa565b9550506020612d3088828901612ce0565b9450506040612d41888289016129d5565b9350506060612d52888289016129d5565b9250506080612d6388828901612caa565b9150509295509295909350565b7f54504d3a20436861696e6c696e6b207072696365203c3d203000000000000000600082015250565b6000612da6601983612a17565b9150612db182612d70565b602082019050919050565b60006020820190508181036000830152612dd581612d99565b9050919050565b7f54504d3a20496e636f6d706c65746520726f756e640000000000000000000000600082015250565b6000612e12601583612a17565b9150612e1d82612ddc565b602082019050919050565b60006020820190508181036000830152612e4181612e05565b9050919050565b7f54504d3a205374616c6520707269636500000000000000000000000000000000600082015250565b6000612e7e601083612a17565b9150612e8982612e48565b602082019050919050565b60006020820190508181036000830152612ead81612e71565b9050919050565b6000604082019050612ec960008301856121ce565b612ed66020830184611f2c565b9392505050565b7f53656e646572206e6f7420456e747279506f696e740000000000000000000000600082015250565b6000612f13601583612a17565b9150612f1e82612edd565b602082019050919050565b60006020820190508181036000830152612f4281612f06565b9050919050565b60008060008060808587031215612f6357612f62611f60565b5b6000612f7187828801612048565b9450506020612f8287828801612048565b9350506040612f9387828801612048565b9250506060612fa48782880161201c565b91505092959194509250565b7f4e487b7100000000000000000000000000000000000000000000000000000000600052602160045260246000fd5b600080fd5b600080fd5b600080fd5b6000808335600160200384360303811261300b5761300a612fdf565b5b80840192508235915067ffffffffffffffff82111561302d5761302c612fe4565b5b60208301925060018202360383131561304957613048612fe9565b5b509250929050565b7f54504d3a20696e76616c69642064617461206c656e6774680000000000000000600082015250565b6000613087601883612a17565b915061309282613051565b602082019050919050565b600060208201905081810360008301526130b68161307a565b9050919050565b600080fd5b600080fd5b600080858511156130db576130da6130bd565b5b838611156130ec576130eb6130c2565b5b6001850283019150848603905094509492505050565b600082905092915050565b600082821b905092915050565b60006131268383613102565b826131318135612694565b925060208210156131715761316c7fffffffffffffffffffffffffffffffffffffffffffffffffffffffffffffffff8360200360080261310d565b831692505b505092915050565b600060808201905061318e6000830187611f2c565b61319b6020830186611f2c565b6131a86040830185611f2c565b6131b560608301846121ce565b95945050505050565b6000815190506131cd81612123565b92915050565b6000602082840312156131e9576131e8611f60565b5b60006131f7848285016131be565b91505092915050565b7f5361666545524332303a204552433230206f7065726174696f6e20646964206e60008201527f6f74207375636365656400000000000000000000000000000000000000000000602082015250565b600061325c602a83612a17565b915061326782613200565b604082019050919050565b6000602082019050818103600083015261328b8161324f565b9050919050565b60006060820190506132a760008301866121ce565b6132b460208301856121ce565b6132c16040830184611f2c565b949350505050565b60006040820190506132de6000830185611f2c565b6132eb60208301846121ce565b9392505050565b7f416464726573733a20696e73756666696369656e742062616c616e636520666f60008201527f722063616c6c0000000000000000000000000000000000000000000000000000602082015250565b600061334e602683612a17565b9150613359826132f2565b604082019050919050565b6000602082019050818103600083015261337d81613341565b9050919050565b600081905092915050565b600061339a82612739565b6133a48185613384565b93506133b4818560208601612755565b80840191505092915050565b60006133cc828461338f565b915081905092915050565b600061ffff82169050919050565b60006133f0826133d7565b91506133fb836133d7565b9250828203905061ffff8111156134155761341461284a565b5b92915050565b613424816121bc565b82525050565b613433816122f5565b82525050565b61344281611fd3565b82525050565b6101008201600082015161345f600085018261341b565b506020820151613472602085018261341b565b506040820151613485604085018261342a565b506060820151613498606085018261341b565b5060808201516134ab6080850182612b00565b5060a08201516134be60a0850182612b00565b5060c08201516134d160c0850182612b00565b5060e08201516134e460e0850182613439565b50505050565b6000610100820190506135006000830184613448565b92915050565b600060808201905061351b60008301876121ce565b61352860208301866121ce565b6135356040830185611f2c565b6135426060830184611f2c565b95945050505050565b7f416464726573733a2063616c6c20746f206e6f6e2d636f6e7472616374000000600082015250565b6000613581601d83612a17565b915061358c8261354b565b602082019050919050565b600060208201905081810360008301526135b081613574565b9050919050565b600081519050919050565b60006135cd826135b7565b6135d78185612a17565b93506135e7818560208601612755565b6135f081612269565b840191505092915050565b6000602082019050818103600083015261361581846135c2565b90509291505056fea26469706673582212208c77eab1e0e78fe903b6afc6844ce49a710ca65b755fc978530b766db4431c4864736f6c63430008130033",
  "linkReferences": {},
  "deployedLinkReferences": {}
}