{
  "_format": "hh-sol-artifact-1",
  "contractName": "SimpleAccount",
  "sourceName": "contracts/samples/SimpleAccount.sol",
  "abi": [
    {
      "inputs": [
        {
          "internalType": "contract IEntryPoint",
          "name": "anEntryPoint",
          "type": "address"
        }
      ],
      "stateMutability": "nonpayable",
      "type": "constructor"
    },
    {
      "anonymous": false,
      "inputs": [
        {
          "indexed": false,
          "internalType": "address",
          "name": "previousAdmin",
          "type": "address"
        },
        {
          "indexed": false,
          "internalType": "address",
          "name": "newAdmin",
          "type": "address"
        }
      ],
      "name": "AdminChanged",
      "type": "event"
    },
    {
      "anonymous": false,
      "inputs": [
        {
          "indexed": true,
          "internalType": "address",
          "name": "beacon",
          "type": "address"
        }
      ],
      "name": "BeaconUpgraded",
      "type": "event"
    },
    {
      "anonymous": false,
      "inputs": [
        {
          "indexed": false,
          "internalType": "uint8",
          "name": "version",
          "type": "uint8"
        }
      ],
      "name": "Initialized",
      "type": "event"
    },
    {
      "anonymous": false,
      "inputs": [
        {
          "indexed": true,
          "internalType": "contract IEntryPoint",
          "name": "entryPoint",
          "type": "address"
        },
        {
          "indexed": true,
          "internalType": "address",
          "name": "owner",
          "type": "address"
        }
      ],
      "name": "SimpleAccountInitialized",
      "type": "event"
    },
    {
      "anonymous": false,
      "inputs": [
        {
          "indexed": true,
          "internalType": "address",
          "name": "implementation",
          "type": "address"
        }
      ],
      "name": "Upgraded",
      "type": "event"
    },
    {
      "inputs": [],
      "name": "addDeposit",
      "outputs": [],
      "stateMutability": "payable",
      "type": "function"
    },
    {
      "inputs": [],
      "name": "entryPoint",
      "outputs": [
        {
          "internalType": "contract IEntryPoint",
          "name": "",
          "type": "address"
        }
      ],
      "stateMutability": "view",
      "type": "function"
    },
    {
      "inputs": [
        {
          "internalType": "address",
          "name": "dest",
          "type": "address"
        },
        {
          "internalType": "uint256",
          "name": "value",
          "type": "uint256"
        },
        {
          "internalType": "bytes",
          "name": "func",
          "type": "bytes"
        }
      ],
      "name": "execute",
      "outputs": [],
      "stateMutability": "nonpayable",
      "type": "function"
    },
    {
      "inputs": [
        {
          "internalType": "address[]",
          "name": "dest",
          "type": "address[]"
        },
        {
          "internalType": "bytes[]",
          "name": "func",
          "type": "bytes[]"
        }
      ],
      "name": "executeBatch",
      "outputs": [],
      "stateMutability": "nonpayable",
      "type": "function"
    },
    {
      "inputs": [],
      "name": "getDeposit",
      "outputs": [
        {
          "internalType": "uint256",
          "name": "",
          "type": "uint256"
        }
      ],
      "stateMutability": "view",
      "type": "function"
    },
    {
      "inputs": [],
      "name": "getNonce",
      "outputs": [
        {
          "internalType": "uint256",
          "name": "",
          "type": "uint256"
        }
      ],
      "stateMutability": "view",
      "type": "function"
    },
    {
      "inputs": [
        {
          "internalType": "address",
          "name": "anOwner",
          "type": "address"
        }
      ],
      "name": "initialize",
      "outputs": [],
      "stateMutability": "nonpayable",
      "type": "function"
    },
    {
      "inputs": [
        {
          "internalType": "address",
          "name": "",
          "type": "address"
        },
        {
          "internalType": "address",
          "name": "",
          "type": "address"
        },
        {
          "internalType": "uint256[]",
          "name": "",
          "type": "uint256[]"
        },
        {
          "internalType": "uint256[]",
          "name": "",
          "type": "uint256[]"
        },
        {
          "internalType": "bytes",
          "name": "",
          "type": "bytes"
        }
      ],
      "name": "onERC1155BatchReceived",
      "outputs": [
        {
          "internalType": "bytes4",
          "name": "",
          "type": "bytes4"
        }
      ],
      "stateMutability": "pure",
      "type": "function"
    },
    {
      "inputs": [
        {
          "internalType": "address",
          "name": "",
          "type": "address"
        },
        {
          "internalType": "address",
          "name": "",
          "type": "address"
        },
        {
          "internalType": "uint256",
          "name": "",
          "type": "uint256"
        },
        {
          "internalType": "uint256",
          "name": "",
          "type": "uint256"
        },
        {
          "internalType": "bytes",
          "name": "",
          "type": "bytes"
        }
      ],
      "name": "onERC1155Received",
      "outputs": [
        {
          "internalType": "bytes4",
          "name": "",
          "type": "bytes4"
        }
      ],
      "stateMutability": "pure",
      "type": "function"
    },
    {
      "inputs": [
        {
          "internalType": "address",
          "name": "",
          "type": "address"
        },
        {
          "internalType": "address",
          "name": "",
          "type": "address"
        },
        {
          "internalType": "uint256",
          "name": "",
          "type": "uint256"
        },
        {
          "internalType": "bytes",
          "name": "",
          "type": "bytes"
        }
      ],
      "name": "onERC721Received",
      "outputs": [
        {
          "internalType": "bytes4",
          "name": "",
          "type": "bytes4"
        }
      ],
      "stateMutability": "pure",
      "type": "function"
    },
    {
      "inputs": [],
      "name": "owner",
      "outputs": [
        {
          "internalType": "address",
          "name": "",
          "type": "address"
        }
      ],
      "stateMutability": "view",
      "type": "function"
    },
    {
      "inputs": [],
      "name": "ownerAddress2",
      "outputs": [
        {
          "internalType": "address",
          "name": "",
          "type": "address"
        }
      ],
      "stateMutability": "view",
      "type": "function"
    },
    {
      "inputs": [],
      "name": "ownerAddress3",
      "outputs": [
        {
          "internalType": "address",
          "name": "",
          "type": "address"
        }
      ],
      "stateMutability": "view",
      "type": "function"
    },
    {
      "inputs": [],
      "name": "proxiableUUID",
      "outputs": [
        {
          "internalType": "bytes32",
          "name": "",
          "type": "bytes32"
        }
      ],
      "stateMutability": "view",
      "type": "function"
    },
    {
      "inputs": [
        {
          "internalType": "bytes4",
          "name": "interfaceId",
          "type": "bytes4"
        }
      ],
      "name": "supportsInterface",
      "outputs": [
        {
          "internalType": "bool",
          "name": "",
          "type": "bool"
        }
      ],
      "stateMutability": "view",
      "type": "function"
    },
    {
      "inputs": [
        {
          "internalType": "address",
          "name": "",
          "type": "address"
        },
        {
          "internalType": "address",
          "name": "",
          "type": "address"
        },
        {
          "internalType": "address",
          "name": "",
          "type": "address"
        },
        {
          "internalType": "uint256",
          "name": "",
          "type": "uint256"
        },
        {
          "internalType": "bytes",
          "name": "",
          "type": "bytes"
        },
        {
          "internalType": "bytes",
          "name": "",
          "type": "bytes"
        }
      ],
      "name": "tokensReceived",
      "outputs": [],
      "stateMutability": "pure",
      "type": "function"
    },
    {
      "inputs": [
        {
          "internalType": "address",
          "name": "newImplementation",
          "type": "address"
        }
      ],
      "name": "upgradeTo",
      "outputs": [],
      "stateMutability": "nonpayable",
      "type": "function"
    },
    {
      "inputs": [
        {
          "internalType": "address",
          "name": "newImplementation",
          "type": "address"
        },
        {
          "internalType": "bytes",
          "name": "data",
          "type": "bytes"
        }
      ],
      "name": "upgradeToAndCall",
      "outputs": [],
      "stateMutability": "payable",
      "type": "function"
    },
    {
      "inputs": [
        {
          "components": [
            {
              "internalType": "address",
              "name": "sender",
              "type": "address"
            },
            {
              "internalType": "uint256",
              "name": "nonce",
              "type": "uint256"
            },
            {
              "internalType": "bytes",
              "name": "initCode",
              "type": "bytes"
            },
            {
              "internalType": "bytes",
              "name": "callData",
              "type": "bytes"
            },
            {
              "internalType": "uint256",
              "name": "callGasLimit",
              "type": "uint256"
            },
            {
              "internalType": "uint256",
              "name": "verificationGasLimit",
              "type": "uint256"
            },
            {
              "internalType": "uint256",
              "name": "preVerificationGas",
              "type": "uint256"
            },
            {
              "internalType": "uint256",
              "name": "maxFeePerGas",
              "type": "uint256"
            },
            {
              "internalType": "uint256",
              "name": "maxPriorityFeePerGas",
              "type": "uint256"
            },
            {
              "internalType": "bytes",
              "name": "paymasterAndData",
              "type": "bytes"
            },
            {
              "internalType": "bytes",
              "name": "signature",
              "type": "bytes"
            }
          ],
          "internalType": "struct UserOperation",
          "name": "userOp",
          "type": "tuple"
        },
        {
          "internalType": "bytes32",
          "name": "userOpHash",
          "type": "bytes32"
        },
        {
          "internalType": "uint256",
          "name": "missingAccountFunds",
          "type": "uint256"
        }
      ],
      "name": "validateUserOp",
      "outputs": [
        {
          "internalType": "uint256",
          "name": "validationData",
          "type": "uint256"
        }
      ],
      "stateMutability": "nonpayable",
      "type": "function"
    },
    {
      "inputs": [
        {
          "internalType": "address payable",
          "name": "withdrawAddress",
          "type": "address"
        },
        {
          "internalType": "uint256",
          "name": "amount",
          "type": "uint256"
        }
      ],
      "name": "withdrawDepositTo",
      "outputs": [],
      "stateMutability": "nonpayable",
      "type": "function"
    },
    {
      "stateMutability": "payable",
      "type": "receive"
    }
  ],
  "bytecode": "0x60c06040523073ffffffffffffffffffffffffffffffffffffffff1660809073ffffffffffffffffffffffffffffffffffffffff168152503480156200004457600080fd5b50604051620036ed380380620036ed83398181016040528101906200006a9190620001f9565b8073ffffffffffffffffffffffffffffffffffffffff1660a08173ffffffffffffffffffffffffffffffffffffffff1681525050620000ae620000b560201b60201c565b506200030f565b600060019054906101000a900460ff161562000108576040517f08c379a0000000000000000000000000000000000000000000000000000000008152600401620000ff90620002b2565b60405180910390fd5b60ff801660008054906101000a900460ff1660ff1614620001795760ff6000806101000a81548160ff021916908360ff1602179055507f7f26b83ff96e1f2b6a682f133852f6798a09c465da95921460cefb384740249860ff604051620001709190620002f2565b60405180910390a15b565b600080fd5b600073ffffffffffffffffffffffffffffffffffffffff82169050919050565b6000620001ad8262000180565b9050919050565b6000620001c182620001a0565b9050919050565b620001d381620001b4565b8114620001df57600080fd5b50565b600081519050620001f381620001c8565b92915050565b6000602082840312156200021257620002116200017b565b5b60006200022284828501620001e2565b91505092915050565b600082825260208201905092915050565b7f496e697469616c697a61626c653a20636f6e747261637420697320696e69746960008201527f616c697a696e6700000000000000000000000000000000000000000000000000602082015250565b60006200029a6027836200022b565b9150620002a7826200023c565b604082019050919050565b60006020820190508181036000830152620002cd816200028b565b9050919050565b600060ff82169050919050565b620002ec81620002d4565b82525050565b6000602082019050620003096000830184620002e1565b92915050565b60805160a0516133956200035860003960008181610c2e015261165e015260008181610715015281816107a3015281816109c501528181610a530152610b0301526133956000f3fe6080604052600436106101225760003560e01c80635fb701c8116100a0578063bc197c8111610064578063bc197c81146103af578063c399ec88146103ec578063c4d66de814610417578063d087d28814610440578063f23a6e611461046b57610129565b80635fb701c8146102da5780638da5cb5b146103055780639a1b774014610330578063b0d691fe1461035b578063b61d27f61461038657610129565b80633a871cdd116100e75780633a871cdd146102235780634a58db19146102605780634d44560d1461026a5780634f1ef2861461029357806352d1902d146102af57610129565b806223de291461012e57806301ffc9a714610157578063150b7a021461019457806318dfb3c7146101d15780633659cfe6146101fa57610129565b3661012957005b600080fd5b34801561013a57600080fd5b5061015560048036038101906101509190611d85565b6104a8565b005b34801561016357600080fd5b5061017e60048036038101906101799190611eac565b6104b2565b60405161018b9190611ef4565b60405180910390f35b3480156101a057600080fd5b506101bb60048036038101906101b69190611f0f565b6105ec565b6040516101c89190611fa6565b60405180910390f35b3480156101dd57600080fd5b506101f860048036038101906101f3919061206d565b610601565b005b34801561020657600080fd5b50610221600480360381019061021c91906120ee565b610713565b005b34801561022f57600080fd5b5061024a60048036038101906102459190612176565b61089b565b60405161025791906121f4565b60405180910390f35b6102686108ce565b005b34801561027657600080fd5b50610291600480360381019061028c919061224d565b610943565b005b6102ad60048036038101906102a891906123ce565b6109c3565b005b3480156102bb57600080fd5b506102c4610aff565b6040516102d19190612439565b60405180910390f35b3480156102e657600080fd5b506102ef610bb8565b6040516102fc9190612463565b60405180910390f35b34801561031157600080fd5b5061031a610bde565b6040516103279190612463565b60405180910390f35b34801561033c57600080fd5b50610345610c04565b6040516103529190612463565b60405180910390f35b34801561036757600080fd5b50610370610c2a565b60405161037d91906124dd565b60405180910390f35b34801561039257600080fd5b506103ad60048036038101906103a891906124f8565b610c52565b005b3480156103bb57600080fd5b506103d660048036038101906103d191906125c2565b610caf565b6040516103e39190611fa6565b60405180910390f35b3480156103f857600080fd5b50610401610cc7565b60405161040e91906121f4565b60405180910390f35b34801561042357600080fd5b5061043e600480360381019061043991906120ee565b610d4f565b005b34801561044c57600080fd5b50610455610e8f565b60405161046291906121f4565b60405180910390f35b34801561047757600080fd5b50610492600480360381019061048d919061269e565b610f1a565b60405161049f9190611fa6565b60405180910390f35b5050505050505050565b60007f150b7a02000000000000000000000000000000000000000000000000000000007bffffffffffffffffffffffffffffffffffffffffffffffffffffffff1916827bffffffffffffffffffffffffffffffffffffffffffffffffffffffff1916148061057d57507f4e2312e0000000000000000000000000000000000000000000000000000000007bffffffffffffffffffffffffffffffffffffffffffffffffffffffff1916827bffffffffffffffffffffffffffffffffffffffffffffffffffffffff1916145b806105e557507f01ffc9a7000000000000000000000000000000000000000000000000000000007bffffffffffffffffffffffffffffffffffffffffffffffffffffffff1916827bffffffffffffffffffffffffffffffffffffffffffffffffffffffff1916145b9050919050565b600063150b7a0260e01b905095945050505050565b610609610f30565b818190508484905014610651576040517f08c379a000000000000000000000000000000000000000000000000000000000815260040161064890612795565b60405180910390fd5b60005b8484905081101561070c576106f9858583818110610675576106746127b5565b5b905060200201602081019061068a91906120ee565b600085858581811061069f5761069e6127b5565b5b90506020028101906106b191906127f3565b8080601f016020809104026020016040519081016040528093929190818152602001838380828437600081840152601f19601f82011690508083019250505050505050610fff565b808061070490612885565b915050610654565b5050505050565b7f000000000000000000000000000000000000000000000000000000000000000073ffffffffffffffffffffffffffffffffffffffff163073ffffffffffffffffffffffffffffffffffffffff16036107a1576040517f08c379a00000000000000000000000000000000000000000000000000000000081526004016107989061293f565b60405180910390fd5b7f000000000000000000000000000000000000000000000000000000000000000073ffffffffffffffffffffffffffffffffffffffff166107e0611083565b73ffffffffffffffffffffffffffffffffffffffff1614610836576040517f08c379a000000000000000000000000000000000000000000000000000000000815260040161082d906129d1565b60405180910390fd5b61083f816110da565b61089881600067ffffffffffffffff81111561085e5761085d6122a3565b5b6040519080825280601f01601f1916602001820160405280156108905781602001600182028036833780820191505090505b5060006110e5565b50565b60006108a5611253565b6108af84846112ca565b90506108be84602001356113a8565b6108c7826113ab565b9392505050565b6108d6610c2a565b73ffffffffffffffffffffffffffffffffffffffff1663b760faf934306040518363ffffffff1660e01b815260040161090f9190612463565b6000604051808303818588803b15801561092857600080fd5b505af115801561093c573d6000803e3d6000fd5b5050505050565b61094b611447565b610953610c2a565b73ffffffffffffffffffffffffffffffffffffffff1663205c287883836040518363ffffffff1660e01b815260040161098d929190612a00565b600060405180830381600087803b1580156109a757600080fd5b505af11580156109bb573d6000803e3d6000fd5b505050505050565b7f000000000000000000000000000000000000000000000000000000000000000073ffffffffffffffffffffffffffffffffffffffff163073ffffffffffffffffffffffffffffffffffffffff1603610a51576040517f08c379a0000000000000000000000000000000000000000000000000000000008152600401610a489061293f565b60405180910390fd5b7f000000000000000000000000000000000000000000000000000000000000000073ffffffffffffffffffffffffffffffffffffffff16610a90611083565b73ffffffffffffffffffffffffffffffffffffffff1614610ae6576040517f08c379a0000000000000000000000000000000000000000000000000000000008152600401610add906129d1565b60405180910390fd5b610aef826110da565b610afb828260016110e5565b5050565b60007f000000000000000000000000000000000000000000000000000000000000000073ffffffffffffffffffffffffffffffffffffffff163073ffffffffffffffffffffffffffffffffffffffff1614610b8f576040517f08c379a0000000000000000000000000000000000000000000000000000000008152600401610b8690612a9b565b60405180910390fd5b7f360894a13ba1a3210667c828492db98dca3e2076cc3735a920a3ca505d382bbc60001b905090565b600260009054906101000a900473ffffffffffffffffffffffffffffffffffffffff1681565b600060029054906101000a900473ffffffffffffffffffffffffffffffffffffffff1681565b600160009054906101000a900473ffffffffffffffffffffffffffffffffffffffff1681565b60007f0000000000000000000000000000000000000000000000000000000000000000905090565b610c5a610f30565b610ca9848484848080601f016020809104026020016040519081016040528093929190818152602001838380828437600081840152601f19601f82011690508083019250505050505050610fff565b50505050565b600063bc197c8160e01b905098975050505050505050565b6000610cd1610c2a565b73ffffffffffffffffffffffffffffffffffffffff166370a08231306040518263ffffffff1660e01b8152600401610d099190612463565b602060405180830381865afa158015610d26573d6000803e3d6000fd5b505050506040513d601f19601f82011682018060405250810190610d4a9190612ad0565b905090565b60008060019054906101000a900460ff16159050808015610d805750600160008054906101000a900460ff1660ff16105b80610dad5750610d8f306115bf565b158015610dac5750600160008054906101000a900460ff1660ff16145b5b610dec576040517f08c379a0000000000000000000000000000000000000000000000000000000008152600401610de390612b6f565b60405180910390fd5b60016000806101000a81548160ff021916908360ff1602179055508015610e29576001600060016101000a81548160ff0219169083151502179055505b610e32826115e2565b8015610e8b5760008060016101000a81548160ff0219169083151502179055507f7f26b83ff96e1f2b6a682f133852f6798a09c465da95921460cefb38474024986001604051610e829190612bd7565b60405180910390a15b5050565b6000610e99610c2a565b73ffffffffffffffffffffffffffffffffffffffff166335567e1a3060006040518363ffffffff1660e01b8152600401610ed4929190612c51565b602060405180830381865afa158015610ef1573d6000803e3d6000fd5b505050506040513d601f19601f82011682018060405250810190610f159190612ad0565b905090565b600063f23a6e6160e01b90509695505050505050565b610f38610c2a565b73ffffffffffffffffffffffffffffffffffffffff163373ffffffffffffffffffffffffffffffffffffffff161480610fbe5750600060029054906101000a900473ffffffffffffffffffffffffffffffffffffffff1673ffffffffffffffffffffffffffffffffffffffff163373ffffffffffffffffffffffffffffffffffffffff16145b610ffd576040517f08c379a0000000000000000000000000000000000000000000000000000000008152600401610ff490612cc6565b60405180910390fd5b565b6000808473ffffffffffffffffffffffffffffffffffffffff1684846040516110289190612d57565b60006040518083038185875af1925050503d8060008114611065576040519150601f19603f3d011682016040523d82523d6000602084013e61106a565b606091505b50915091508161107c57805160208201fd5b5050505050565b60006110b17f360894a13ba1a3210667c828492db98dca3e2076cc3735a920a3ca505d382bbc60001b6116c2565b60000160009054906101000a900473ffffffffffffffffffffffffffffffffffffffff16905090565b6110e2611447565b50565b6111117f4910fdfa16fed3260ed0e7147f7cc6da11a60208b5b9406d12a635614ffd914360001b6116cc565b60000160009054906101000a900460ff161561113557611130836116d6565b61124e565b8273ffffffffffffffffffffffffffffffffffffffff166352d1902d6040518163ffffffff1660e01b8152600401602060405180830381865afa92505050801561119d57506040513d601f19601f8201168201806040525081019061119a9190612d83565b60015b6111dc576040517f08c379a00000000000000000000000000000000000000000000000000000000081526004016111d390612e22565b60405180910390fd5b7f360894a13ba1a3210667c828492db98dca3e2076cc3735a920a3ca505d382bbc60001b8114611241576040517f08c379a000000000000000000000000000000000000000000000000000000000815260040161123890612eb4565b60405180910390fd5b5061124d83838361178f565b5b505050565b61125b610c2a565b73ffffffffffffffffffffffffffffffffffffffff163373ffffffffffffffffffffffffffffffffffffffff16146112c8576040517f08c379a00000000000000000000000000000000000000000000000000000000081526004016112bf90612f20565b60405180910390fd5b565b6000806112d6836117bb565b905061133e848061014001906112ec91906127f3565b8080601f016020809104026020016040519081016040528093929190818152602001838380828437600081840152601f19601f82011690508083019250505050505050826117f190919063ffffffff16565b73ffffffffffffffffffffffffffffffffffffffff16600060029054906101000a900473ffffffffffffffffffffffffffffffffffffffff1673ffffffffffffffffffffffffffffffffffffffff161461139c5760019150506113a2565b60009150505b92915050565b50565b600081146114445760003373ffffffffffffffffffffffffffffffffffffffff16827fffffffffffffffffffffffffffffffffffffffffffffffffffffffffffffffff906040516113fb90612f66565b600060405180830381858888f193505050503d8060008114611439576040519150601f19603f3d011682016040523d82523d6000602084013e61143e565b606091505b50509050505b50565b600060029054906101000a900473ffffffffffffffffffffffffffffffffffffffff1673ffffffffffffffffffffffffffffffffffffffff163373ffffffffffffffffffffffffffffffffffffffff1614806114ce57503073ffffffffffffffffffffffffffffffffffffffff163373ffffffffffffffffffffffffffffffffffffffff16145b806115265750600160009054906101000a900473ffffffffffffffffffffffffffffffffffffffff1673ffffffffffffffffffffffffffffffffffffffff163373ffffffffffffffffffffffffffffffffffffffff16145b8061157e5750600260009054906101000a900473ffffffffffffffffffffffffffffffffffffffff1673ffffffffffffffffffffffffffffffffffffffff163373ffffffffffffffffffffffffffffffffffffffff16145b6115bd576040517f08c379a00000000000000000000000000000000000000000000000000000000081526004016115b490612fc7565b60405180910390fd5b565b6000808273ffffffffffffffffffffffffffffffffffffffff163b119050919050565b80600060026101000a81548173ffffffffffffffffffffffffffffffffffffffff021916908373ffffffffffffffffffffffffffffffffffffffff160217905550600060029054906101000a900473ffffffffffffffffffffffffffffffffffffffff1673ffffffffffffffffffffffffffffffffffffffff167f000000000000000000000000000000000000000000000000000000000000000073ffffffffffffffffffffffffffffffffffffffff167f47e55c76e7a6f1fd8996a1da8008c1ea29699cca35e7bcd057f2dec313b6e5de60405160405180910390a350565b6000819050919050565b6000819050919050565b6116df816115bf565b61171e576040517f08c379a000000000000000000000000000000000000000000000000000000000815260040161171590613059565b60405180910390fd5b8061174b7f360894a13ba1a3210667c828492db98dca3e2076cc3735a920a3ca505d382bbc60001b6116c2565b60000160006101000a81548173ffffffffffffffffffffffffffffffffffffffff021916908373ffffffffffffffffffffffffffffffffffffffff16021790555050565b61179883611818565b6000825111806117a55750805b156117b6576117b48383611867565b505b505050565b60007f19457468657265756d205369676e6564204d6573736167653a0a33320000000060005281601c52603c6000209050919050565b60008060006118008585611894565b9150915061180d816118e5565b819250505092915050565b611821816116d6565b8073ffffffffffffffffffffffffffffffffffffffff167fbc7cd75a20ee27fd9adebab32041f755214dbc6bffa90cc0225b39da2e5c2d3b60405160405180910390a250565b606061188c838360405180606001604052806027815260200161333960279139611a4b565b905092915050565b60008060418351036118d55760008060006020860151925060408601519150606086015160001a90506118c987828585611ad1565b945094505050506118de565b60006002915091505b9250929050565b600060048111156118f9576118f8613079565b5b81600481111561190c5761190b613079565b5b0315611a48576001600481111561192657611925613079565b5b81600481111561193957611938613079565b5b03611979576040517f08c379a0000000000000000000000000000000000000000000000000000000008152600401611970906130f4565b60405180910390fd5b6002600481111561198d5761198c613079565b5b8160048111156119a05761199f613079565b5b036119e0576040517f08c379a00000000000000000000000000000000000000000000000000000000081526004016119d790613160565b60405180910390fd5b600360048111156119f4576119f3613079565b5b816004811115611a0757611a06613079565b5b03611a47576040517f08c379a0000000000000000000000000000000000000000000000000000000008152600401611a3e906131f2565b60405180910390fd5b5b50565b60606000808573ffffffffffffffffffffffffffffffffffffffff1685604051611a759190612d57565b600060405180830381855af49150503d8060008114611ab0576040519150601f19603f3d011682016040523d82523d6000602084013e611ab5565b606091505b5091509150611ac686838387611bb3565b925050509392505050565b6000807f7fffffffffffffffffffffffffffffff5d576e7357a4501ddfe92f46681b20a08360001c1115611b0c576000600391509150611baa565b600060018787878760405160008152602001604052604051611b319493929190613221565b6020604051602081039080840390855afa158015611b53573d6000803e3d6000fd5b505050602060405103519050600073ffffffffffffffffffffffffffffffffffffffff168173ffffffffffffffffffffffffffffffffffffffff1603611ba157600060019250925050611baa565b80600092509250505b94509492505050565b60608315611c15576000835103611c0d57611bcd856115bf565b611c0c576040517f08c379a0000000000000000000000000000000000000000000000000000000008152600401611c03906132b2565b60405180910390fd5b5b829050611c20565b611c1f8383611c28565b5b949350505050565b600082511115611c3b5781518083602001fd5b806040517f08c379a0000000000000000000000000000000000000000000000000000000008152600401611c6f9190613316565b60405180910390fd5b6000604051905090565b600080fd5b600080fd5b600073ffffffffffffffffffffffffffffffffffffffff82169050919050565b6000611cb782611c8c565b9050919050565b611cc781611cac565b8114611cd257600080fd5b50565b600081359050611ce481611cbe565b92915050565b6000819050919050565b611cfd81611cea565b8114611d0857600080fd5b50565b600081359050611d1a81611cf4565b92915050565b600080fd5b600080fd5b600080fd5b60008083601f840112611d4557611d44611d20565b5b8235905067ffffffffffffffff811115611d6257611d61611d25565b5b602083019150836001820283011115611d7e57611d7d611d2a565b5b9250929050565b60008060008060008060008060c0898b031215611da557611da4611c82565b5b6000611db38b828c01611cd5565b9850506020611dc48b828c01611cd5565b9750506040611dd58b828c01611cd5565b9650506060611de68b828c01611d0b565b955050608089013567ffffffffffffffff811115611e0757611e06611c87565b5b611e138b828c01611d2f565b945094505060a089013567ffffffffffffffff811115611e3657611e35611c87565b5b611e428b828c01611d2f565b92509250509295985092959890939650565b60007fffffffff0000000000000000000000000000000000000000000000000000000082169050919050565b611e8981611e54565b8114611e9457600080fd5b50565b600081359050611ea681611e80565b92915050565b600060208284031215611ec257611ec1611c82565b5b6000611ed084828501611e97565b91505092915050565b60008115159050919050565b611eee81611ed9565b82525050565b6000602082019050611f096000830184611ee5565b92915050565b600080600080600060808688031215611f2b57611f2a611c82565b5b6000611f3988828901611cd5565b9550506020611f4a88828901611cd5565b9450506040611f5b88828901611d0b565b935050606086013567ffffffffffffffff811115611f7c57611f7b611c87565b5b611f8888828901611d2f565b92509250509295509295909350565b611fa081611e54565b82525050565b6000602082019050611fbb6000830184611f97565b92915050565b60008083601f840112611fd757611fd6611d20565b5b8235905067ffffffffffffffff811115611ff457611ff3611d25565b5b6020830191508360208202830111156120105761200f611d2a565b5b9250929050565b60008083601f84011261202d5761202c611d20565b5b8235905067ffffffffffffffff81111561204a57612049611d25565b5b60208301915083602082028301111561206657612065611d2a565b5b9250929050565b6000806000806040858703121561208757612086611c82565b5b600085013567ffffffffffffffff8111156120a5576120a4611c87565b5b6120b187828801611fc1565b9450945050602085013567ffffffffffffffff8111156120d4576120d3611c87565b5b6120e087828801612017565b925092505092959194509250565b60006020828403121561210457612103611c82565b5b600061211284828501611cd5565b91505092915050565b600080fd5b600061016082840312156121375761213661211b565b5b81905092915050565b6000819050919050565b61215381612140565b811461215e57600080fd5b50565b6000813590506121708161214a565b92915050565b60008060006060848603121561218f5761218e611c82565b5b600084013567ffffffffffffffff8111156121ad576121ac611c87565b5b6121b986828701612120565b93505060206121ca86828701612161565b92505060406121db86828701611d0b565b9150509250925092565b6121ee81611cea565b82525050565b600060208201905061220960008301846121e5565b92915050565b600061221a82611c8c565b9050919050565b61222a8161220f565b811461223557600080fd5b50565b60008135905061224781612221565b92915050565b6000806040838503121561226457612263611c82565b5b600061227285828601612238565b925050602061228385828601611d0b565b9150509250929050565b600080fd5b6000601f19601f8301169050919050565b7f4e487b7100000000000000000000000000000000000000000000000000000000600052604160045260246000fd5b6122db82612292565b810181811067ffffffffffffffff821117156122fa576122f96122a3565b5b80604052505050565b600061230d611c78565b905061231982826122d2565b919050565b600067ffffffffffffffff821115612339576123386122a3565b5b61234282612292565b9050602081019050919050565b82818337600083830152505050565b600061237161236c8461231e565b612303565b90508281526020810184848401111561238d5761238c61228d565b5b61239884828561234f565b509392505050565b600082601f8301126123b5576123b4611d20565b5b81356123c584826020860161235e565b91505092915050565b600080604083850312156123e5576123e4611c82565b5b60006123f385828601611cd5565b925050602083013567ffffffffffffffff81111561241457612413611c87565b5b612420858286016123a0565b9150509250929050565b61243381612140565b82525050565b600060208201905061244e600083018461242a565b92915050565b61245d81611cac565b82525050565b60006020820190506124786000830184612454565b92915050565b6000819050919050565b60006124a361249e61249984611c8c565b61247e565b611c8c565b9050919050565b60006124b582612488565b9050919050565b60006124c7826124aa565b9050919050565b6124d7816124bc565b82525050565b60006020820190506124f260008301846124ce565b92915050565b6000806000806060858703121561251257612511611c82565b5b600061252087828801611cd5565b945050602061253187828801611d0b565b935050604085013567ffffffffffffffff81111561255257612551611c87565b5b61255e87828801611d2f565b925092505092959194509250565b60008083601f84011261258257612581611d20565b5b8235905067ffffffffffffffff81111561259f5761259e611d25565b5b6020830191508360208202830111156125bb576125ba611d2a565b5b9250929050565b60008060008060008060008060a0898b0312156125e2576125e1611c82565b5b60006125f08b828c01611cd5565b98505060206126018b828c01611cd5565b975050604089013567ffffffffffffffff81111561262257612621611c87565b5b61262e8b828c0161256c565b9650965050606089013567ffffffffffffffff81111561265157612650611c87565b5b61265d8b828c0161256c565b9450945050608089013567ffffffffffffffff8111156126805761267f611c87565b5b61268c8b828c01611d2f565b92509250509295985092959890939650565b60008060008060008060a087890312156126bb576126ba611c82565b5b60006126c989828a01611cd5565b96505060206126da89828a01611cd5565b95505060406126eb89828a01611d0b565b94505060606126fc89828a01611d0b565b935050608087013567ffffffffffffffff81111561271d5761271c611c87565b5b61272989828a01611d2f565b92509250509295509295509295565b600082825260208201905092915050565b7f77726f6e67206172726179206c656e6774687300000000000000000000000000600082015250565b600061277f601383612738565b915061278a82612749565b602082019050919050565b600060208201905081810360008301526127ae81612772565b9050919050565b7f4e487b7100000000000000000000000000000000000000000000000000000000600052603260045260246000fd5b600080fd5b600080fd5b600080fd5b600080833560016020038436030381126128105761280f6127e4565b5b80840192508235915067ffffffffffffffff821115612832576128316127e9565b5b60208301925060018202360383131561284e5761284d6127ee565b5b509250929050565b7f4e487b7100000000000000000000000000000000000000000000000000000000600052601160045260246000fd5b600061289082611cea565b91507fffffffffffffffffffffffffffffffffffffffffffffffffffffffffffffffff82036128c2576128c1612856565b5b600182019050919050565b7f46756e6374696f6e206d7573742062652063616c6c6564207468726f7567682060008201527f64656c656761746563616c6c0000000000000000000000000000000000000000602082015250565b6000612929602c83612738565b9150612934826128cd565b604082019050919050565b600060208201905081810360008301526129588161291c565b9050919050565b7f46756e6374696f6e206d7573742062652063616c6c6564207468726f7567682060008201527f6163746976652070726f78790000000000000000000000000000000000000000602082015250565b60006129bb602c83612738565b91506129c68261295f565b604082019050919050565b600060208201905081810360008301526129ea816129ae565b9050919050565b6129fa8161220f565b82525050565b6000604082019050612a1560008301856129f1565b612a2260208301846121e5565b9392505050565b7f555550535570677261646561626c653a206d757374206e6f742062652063616c60008201527f6c6564207468726f7567682064656c656761746563616c6c0000000000000000602082015250565b6000612a85603883612738565b9150612a9082612a29565b604082019050919050565b60006020820190508181036000830152612ab481612a78565b9050919050565b600081519050612aca81611cf4565b92915050565b600060208284031215612ae657612ae5611c82565b5b6000612af484828501612abb565b91505092915050565b7f496e697469616c697a61626c653a20636f6e747261637420697320616c72656160008201527f647920696e697469616c697a6564000000000000000000000000000000000000602082015250565b6000612b59602e83612738565b9150612b6482612afd565b604082019050919050565b60006020820190508181036000830152612b8881612b4c565b9050919050565b6000819050919050565b600060ff82169050919050565b6000612bc1612bbc612bb784612b8f565b61247e565b612b99565b9050919050565b612bd181612ba6565b82525050565b6000602082019050612bec6000830184612bc8565b92915050565b6000819050919050565b600077ffffffffffffffffffffffffffffffffffffffffffffffff82169050919050565b6000612c3b612c36612c3184612bf2565b61247e565b612bfc565b9050919050565b612c4b81612c20565b82525050565b6000604082019050612c666000830185612454565b612c736020830184612c42565b9392505050565b7f6163636f756e743a206e6f74204f776e6572206f7220456e747279506f696e74600082015250565b6000612cb0602083612738565b9150612cbb82612c7a565b602082019050919050565b60006020820190508181036000830152612cdf81612ca3565b9050919050565b600081519050919050565b600081905092915050565b60005b83811015612d1a578082015181840152602081019050612cff565b60008484015250505050565b6000612d3182612ce6565b612d3b8185612cf1565b9350612d4b818560208601612cfc565b80840191505092915050565b6000612d638284612d26565b915081905092915050565b600081519050612d7d8161214a565b92915050565b600060208284031215612d9957612d98611c82565b5b6000612da784828501612d6e565b91505092915050565b7f45524331393637557067726164653a206e657720696d706c656d656e7461746960008201527f6f6e206973206e6f742055555053000000000000000000000000000000000000602082015250565b6000612e0c602e83612738565b9150612e1782612db0565b604082019050919050565b60006020820190508181036000830152612e3b81612dff565b9050919050565b7f45524331393637557067726164653a20756e737570706f727465642070726f7860008201527f6961626c65555549440000000000000000000000000000000000000000000000602082015250565b6000612e9e602983612738565b9150612ea982612e42565b604082019050919050565b60006020820190508181036000830152612ecd81612e91565b9050919050565b7f6163636f756e743a206e6f742066726f6d20456e747279506f696e7400000000600082015250565b6000612f0a601c83612738565b9150612f1582612ed4565b602082019050919050565b60006020820190508181036000830152612f3981612efd565b9050919050565b50565b6000612f50600083612cf1565b9150612f5b82612f40565b600082019050919050565b6000612f7182612f43565b9150819050919050565b7f6f6e6c79206f776e657200000000000000000000000000000000000000000000600082015250565b6000612fb1600a83612738565b9150612fbc82612f7b565b602082019050919050565b60006020820190508181036000830152612fe081612fa4565b9050919050565b7f455243313936373a206e657720696d706c656d656e746174696f6e206973206e60008201527f6f74206120636f6e747261637400000000000000000000000000000000000000602082015250565b6000613043602d83612738565b915061304e82612fe7565b604082019050919050565b6000602082019050818103600083015261307281613036565b9050919050565b7f4e487b7100000000000000000000000000000000000000000000000000000000600052602160045260246000fd5b7f45434453413a20696e76616c6964207369676e61747572650000000000000000600082015250565b60006130de601883612738565b91506130e9826130a8565b602082019050919050565b6000602082019050818103600083015261310d816130d1565b9050919050565b7f45434453413a20696e76616c6964207369676e6174757265206c656e67746800600082015250565b600061314a601f83612738565b915061315582613114565b602082019050919050565b600060208201905081810360008301526131798161313d565b9050919050565b7f45434453413a20696e76616c6964207369676e6174757265202773272076616c60008201527f7565000000000000000000000000000000000000000000000000000000000000602082015250565b60006131dc602283612738565b91506131e782613180565b604082019050919050565b6000602082019050818103600083015261320b816131cf565b9050919050565b61321b81612b99565b82525050565b6000608082019050613236600083018761242a565b6132436020830186613212565b613250604083018561242a565b61325d606083018461242a565b95945050505050565b7f416464726573733a2063616c6c20746f206e6f6e2d636f6e7472616374000000600082015250565b600061329c601d83612738565b91506132a782613266565b602082019050919050565b600060208201905081810360008301526132cb8161328f565b9050919050565b600081519050919050565b60006132e8826132d2565b6132f28185612738565b9350613302818560208601612cfc565b61330b81612292565b840191505092915050565b6000602082019050818103600083015261333081846132dd565b90509291505056fe416464726573733a206c6f772d6c6576656c2064656c65676174652063616c6c206661696c6564a2646970667358221220db2748f1032d730c8e5ea3b4ccc4ce2780faf56709aa0902bfc6b5573cb3a70e64736f6c63430008130033",
  "linkReferences": {},
  "deployedLinkReferences": {}
}