{
  "_format": "hh-sol-artifact-1",
  "contractName": "TestExpiryAccount",
  "sourceName": "contracts/test/TestExpiryAccount.sol",
  "abi": [
    {
      "inputs": [
        {
          "internalType": "contract IEntryPoint",
          "name": "anEntryPoint",
          "type": "address"
        }
      ],
      "stateMutability": "nonpayable",
      "type": "constructor"
    },
    {
      "anonymous": false,
      "inputs": [
        {
          "indexed": false,
          "internalType": "address",
          "name": "previousAdmin",
          "type": "address"
        },
        {
          "indexed": false,
          "internalType": "address",
          "name": "newAdmin",
          "type": "address"
        }
      ],
      "name": "AdminChanged",
      "type": "event"
    },
    {
      "anonymous": false,
      "inputs": [
        {
          "indexed": true,
          "internalType": "address",
          "name": "beacon",
          "type": "address"
        }
      ],
      "name": "BeaconUpgraded",
      "type": "event"
    },
    {
      "anonymous": false,
      "inputs": [
        {
          "indexed": false,
          "internalType": "uint8",
          "name": "version",
          "type": "uint8"
        }
      ],
      "name": "Initialized",
      "type": "event"
    },
    {
      "anonymous": false,
      "inputs": [
        {
          "indexed": true,
          "internalType": "contract IEntryPoint",
          "name": "entryPoint",
          "type": "address"
        },
        {
          "indexed": true,
          "internalType": "address",
          "name": "owner",
          "type": "address"
        }
      ],
      "name": "SimpleAccountInitialized",
      "type": "event"
    },
    {
      "anonymous": false,
      "inputs": [
        {
          "indexed": true,
          "internalType": "address",
          "name": "implementation",
          "type": "address"
        }
      ],
      "name": "Upgraded",
      "type": "event"
    },
    {
      "inputs": [],
      "name": "addDeposit",
      "outputs": [],
      "stateMutability": "payable",
      "type": "function"
    },
    {
      "inputs": [
        {
          "internalType": "address",
          "name": "owner",
          "type": "address"
        },
        {
          "internalType": "uint48",
          "name": "_after",
          "type": "uint48"
        },
        {
          "internalType": "uint48",
          "name": "_until",
          "type": "uint48"
        }
      ],
      "name": "addTemporaryOwner",
      "outputs": [],
      "stateMutability": "nonpayable",
      "type": "function"
    },
    {
      "inputs": [],
      "name": "entryPoint",
      "outputs": [
        {
          "internalType": "contract IEntryPoint",
          "name": "",
          "type": "address"
        }
      ],
      "stateMutability": "view",
      "type": "function"
    },
    {
      "inputs": [
        {
          "internalType": "address",
          "name": "dest",
          "type": "address"
        },
        {
          "internalType": "uint256",
          "name": "value",
          "type": "uint256"
        },
        {
          "internalType": "bytes",
          "name": "func",
          "type": "bytes"
        }
      ],
      "name": "execute",
      "outputs": [],
      "stateMutability": "nonpayable",
      "type": "function"
    },
    {
      "inputs": [
        {
          "internalType": "address[]",
          "name": "dest",
          "type": "address[]"
        },
        {
          "internalType": "bytes[]",
          "name": "func",
          "type": "bytes[]"
        }
      ],
      "name": "executeBatch",
      "outputs": [],
      "stateMutability": "nonpayable",
      "type": "function"
    },
    {
      "inputs": [],
      "name": "getDeposit",
      "outputs": [
        {
          "internalType": "uint256",
          "name": "",
          "type": "uint256"
        }
      ],
      "stateMutability": "view",
      "type": "function"
    },
    {
      "inputs": [],
      "name": "getNonce",
      "outputs": [
        {
          "internalType": "uint256",
          "name": "",
          "type": "uint256"
        }
      ],
      "stateMutability": "view",
      "type": "function"
    },
    {
      "inputs": [
        {
          "internalType": "address",
          "name": "anOwner",
          "type": "address"
        }
      ],
      "name": "initialize",
      "outputs": [],
      "stateMutability": "nonpayable",
      "type": "function"
    },
    {
      "inputs": [
        {
          "internalType": "address",
          "name": "",
          "type": "address"
        },
        {
          "internalType": "address",
          "name": "",
          "type": "address"
        },
        {
          "internalType": "uint256[]",
          "name": "",
          "type": "uint256[]"
        },
        {
          "internalType": "uint256[]",
          "name": "",
          "type": "uint256[]"
        },
        {
          "internalType": "bytes",
          "name": "",
          "type": "bytes"
        }
      ],
      "name": "onERC1155BatchReceived",
      "outputs": [
        {
          "internalType": "bytes4",
          "name": "",
          "type": "bytes4"
        }
      ],
      "stateMutability": "pure",
      "type": "function"
    },
    {
      "inputs": [
        {
          "internalType": "address",
          "name": "",
          "type": "address"
        },
        {
          "internalType": "address",
          "name": "",
          "type": "address"
        },
        {
          "internalType": "uint256",
          "name": "",
          "type": "uint256"
        },
        {
          "internalType": "uint256",
          "name": "",
          "type": "uint256"
        },
        {
          "internalType": "bytes",
          "name": "",
          "type": "bytes"
        }
      ],
      "name": "onERC1155Received",
      "outputs": [
        {
          "internalType": "bytes4",
          "name": "",
          "type": "bytes4"
        }
      ],
      "stateMutability": "pure",
      "type": "function"
    },
    {
      "inputs": [
        {
          "internalType": "address",
          "name": "",
          "type": "address"
        },
        {
          "internalType": "address",
          "name": "",
          "type": "address"
        },
        {
          "internalType": "uint256",
          "name": "",
          "type": "uint256"
        },
        {
          "internalType": "bytes",
          "name": "",
          "type": "bytes"
        }
      ],
      "name": "onERC721Received",
      "outputs": [
        {
          "internalType": "bytes4",
          "name": "",
          "type": "bytes4"
        }
      ],
      "stateMutability": "pure",
      "type": "function"
    },
    {
      "inputs": [],
      "name": "owner",
      "outputs": [
        {
          "internalType": "address",
          "name": "",
          "type": "address"
        }
      ],
      "stateMutability": "view",
      "type": "function"
    },
    {
      "inputs": [],
      "name": "ownerAddress2",
      "outputs": [
        {
          "internalType": "address",
          "name": "",
          "type": "address"
        }
      ],
      "stateMutability": "view",
      "type": "function"
    },
    {
      "inputs": [],
      "name": "ownerAddress3",
      "outputs": [
        {
          "internalType": "address",
          "name": "",
          "type": "address"
        }
      ],
      "stateMutability": "view",
      "type": "function"
    },
    {
      "inputs": [
        {
          "internalType": "address",
          "name": "",
          "type": "address"
        }
      ],
      "name": "ownerAfter",
      "outputs": [
        {
          "internalType": "uint48",
          "name": "",
          "type": "uint48"
        }
      ],
      "stateMutability": "view",
      "type": "function"
    },
    {
      "inputs": [
        {
          "internalType": "address",
          "name": "",
          "type": "address"
        }
      ],
      "name": "ownerUntil",
      "outputs": [
        {
          "internalType": "uint48",
          "name": "",
          "type": "uint48"
        }
      ],
      "stateMutability": "view",
      "type": "function"
    },
    {
      "inputs": [],
      "name": "proxiableUUID",
      "outputs": [
        {
          "internalType": "bytes32",
          "name": "",
          "type": "bytes32"
        }
      ],
      "stateMutability": "view",
      "type": "function"
    },
    {
      "inputs": [
        {
          "internalType": "bytes4",
          "name": "interfaceId",
          "type": "bytes4"
        }
      ],
      "name": "supportsInterface",
      "outputs": [
        {
          "internalType": "bool",
          "name": "",
          "type": "bool"
        }
      ],
      "stateMutability": "view",
      "type": "function"
    },
    {
      "inputs": [
        {
          "internalType": "address",
          "name": "",
          "type": "address"
        },
        {
          "internalType": "address",
          "name": "",
          "type": "address"
        },
        {
          "internalType": "address",
          "name": "",
          "type": "address"
        },
        {
          "internalType": "uint256",
          "name": "",
          "type": "uint256"
        },
        {
          "internalType": "bytes",
          "name": "",
          "type": "bytes"
        },
        {
          "internalType": "bytes",
          "name": "",
          "type": "bytes"
        }
      ],
      "name": "tokensReceived",
      "outputs": [],
      "stateMutability": "pure",
      "type": "function"
    },
    {
      "inputs": [
        {
          "internalType": "address",
          "name": "newImplementation",
          "type": "address"
        }
      ],
      "name": "upgradeTo",
      "outputs": [],
      "stateMutability": "nonpayable",
      "type": "function"
    },
    {
      "inputs": [
        {
          "internalType": "address",
          "name": "newImplementation",
          "type": "address"
        },
        {
          "internalType": "bytes",
          "name": "data",
          "type": "bytes"
        }
      ],
      "name": "upgradeToAndCall",
      "outputs": [],
      "stateMutability": "payable",
      "type": "function"
    },
    {
      "inputs": [
        {
          "components": [
            {
              "internalType": "address",
              "name": "sender",
              "type": "address"
            },
            {
              "internalType": "uint256",
              "name": "nonce",
              "type": "uint256"
            },
            {
              "internalType": "bytes",
              "name": "initCode",
              "type": "bytes"
            },
            {
              "internalType": "bytes",
              "name": "callData",
              "type": "bytes"
            },
            {
              "internalType": "uint256",
              "name": "callGasLimit",
              "type": "uint256"
            },
            {
              "internalType": "uint256",
              "name": "verificationGasLimit",
              "type": "uint256"
            },
            {
              "internalType": "uint256",
              "name": "preVerificationGas",
              "type": "uint256"
            },
            {
              "internalType": "uint256",
              "name": "maxFeePerGas",
              "type": "uint256"
            },
            {
              "internalType": "uint256",
              "name": "maxPriorityFeePerGas",
              "type": "uint256"
            },
            {
              "internalType": "bytes",
              "name": "paymasterAndData",
              "type": "bytes"
            },
            {
              "internalType": "bytes",
              "name": "signature",
              "type": "bytes"
            }
          ],
          "internalType": "struct UserOperation",
          "name": "userOp",
          "type": "tuple"
        },
        {
          "internalType": "bytes32",
          "name": "userOpHash",
          "type": "bytes32"
        },
        {
          "internalType": "uint256",
          "name": "missingAccountFunds",
          "type": "uint256"
        }
      ],
      "name": "validateUserOp",
      "outputs": [
        {
          "internalType": "uint256",
          "name": "validationData",
          "type": "uint256"
        }
      ],
      "stateMutability": "nonpayable",
      "type": "function"
    },
    {
      "inputs": [
        {
          "internalType": "address payable",
          "name": "withdrawAddress",
          "type": "address"
        },
        {
          "internalType": "uint256",
          "name": "amount",
          "type": "uint256"
        }
      ],
      "name": "withdrawDepositTo",
      "outputs": [],
      "stateMutability": "nonpayable",
      "type": "function"
    },
    {
      "stateMutability": "payable",
      "type": "receive"
    }
  ],
  "bytecode": "0x60c06040523073ffffffffffffffffffffffffffffffffffffffff1660809073ffffffffffffffffffffffffffffffffffffffff168152503480156200004457600080fd5b50604051620039573803806200395783398181016040528101906200006a919062000137565b808073ffffffffffffffffffffffffffffffffffffffff1660a08173ffffffffffffffffffffffffffffffffffffffff1681525050620000af620000b760201b60201c565b505062000169565b565b600080fd5b600073ffffffffffffffffffffffffffffffffffffffff82169050919050565b6000620000eb82620000be565b9050919050565b6000620000ff82620000de565b9050919050565b6200011181620000f2565b81146200011d57600080fd5b50565b600081519050620001318162000106565b92915050565b60006020828403121562000150576200014f620000b9565b5b6000620001608482850162000120565b91505092915050565b60805160a0516137a5620001b260003960008181610d3c015261190e0152600081816107d90152818161086701528181610ad301528181610b610152610c1101526137a56000f3fe6080604052600436106101435760003560e01c806352d1902d116100b6578063bc197c811161006f578063bc197c811461044a578063c399ec8814610487578063c4d66de8146104b2578063cf6dca55146104db578063d087d28814610504578063f23a6e611461052f5761014a565b806352d1902d1461034a5780635fb701c8146103755780638da5cb5b146103a05780639a1b7740146103cb578063b0d691fe146103f6578063b61d27f6146104215761014a565b80633a871cdd116101085780633a871cdd146102445780633e476951146102815780633fb5a7a1146102be5780634a58db19146102fb5780634d44560d146103055780634f1ef2861461032e5761014a565b806223de291461014f57806301ffc9a714610178578063150b7a02146101b557806318dfb3c7146101f25780633659cfe61461021b5761014a565b3661014a57005b600080fd5b34801561015b57600080fd5b506101766004803603810190610171919061206e565b61056c565b005b34801561018457600080fd5b5061019f600480360381019061019a9190612195565b610576565b6040516101ac91906121dd565b60405180910390f35b3480156101c157600080fd5b506101dc60048036038101906101d791906121f8565b6106b0565b6040516101e9919061228f565b60405180910390f35b3480156101fe57600080fd5b5061021960048036038101906102149190612356565b6106c5565b005b34801561022757600080fd5b50610242600480360381019061023d91906123d7565b6107d7565b005b34801561025057600080fd5b5061026b6004803603810190610266919061245f565b61095f565b60405161027891906124dd565b60405180910390f35b34801561028d57600080fd5b506102a860048036038101906102a391906123d7565b610992565b6040516102b59190612519565b60405180910390f35b3480156102ca57600080fd5b506102e560048036038101906102e091906123d7565b6109b7565b6040516102f29190612519565b60405180910390f35b6103036109dc565b005b34801561031157600080fd5b5061032c60048036038101906103279190612572565b610a51565b005b610348600480360381019061034391906126f3565b610ad1565b005b34801561035657600080fd5b5061035f610c0d565b60405161036c919061275e565b60405180910390f35b34801561038157600080fd5b5061038a610cc6565b6040516103979190612788565b60405180910390f35b3480156103ac57600080fd5b506103b5610cec565b6040516103c29190612788565b60405180910390f35b3480156103d757600080fd5b506103e0610d12565b6040516103ed9190612788565b60405180910390f35b34801561040257600080fd5b5061040b610d38565b6040516104189190612802565b60405180910390f35b34801561042d57600080fd5b506104486004803603810190610443919061281d565b610d60565b005b34801561045657600080fd5b50610471600480360381019061046c91906128e7565b610dbd565b60405161047e919061228f565b60405180910390f35b34801561049357600080fd5b5061049c610dd5565b6040516104a991906124dd565b60405180910390f35b3480156104be57600080fd5b506104d960048036038101906104d491906123d7565b610e5d565b005b3480156104e757600080fd5b5061050260048036038101906104fd91906129ef565b610faf565b005b34801561051057600080fd5b506105196110d2565b60405161052691906124dd565b60405180910390f35b34801561053b57600080fd5b5061055660048036038101906105519190612a42565b61115d565b604051610563919061228f565b60405180910390f35b5050505050505050565b60007f150b7a02000000000000000000000000000000000000000000000000000000007bffffffffffffffffffffffffffffffffffffffffffffffffffffffff1916827bffffffffffffffffffffffffffffffffffffffffffffffffffffffff1916148061064157507f4e2312e0000000000000000000000000000000000000000000000000000000007bffffffffffffffffffffffffffffffffffffffffffffffffffffffff1916827bffffffffffffffffffffffffffffffffffffffffffffffffffffffff1916145b806106a957507f01ffc9a7000000000000000000000000000000000000000000000000000000007bffffffffffffffffffffffffffffffffffffffffffffffffffffffff1916827bffffffffffffffffffffffffffffffffffffffffffffffffffffffff1916145b9050919050565b600063150b7a0260e01b905095945050505050565b6106cd611173565b818190508484905014610715576040517f08c379a000000000000000000000000000000000000000000000000000000000815260040161070c90612b39565b60405180910390fd5b60005b848490508110156107d0576107bd85858381811061073957610738612b59565b5b905060200201602081019061074e91906123d7565b600085858581811061076357610762612b59565b5b90506020028101906107759190612b97565b8080601f016020809104026020016040519081016040528093929190818152602001838380828437600081840152601f19601f82011690508083019250505050505050611242565b80806107c890612c29565b915050610718565b5050505050565b7f000000000000000000000000000000000000000000000000000000000000000073ffffffffffffffffffffffffffffffffffffffff163073ffffffffffffffffffffffffffffffffffffffff1603610865576040517f08c379a000000000000000000000000000000000000000000000000000000000815260040161085c90612ce3565b60405180910390fd5b7f000000000000000000000000000000000000000000000000000000000000000073ffffffffffffffffffffffffffffffffffffffff166108a46112c6565b73ffffffffffffffffffffffffffffffffffffffff16146108fa576040517f08c379a00000000000000000000000000000000000000000000000000000000081526004016108f190612d75565b60405180910390fd5b6109038161131d565b61095c81600067ffffffffffffffff811115610922576109216125c8565b5b6040519080825280601f01601f1916602001820160405280156109545781602001600182028036833780820191505090505b506000611328565b50565b6000610969611496565b610973848461150d565b90506109828460200135611658565b61098b8261165b565b9392505050565b60046020528060005260406000206000915054906101000a900465ffffffffffff1681565b60036020528060005260406000206000915054906101000a900465ffffffffffff1681565b6109e4610d38565b73ffffffffffffffffffffffffffffffffffffffff1663b760faf934306040518363ffffffff1660e01b8152600401610a1d9190612788565b6000604051808303818588803b158015610a3657600080fd5b505af1158015610a4a573d6000803e3d6000fd5b5050505050565b610a596116f7565b610a61610d38565b73ffffffffffffffffffffffffffffffffffffffff1663205c287883836040518363ffffffff1660e01b8152600401610a9b929190612da4565b600060405180830381600087803b158015610ab557600080fd5b505af1158015610ac9573d6000803e3d6000fd5b505050505050565b7f000000000000000000000000000000000000000000000000000000000000000073ffffffffffffffffffffffffffffffffffffffff163073ffffffffffffffffffffffffffffffffffffffff1603610b5f576040517f08c379a0000000000000000000000000000000000000000000000000000000008152600401610b5690612ce3565b60405180910390fd5b7f000000000000000000000000000000000000000000000000000000000000000073ffffffffffffffffffffffffffffffffffffffff16610b9e6112c6565b73ffffffffffffffffffffffffffffffffffffffff1614610bf4576040517f08c379a0000000000000000000000000000000000000000000000000000000008152600401610beb90612d75565b60405180910390fd5b610bfd8261131d565b610c0982826001611328565b5050565b60007f000000000000000000000000000000000000000000000000000000000000000073ffffffffffffffffffffffffffffffffffffffff163073ffffffffffffffffffffffffffffffffffffffff1614610c9d576040517f08c379a0000000000000000000000000000000000000000000000000000000008152600401610c9490612e3f565b60405180910390fd5b7f360894a13ba1a3210667c828492db98dca3e2076cc3735a920a3ca505d382bbc60001b905090565b600260009054906101000a900473ffffffffffffffffffffffffffffffffffffffff1681565b600060029054906101000a900473ffffffffffffffffffffffffffffffffffffffff1681565b600160009054906101000a900473ffffffffffffffffffffffffffffffffffffffff1681565b60007f0000000000000000000000000000000000000000000000000000000000000000905090565b610d68611173565b610db7848484848080601f016020809104026020016040519081016040528093929190818152602001838380828437600081840152601f19601f82011690508083019250505050505050611242565b50505050565b600063bc197c8160e01b905098975050505050505050565b6000610ddf610d38565b73ffffffffffffffffffffffffffffffffffffffff166370a08231306040518263ffffffff1660e01b8152600401610e179190612788565b602060405180830381865afa158015610e34573d6000803e3d6000fd5b505050506040513d601f19601f82011682018060405250810190610e589190612e74565b905090565b60008060019054906101000a900460ff16159050808015610e8e5750600160008054906101000a900460ff1660ff16105b80610ebb5750610e9d3061186f565b158015610eba5750600160008054906101000a900460ff1660ff16145b5b610efa576040517f08c379a0000000000000000000000000000000000000000000000000000000008152600401610ef190612f13565b60405180910390fd5b60016000806101000a81548160ff021916908360ff1602179055508015610f37576001600060016101000a81548160ff0219169083151502179055505b610f4082611892565b610f5282600065ffffffffffff610faf565b8015610fab5760008060016101000a81548160ff0219169083151502179055507f7f26b83ff96e1f2b6a682f133852f6798a09c465da95921460cefb38474024986001604051610fa29190612f7b565b60405180910390a15b5050565b610fb76116f7565b8165ffffffffffff168165ffffffffffff1611611009576040517f08c379a000000000000000000000000000000000000000000000000000000000815260040161100090612fe2565b60405180910390fd5b81600360008573ffffffffffffffffffffffffffffffffffffffff1673ffffffffffffffffffffffffffffffffffffffff16815260200190815260200160002060006101000a81548165ffffffffffff021916908365ffffffffffff16021790555080600460008573ffffffffffffffffffffffffffffffffffffffff1673ffffffffffffffffffffffffffffffffffffffff16815260200190815260200160002060006101000a81548165ffffffffffff021916908365ffffffffffff160217905550505050565b60006110dc610d38565b73ffffffffffffffffffffffffffffffffffffffff166335567e1a3060006040518363ffffffff1660e01b8152600401611117929190613061565b602060405180830381865afa158015611134573d6000803e3d6000fd5b505050506040513d601f19601f820116820180604052508101906111589190612e74565b905090565b600063f23a6e6160e01b90509695505050505050565b61117b610d38565b73ffffffffffffffffffffffffffffffffffffffff163373ffffffffffffffffffffffffffffffffffffffff1614806112015750600060029054906101000a900473ffffffffffffffffffffffffffffffffffffffff1673ffffffffffffffffffffffffffffffffffffffff163373ffffffffffffffffffffffffffffffffffffffff16145b611240576040517f08c379a0000000000000000000000000000000000000000000000000000000008152600401611237906130d6565b60405180910390fd5b565b6000808473ffffffffffffffffffffffffffffffffffffffff16848460405161126b9190613167565b60006040518083038185875af1925050503d80600081146112a8576040519150601f19603f3d011682016040523d82523d6000602084013e6112ad565b606091505b5091509150816112bf57805160208201fd5b5050505050565b60006112f47f360894a13ba1a3210667c828492db98dca3e2076cc3735a920a3ca505d382bbc60001b611972565b60000160009054906101000a900473ffffffffffffffffffffffffffffffffffffffff16905090565b6113256116f7565b50565b6113547f4910fdfa16fed3260ed0e7147f7cc6da11a60208b5b9406d12a635614ffd914360001b61197c565b60000160009054906101000a900460ff16156113785761137383611986565b611491565b8273ffffffffffffffffffffffffffffffffffffffff166352d1902d6040518163ffffffff1660e01b8152600401602060405180830381865afa9250505080156113e057506040513d601f19601f820116820180604052508101906113dd9190613193565b60015b61141f576040517f08c379a000000000000000000000000000000000000000000000000000000000815260040161141690613232565b60405180910390fd5b7f360894a13ba1a3210667c828492db98dca3e2076cc3735a920a3ca505d382bbc60001b8114611484576040517f08c379a000000000000000000000000000000000000000000000000000000000815260040161147b906132c4565b60405180910390fd5b50611490838383611a3f565b5b505050565b61149e610d38565b73ffffffffffffffffffffffffffffffffffffffff163373ffffffffffffffffffffffffffffffffffffffff161461150b576040517f08c379a000000000000000000000000000000000000000000000000000000000815260040161150290613330565b60405180910390fd5b565b60008061151983611a6b565b90506000611583858061014001906115319190612b97565b8080601f016020809104026020016040519081016040528093929190818152602001838380828437600081840152601f19601f8201169050808301925050505050505083611aa190919063ffffffff16565b90506000600460008373ffffffffffffffffffffffffffffffffffffffff1673ffffffffffffffffffffffffffffffffffffffff16815260200190815260200160002060009054906101000a900465ffffffffffff1690506000600360008473ffffffffffffffffffffffffffffffffffffffff1673ffffffffffffffffffffffffffffffffffffffff16815260200190815260200160002060009054906101000a900465ffffffffffff1690506000808365ffffffffffff1614905061164b818484611ac8565b9550505050505092915050565b50565b600081146116f45760003373ffffffffffffffffffffffffffffffffffffffff16827fffffffffffffffffffffffffffffffffffffffffffffffffffffffffffffffff906040516116ab90613376565b600060405180830381858888f193505050503d80600081146116e9576040519150601f19603f3d011682016040523d82523d6000602084013e6116ee565b606091505b50509050505b50565b600060029054906101000a900473ffffffffffffffffffffffffffffffffffffffff1673ffffffffffffffffffffffffffffffffffffffff163373ffffffffffffffffffffffffffffffffffffffff16148061177e57503073ffffffffffffffffffffffffffffffffffffffff163373ffffffffffffffffffffffffffffffffffffffff16145b806117d65750600160009054906101000a900473ffffffffffffffffffffffffffffffffffffffff1673ffffffffffffffffffffffffffffffffffffffff163373ffffffffffffffffffffffffffffffffffffffff16145b8061182e5750600260009054906101000a900473ffffffffffffffffffffffffffffffffffffffff1673ffffffffffffffffffffffffffffffffffffffff163373ffffffffffffffffffffffffffffffffffffffff16145b61186d576040517f08c379a0000000000000000000000000000000000000000000000000000000008152600401611864906133d7565b60405180910390fd5b565b6000808273ffffffffffffffffffffffffffffffffffffffff163b119050919050565b80600060026101000a81548173ffffffffffffffffffffffffffffffffffffffff021916908373ffffffffffffffffffffffffffffffffffffffff160217905550600060029054906101000a900473ffffffffffffffffffffffffffffffffffffffff1673ffffffffffffffffffffffffffffffffffffffff167f000000000000000000000000000000000000000000000000000000000000000073ffffffffffffffffffffffffffffffffffffffff167f47e55c76e7a6f1fd8996a1da8008c1ea29699cca35e7bcd057f2dec313b6e5de60405160405180910390a350565b6000819050919050565b6000819050919050565b61198f8161186f565b6119ce576040517f08c379a00000000000000000000000000000000000000000000000000000000081526004016119c590613469565b60405180910390fd5b806119fb7f360894a13ba1a3210667c828492db98dca3e2076cc3735a920a3ca505d382bbc60001b611972565b60000160006101000a81548173ffffffffffffffffffffffffffffffffffffffff021916908373ffffffffffffffffffffffffffffffffffffffff16021790555050565b611a4883611b01565b600082511180611a555750805b15611a6657611a648383611b50565b505b505050565b60007f19457468657265756d205369676e6564204d6573736167653a0a33320000000060005281601c52603c6000209050919050565b6000806000611ab08585611b7d565b91509150611abd81611bce565b819250505092915050565b600060d08265ffffffffffff16901b60a08465ffffffffffff16901b85611af0576000611af3565b60015b60ff16171790509392505050565b611b0a81611986565b8073ffffffffffffffffffffffffffffffffffffffff167fbc7cd75a20ee27fd9adebab32041f755214dbc6bffa90cc0225b39da2e5c2d3b60405160405180910390a250565b6060611b75838360405180606001604052806027815260200161374960279139611d34565b905092915050565b6000806041835103611bbe5760008060006020860151925060408601519150606086015160001a9050611bb287828585611dba565b94509450505050611bc7565b60006002915091505b9250929050565b60006004811115611be257611be1613489565b5b816004811115611bf557611bf4613489565b5b0315611d315760016004811115611c0f57611c0e613489565b5b816004811115611c2257611c21613489565b5b03611c62576040517f08c379a0000000000000000000000000000000000000000000000000000000008152600401611c5990613504565b60405180910390fd5b60026004811115611c7657611c75613489565b5b816004811115611c8957611c88613489565b5b03611cc9576040517f08c379a0000000000000000000000000000000000000000000000000000000008152600401611cc090613570565b60405180910390fd5b60036004811115611cdd57611cdc613489565b5b816004811115611cf057611cef613489565b5b03611d30576040517f08c379a0000000000000000000000000000000000000000000000000000000008152600401611d2790613602565b60405180910390fd5b5b50565b60606000808573ffffffffffffffffffffffffffffffffffffffff1685604051611d5e9190613167565b600060405180830381855af49150503d8060008114611d99576040519150601f19603f3d011682016040523d82523d6000602084013e611d9e565b606091505b5091509150611daf86838387611e9c565b925050509392505050565b6000807f7fffffffffffffffffffffffffffffff5d576e7357a4501ddfe92f46681b20a08360001c1115611df5576000600391509150611e93565b600060018787878760405160008152602001604052604051611e1a9493929190613631565b6020604051602081039080840390855afa158015611e3c573d6000803e3d6000fd5b505050602060405103519050600073ffffffffffffffffffffffffffffffffffffffff168173ffffffffffffffffffffffffffffffffffffffff1603611e8a57600060019250925050611e93565b80600092509250505b94509492505050565b60608315611efe576000835103611ef657611eb68561186f565b611ef5576040517f08c379a0000000000000000000000000000000000000000000000000000000008152600401611eec906136c2565b60405180910390fd5b5b829050611f09565b611f088383611f11565b5b949350505050565b600082511115611f245781518083602001fd5b806040517f08c379a0000000000000000000000000000000000000000000000000000000008152600401611f589190613726565b60405180910390fd5b6000604051905090565b600080fd5b600080fd5b600073ffffffffffffffffffffffffffffffffffffffff82169050919050565b6000611fa082611f75565b9050919050565b611fb081611f95565b8114611fbb57600080fd5b50565b600081359050611fcd81611fa7565b92915050565b6000819050919050565b611fe681611fd3565b8114611ff157600080fd5b50565b60008135905061200381611fdd565b92915050565b600080fd5b600080fd5b600080fd5b60008083601f84011261202e5761202d612009565b5b8235905067ffffffffffffffff81111561204b5761204a61200e565b5b60208301915083600182028301111561206757612066612013565b5b9250929050565b60008060008060008060008060c0898b03121561208e5761208d611f6b565b5b600061209c8b828c01611fbe565b98505060206120ad8b828c01611fbe565b97505060406120be8b828c01611fbe565b96505060606120cf8b828c01611ff4565b955050608089013567ffffffffffffffff8111156120f0576120ef611f70565b5b6120fc8b828c01612018565b945094505060a089013567ffffffffffffffff81111561211f5761211e611f70565b5b61212b8b828c01612018565b92509250509295985092959890939650565b60007fffffffff0000000000000000000000000000000000000000000000000000000082169050919050565b6121728161213d565b811461217d57600080fd5b50565b60008135905061218f81612169565b92915050565b6000602082840312156121ab576121aa611f6b565b5b60006121b984828501612180565b91505092915050565b60008115159050919050565b6121d7816121c2565b82525050565b60006020820190506121f260008301846121ce565b92915050565b60008060008060006080868803121561221457612213611f6b565b5b600061222288828901611fbe565b955050602061223388828901611fbe565b945050604061224488828901611ff4565b935050606086013567ffffffffffffffff81111561226557612264611f70565b5b61227188828901612018565b92509250509295509295909350565b6122898161213d565b82525050565b60006020820190506122a46000830184612280565b92915050565b60008083601f8401126122c0576122bf612009565b5b8235905067ffffffffffffffff8111156122dd576122dc61200e565b5b6020830191508360208202830111156122f9576122f8612013565b5b9250929050565b60008083601f84011261231657612315612009565b5b8235905067ffffffffffffffff8111156123335761233261200e565b5b60208301915083602082028301111561234f5761234e612013565b5b9250929050565b600080600080604085870312156123705761236f611f6b565b5b600085013567ffffffffffffffff81111561238e5761238d611f70565b5b61239a878288016122aa565b9450945050602085013567ffffffffffffffff8111156123bd576123bc611f70565b5b6123c987828801612300565b925092505092959194509250565b6000602082840312156123ed576123ec611f6b565b5b60006123fb84828501611fbe565b91505092915050565b600080fd5b600061016082840312156124205761241f612404565b5b81905092915050565b6000819050919050565b61243c81612429565b811461244757600080fd5b50565b60008135905061245981612433565b92915050565b60008060006060848603121561247857612477611f6b565b5b600084013567ffffffffffffffff81111561249657612495611f70565b5b6124a286828701612409565b93505060206124b38682870161244a565b92505060406124c486828701611ff4565b9150509250925092565b6124d781611fd3565b82525050565b60006020820190506124f260008301846124ce565b92915050565b600065ffffffffffff82169050919050565b612513816124f8565b82525050565b600060208201905061252e600083018461250a565b92915050565b600061253f82611f75565b9050919050565b61254f81612534565b811461255a57600080fd5b50565b60008135905061256c81612546565b92915050565b6000806040838503121561258957612588611f6b565b5b60006125978582860161255d565b92505060206125a885828601611ff4565b9150509250929050565b600080fd5b6000601f19601f8301169050919050565b7f4e487b7100000000000000000000000000000000000000000000000000000000600052604160045260246000fd5b612600826125b7565b810181811067ffffffffffffffff8211171561261f5761261e6125c8565b5b80604052505050565b6000612632611f61565b905061263e82826125f7565b919050565b600067ffffffffffffffff82111561265e5761265d6125c8565b5b612667826125b7565b9050602081019050919050565b82818337600083830152505050565b600061269661269184612643565b612628565b9050828152602081018484840111156126b2576126b16125b2565b5b6126bd848285612674565b509392505050565b600082601f8301126126da576126d9612009565b5b81356126ea848260208601612683565b91505092915050565b6000806040838503121561270a57612709611f6b565b5b600061271885828601611fbe565b925050602083013567ffffffffffffffff81111561273957612738611f70565b5b612745858286016126c5565b9150509250929050565b61275881612429565b82525050565b6000602082019050612773600083018461274f565b92915050565b61278281611f95565b82525050565b600060208201905061279d6000830184612779565b92915050565b6000819050919050565b60006127c86127c36127be84611f75565b6127a3565b611f75565b9050919050565b60006127da826127ad565b9050919050565b60006127ec826127cf565b9050919050565b6127fc816127e1565b82525050565b600060208201905061281760008301846127f3565b92915050565b6000806000806060858703121561283757612836611f6b565b5b600061284587828801611fbe565b945050602061285687828801611ff4565b935050604085013567ffffffffffffffff81111561287757612876611f70565b5b61288387828801612018565b925092505092959194509250565b60008083601f8401126128a7576128a6612009565b5b8235905067ffffffffffffffff8111156128c4576128c361200e565b5b6020830191508360208202830111156128e0576128df612013565b5b9250929050565b60008060008060008060008060a0898b03121561290757612906611f6b565b5b60006129158b828c01611fbe565b98505060206129268b828c01611fbe565b975050604089013567ffffffffffffffff81111561294757612946611f70565b5b6129538b828c01612891565b9650965050606089013567ffffffffffffffff81111561297657612975611f70565b5b6129828b828c01612891565b9450945050608089013567ffffffffffffffff8111156129a5576129a4611f70565b5b6129b18b828c01612018565b92509250509295985092959890939650565b6129cc816124f8565b81146129d757600080fd5b50565b6000813590506129e9816129c3565b92915050565b600080600060608486031215612a0857612a07611f6b565b5b6000612a1686828701611fbe565b9350506020612a27868287016129da565b9250506040612a38868287016129da565b9150509250925092565b60008060008060008060a08789031215612a5f57612a5e611f6b565b5b6000612a6d89828a01611fbe565b9650506020612a7e89828a01611fbe565b9550506040612a8f89828a01611ff4565b9450506060612aa089828a01611ff4565b935050608087013567ffffffffffffffff811115612ac157612ac0611f70565b5b612acd89828a01612018565b92509250509295509295509295565b600082825260208201905092915050565b7f77726f6e67206172726179206c656e6774687300000000000000000000000000600082015250565b6000612b23601383612adc565b9150612b2e82612aed565b602082019050919050565b60006020820190508181036000830152612b5281612b16565b9050919050565b7f4e487b7100000000000000000000000000000000000000000000000000000000600052603260045260246000fd5b600080fd5b600080fd5b600080fd5b60008083356001602003843603038112612bb457612bb3612b88565b5b80840192508235915067ffffffffffffffff821115612bd657612bd5612b8d565b5b602083019250600182023603831315612bf257612bf1612b92565b5b509250929050565b7f4e487b7100000000000000000000000000000000000000000000000000000000600052601160045260246000fd5b6000612c3482611fd3565b91507fffffffffffffffffffffffffffffffffffffffffffffffffffffffffffffffff8203612c6657612c65612bfa565b5b600182019050919050565b7f46756e6374696f6e206d7573742062652063616c6c6564207468726f7567682060008201527f64656c656761746563616c6c0000000000000000000000000000000000000000602082015250565b6000612ccd602c83612adc565b9150612cd882612c71565b604082019050919050565b60006020820190508181036000830152612cfc81612cc0565b9050919050565b7f46756e6374696f6e206d7573742062652063616c6c6564207468726f7567682060008201527f6163746976652070726f78790000000000000000000000000000000000000000602082015250565b6000612d5f602c83612adc565b9150612d6a82612d03565b604082019050919050565b60006020820190508181036000830152612d8e81612d52565b9050919050565b612d9e81612534565b82525050565b6000604082019050612db96000830185612d95565b612dc660208301846124ce565b9392505050565b7f555550535570677261646561626c653a206d757374206e6f742062652063616c60008201527f6c6564207468726f7567682064656c656761746563616c6c0000000000000000602082015250565b6000612e29603883612adc565b9150612e3482612dcd565b604082019050919050565b60006020820190508181036000830152612e5881612e1c565b9050919050565b600081519050612e6e81611fdd565b92915050565b600060208284031215612e8a57612e89611f6b565b5b6000612e9884828501612e5f565b91505092915050565b7f496e697469616c697a61626c653a20636f6e747261637420697320616c72656160008201527f647920696e697469616c697a6564000000000000000000000000000000000000602082015250565b6000612efd602e83612adc565b9150612f0882612ea1565b604082019050919050565b60006020820190508181036000830152612f2c81612ef0565b9050919050565b6000819050919050565b600060ff82169050919050565b6000612f65612f60612f5b84612f33565b6127a3565b612f3d565b9050919050565b612f7581612f4a565b82525050565b6000602082019050612f906000830184612f6c565b92915050565b7f77726f6e6720756e74696c2f6166746572000000000000000000000000000000600082015250565b6000612fcc601183612adc565b9150612fd782612f96565b602082019050919050565b60006020820190508181036000830152612ffb81612fbf565b9050919050565b6000819050919050565b600077ffffffffffffffffffffffffffffffffffffffffffffffff82169050919050565b600061304b61304661304184613002565b6127a3565b61300c565b9050919050565b61305b81613030565b82525050565b60006040820190506130766000830185612779565b6130836020830184613052565b9392505050565b7f6163636f756e743a206e6f74204f776e6572206f7220456e747279506f696e74600082015250565b60006130c0602083612adc565b91506130cb8261308a565b602082019050919050565b600060208201905081810360008301526130ef816130b3565b9050919050565b600081519050919050565b600081905092915050565b60005b8381101561312a57808201518184015260208101905061310f565b60008484015250505050565b6000613141826130f6565b61314b8185613101565b935061315b81856020860161310c565b80840191505092915050565b60006131738284613136565b915081905092915050565b60008151905061318d81612433565b92915050565b6000602082840312156131a9576131a8611f6b565b5b60006131b78482850161317e565b91505092915050565b7f45524331393637557067726164653a206e657720696d706c656d656e7461746960008201527f6f6e206973206e6f742055555053000000000000000000000000000000000000602082015250565b600061321c602e83612adc565b9150613227826131c0565b604082019050919050565b6000602082019050818103600083015261324b8161320f565b9050919050565b7f45524331393637557067726164653a20756e737570706f727465642070726f7860008201527f6961626c65555549440000000000000000000000000000000000000000000000602082015250565b60006132ae602983612adc565b91506132b982613252565b604082019050919050565b600060208201905081810360008301526132dd816132a1565b9050919050565b7f6163636f756e743a206e6f742066726f6d20456e747279506f696e7400000000600082015250565b600061331a601c83612adc565b9150613325826132e4565b602082019050919050565b600060208201905081810360008301526133498161330d565b9050919050565b50565b6000613360600083613101565b915061336b82613350565b600082019050919050565b600061338182613353565b9150819050919050565b7f6f6e6c79206f776e657200000000000000000000000000000000000000000000600082015250565b60006133c1600a83612adc565b91506133cc8261338b565b602082019050919050565b600060208201905081810360008301526133f0816133b4565b9050919050565b7f455243313936373a206e657720696d706c656d656e746174696f6e206973206e60008201527f6f74206120636f6e747261637400000000000000000000000000000000000000602082015250565b6000613453602d83612adc565b915061345e826133f7565b604082019050919050565b6000602082019050818103600083015261348281613446565b9050919050565b7f4e487b7100000000000000000000000000000000000000000000000000000000600052602160045260246000fd5b7f45434453413a20696e76616c6964207369676e61747572650000000000000000600082015250565b60006134ee601883612adc565b91506134f9826134b8565b602082019050919050565b6000602082019050818103600083015261351d816134e1565b9050919050565b7f45434453413a20696e76616c6964207369676e6174757265206c656e67746800600082015250565b600061355a601f83612adc565b915061356582613524565b602082019050919050565b600060208201905081810360008301526135898161354d565b9050919050565b7f45434453413a20696e76616c6964207369676e6174757265202773272076616c60008201527f7565000000000000000000000000000000000000000000000000000000000000602082015250565b60006135ec602283612adc565b91506135f782613590565b604082019050919050565b6000602082019050818103600083015261361b816135df565b9050919050565b61362b81612f3d565b82525050565b6000608082019050613646600083018761274f565b6136536020830186613622565b613660604083018561274f565b61366d606083018461274f565b95945050505050565b7f416464726573733a2063616c6c20746f206e6f6e2d636f6e7472616374000000600082015250565b60006136ac601d83612adc565b91506136b782613676565b602082019050919050565b600060208201905081810360008301526136db8161369f565b9050919050565b600081519050919050565b60006136f8826136e2565b6137028185612adc565b935061371281856020860161310c565b61371b816125b7565b840191505092915050565b6000602082019050818103600083015261374081846136ed565b90509291505056fe416464726573733a206c6f772d6c6576656c2064656c65676174652063616c6c206661696c6564a264697066735822122045fca4d1f222d47b599020a30d39b79f39a59e6c0e6a2c01eab96172adca576a64736f6c63430008130033",
  "linkReferences": {},
  "deployedLinkReferences": {}
}