{
  "_format": "hh-sol-artifact-1",
  "contractName": "BLSAccountFactory",
  "sourceName": "contracts/samples/bls/BLSAccountFactory.sol",
  "abi": [
    {
      "inputs": [
        {
          "internalType": "contract IEntryPoint",
          "name": "entryPoint",
          "type": "address"
        },
        {
          "internalType": "address",
          "name": "aggregator",
          "type": "address"
        }
      ],
      "stateMutability": "nonpayable",
      "type": "constructor"
    },
    {
      "inputs": [],
      "name": "accountImplementation",
      "outputs": [
        {
          "internalType": "contract BLSAccount",
          "name": "",
          "type": "address"
        }
      ],
      "stateMutability": "view",
      "type": "function"
    },
    {
      "inputs": [
        {
          "internalType": "uint256",
          "name": "salt",
          "type": "uint256"
        },
        {
          "internalType": "uint256[4]",
          "name": "aPublicKey",
          "type": "uint256[4]"
        }
      ],
      "name": "createAccount",
      "outputs": [
        {
          "internalType": "contract BLSAccount",
          "name": "",
          "type": "address"
        }
      ],
      "stateMutability": "nonpayable",
      "type": "function"
    },
    {
      "inputs": [
        {
          "internalType": "uint256",
          "name": "salt",
          "type": "uint256"
        },
        {
          "internalType": "uint256[4]",
          "name": "aPublicKey",
          "type": "uint256[4]"
        }
      ],
      "name": "getAddress",
      "outputs": [
        {
          "internalType": "address",
          "name": "",
          "type": "address"
        }
      ],
      "stateMutability": "view",
      "type": "function"
    }
  ],
  "bytecode": "0x60a06040523480156200001157600080fd5b50604051620050063803806200500683398181016040528101906200003791906200016a565b81816040516200004790620000ad565b620000549291906200022d565b604051809103906000f08015801562000071573d6000803e3d6000fd5b5073ffffffffffffffffffffffffffffffffffffffff1660808173ffffffffffffffffffffffffffffffffffffffff168152505050506200025a565b613a7b806200158b83390190565b600080fd5b600073ffffffffffffffffffffffffffffffffffffffff82169050919050565b6000620000ed82620000c0565b9050919050565b60006200010182620000e0565b9050919050565b6200011381620000f4565b81146200011f57600080fd5b50565b600081519050620001338162000108565b92915050565b6200014481620000e0565b81146200015057600080fd5b50565b600081519050620001648162000139565b92915050565b60008060408385031215620001845762000183620000bb565b5b6000620001948582860162000122565b9250506020620001a78582860162000153565b9150509250929050565b6000819050919050565b6000620001dc620001d6620001d084620000c0565b620001b1565b620000c0565b9050919050565b6000620001f082620001bb565b9050919050565b60006200020482620001e3565b9050919050565b6200021681620001f7565b82525050565b6200022781620000e0565b82525050565b60006040820190506200024460008301856200020b565b6200025360208301846200021c565b9392505050565b608051611308620002836000396000818160db015281816101d901526102cb01526113086000f3fe60806040523480156200001157600080fd5b5060043610620000465760003560e01c806311464fbe146200004b57806319c2a1b2146200006d578063de3398dd14620000a3575b600080fd5b62000055620000d9565b60405162000064919062000476565b60405180910390f35b6200008b600480360381019062000085919062000507565b620000fd565b6040516200009a919062000476565b60405180910390f35b620000c16004803603810190620000bb9190620006ac565b62000299565b604051620000d0919062000718565b60405180910390f35b7f000000000000000000000000000000000000000000000000000000000000000081565b6000808290506080600036905062000116919062000764565b81146200015a576040517f08c379a0000000000000000000000000000000000000000000000000000000008152600401620001519062000800565b60405180910390fd5b60006200019f85856004806020026040519081016040528092919082600460200280828437600081840152601f19601f82011690508083019250505050505062000299565b905060008173ffffffffffffffffffffffffffffffffffffffff163b90506000811115620001d35781935050505062000293565b8560001b7f0000000000000000000000000000000000000000000000000000000000000000866040516024016200020b91906200083d565b60405160208183030381529060405263ee472f3660e01b6020820180517bffffffffffffffffffffffffffffffffffffffffffffffffffffffff83818316178352505050506040516200025e90620003dd565b6200026b929190620008e3565b8190604051809103906000f59050801580156200028c573d6000803e3d6000fd5b5093505050505b92915050565b6000620003938360001b60405180602001620002b590620003dd565b6020820181038252601f19601f820116604052507f000000000000000000000000000000000000000000000000000000000000000085604051602401620002fd9190620009d2565b60405160208183030381529060405263ee472f3660e01b6020820180517bffffffffffffffffffffffffffffffffffffffffffffffffffffffff838183161783525050505060405160200162000355929190620008e3565b6040516020818303038152906040526040516020016200037792919062000a31565b604051602081830303815290604052805190602001206200039b565b905092915050565b6000620003aa838330620003b2565b905092915050565b6000604051836040820152846020820152828152600b810160ff815360558120925050509392505050565b6108798062000a5a83390190565b600073ffffffffffffffffffffffffffffffffffffffff82169050919050565b6000819050919050565b600062000436620004306200042a84620003eb565b6200040b565b620003eb565b9050919050565b60006200044a8262000415565b9050919050565b60006200045e826200043d565b9050919050565b620004708162000451565b82525050565b60006020820190506200048d600083018462000465565b92915050565b6000604051905090565b600080fd5b6000819050919050565b620004b781620004a2565b8114620004c357600080fd5b50565b600081359050620004d781620004ac565b92915050565b600080fd5b600081905082602060040282011115620005015762000500620004dd565b5b92915050565b60008060a083850312156200052157620005206200049d565b5b60006200053185828601620004c6565b92505060206200054485828601620004e2565b9150509250929050565b600080fd5b6000601f19601f8301169050919050565b7f4e487b7100000000000000000000000000000000000000000000000000000000600052604160045260246000fd5b6200059e8262000553565b810181811067ffffffffffffffff82111715620005c057620005bf62000564565b5b80604052505050565b6000620005d562000493565b9050620005e3828262000593565b919050565b600067ffffffffffffffff82111562000606576200060562000564565b5b602082029050919050565b6000620006286200062284620005e8565b620005c9565b90508060208402830185811115620006455762000644620004dd565b5b835b818110156200067257806200065d8882620004c6565b84526020840193505060208101905062000647565b5050509392505050565b600082601f8301126200069457620006936200054e565b5b6004620006a384828562000611565b91505092915050565b60008060a08385031215620006c657620006c56200049d565b5b6000620006d685828601620004c6565b9250506020620006e9858286016200067c565b9150509250929050565b60006200070082620003eb565b9050919050565b6200071281620006f3565b82525050565b60006020820190506200072f600083018462000707565b92915050565b7f4e487b7100000000000000000000000000000000000000000000000000000000600052601160045260246000fd5b60006200077182620004a2565b91506200077e83620004a2565b925082820390508181111562000799576200079862000735565b5b92915050565b600082825260208201905092915050565b7f77726f6e67207075626b6579206f666673657400000000000000000000000000600082015250565b6000620007e86013836200079f565b9150620007f582620007b0565b602082019050919050565b600060208201905081810360008301526200081b81620007d9565b9050919050565b82818337505050565b620008396080838362000822565b5050565b60006080820190506200085460008301846200082b565b92915050565b600081519050919050565b600082825260208201905092915050565b60005b838110156200089657808201518184015260208101905062000879565b60008484015250505050565b6000620008af826200085a565b620008bb818562000865565b9350620008cd81856020860162000876565b620008d88162000553565b840191505092915050565b6000604082019050620008fa600083018562000707565b81810360208301526200090e8184620008a2565b90509392505050565b600060049050919050565b600081905092915050565b6000819050919050565b6200094281620004a2565b82525050565b600062000956838362000937565b60208301905092915050565b6000602082019050919050565b6200097a8162000917565b62000986818462000922565b925062000993826200092d565b8060005b83811015620009ca578151620009ae878262000948565b9650620009bb8362000962565b92505060018101905062000997565b505050505050565b6000608082019050620009e960008301846200096f565b92915050565b600081905092915050565b600062000a07826200085a565b62000a138185620009ef565b935062000a2581856020860162000876565b80840191505092915050565b600062000a3f8285620009fa565b915062000a4d8284620009fa565b9150819050939250505056fe608060405260405161087938038061087983398181016040528101906100259190610520565b6100378282600061003e60201b60201c565b505061074f565b61004d8361007660201b60201c565b60008251118061005a5750805b156100715761006f83836100cb60201b60201c565b505b505050565b610085816100fe60201b60201c565b8073ffffffffffffffffffffffffffffffffffffffff167fbc7cd75a20ee27fd9adebab32041f755214dbc6bffa90cc0225b39da2e5c2d3b60405160405180910390a250565b60606100f68383604051806060016040528060278152602001610852602791396101c360201b60201c565b905092915050565b61010d8161024f60201b60201c565b61014c576040517f08c379a0000000000000000000000000000000000000000000000000000000008152600401610143906105ff565b60405180910390fd5b8061017f7f360894a13ba1a3210667c828492db98dca3e2076cc3735a920a3ca505d382bbc60001b61027260201b60201c565b60000160006101000a81548173ffffffffffffffffffffffffffffffffffffffff021916908373ffffffffffffffffffffffffffffffffffffffff16021790555050565b60606000808573ffffffffffffffffffffffffffffffffffffffff16856040516101ed9190610666565b600060405180830381855af49150503d8060008114610228576040519150601f19603f3d011682016040523d82523d6000602084013e61022d565b606091505b50915091506102448683838761027c60201b60201c565b925050509392505050565b6000808273ffffffffffffffffffffffffffffffffffffffff163b119050919050565b6000819050919050565b606083156102e45760008351036102dc5761029c8561024f60201b60201c565b6102db576040517f08c379a00000000000000000000000000000000000000000000000000000000081526004016102d2906106c9565b60405180910390fd5b5b8290506102f5565b6102f483836102fd60201b60201c565b5b949350505050565b6000825111156103105781518083602001fd5b806040517f08c379a0000000000000000000000000000000000000000000000000000000008152600401610344919061072d565b60405180910390fd5b6000604051905090565b600080fd5b600080fd5b600073ffffffffffffffffffffffffffffffffffffffff82169050919050565b600061038c82610361565b9050919050565b61039c81610381565b81146103a757600080fd5b50565b6000815190506103b981610393565b92915050565b600080fd5b600080fd5b6000601f19601f8301169050919050565b7f4e487b7100000000000000000000000000000000000000000000000000000000600052604160045260246000fd5b610412826103c9565b810181811067ffffffffffffffff82111715610431576104306103da565b5b80604052505050565b600061044461034d565b90506104508282610409565b919050565b600067ffffffffffffffff8211156104705761046f6103da565b5b610479826103c9565b9050602081019050919050565b60005b838110156104a4578082015181840152602081019050610489565b60008484015250505050565b60006104c36104be84610455565b61043a565b9050828152602081018484840111156104df576104de6103c4565b5b6104ea848285610486565b509392505050565b600082601f830112610507576105066103bf565b5b81516105178482602086016104b0565b91505092915050565b6000806040838503121561053757610536610357565b5b6000610545858286016103aa565b925050602083015167ffffffffffffffff8111156105665761056561035c565b5b610572858286016104f2565b9150509250929050565b600082825260208201905092915050565b7f455243313936373a206e657720696d706c656d656e746174696f6e206973206e60008201527f6f74206120636f6e747261637400000000000000000000000000000000000000602082015250565b60006105e9602d8361057c565b91506105f48261058d565b604082019050919050565b60006020820190508181036000830152610618816105dc565b9050919050565b600081519050919050565b600081905092915050565b60006106408261061f565b61064a818561062a565b935061065a818560208601610486565b80840191505092915050565b60006106728284610635565b915081905092915050565b7f416464726573733a2063616c6c20746f206e6f6e2d636f6e7472616374000000600082015250565b60006106b3601d8361057c565b91506106be8261067d565b602082019050919050565b600060208201905081810360008301526106e2816106a6565b9050919050565b600081519050919050565b60006106ff826106e9565b610709818561057c565b9350610719818560208601610486565b610722816103c9565b840191505092915050565b6000602082019050818103600083015261074781846106f4565b905092915050565b60f58061075d6000396000f3fe608060405236601057600e6018565b005b60166018565b005b601e602c565b602a6026602e565b603b565b565b565b600060366060565b905090565b3660008037600080366000845af43d6000803e8060008114605b573d6000f35b3d6000fd5b6000608c7f360894a13ba1a3210667c828492db98dca3e2076cc3735a920a3ca505d382bbc60001b60b5565b60000160009054906101000a900473ffffffffffffffffffffffffffffffffffffffff16905090565b600081905091905056fea2646970667358221220e91df930f25c61d529b4137f50e631e23eccd38c73a16d064ccea73f532839f764736f6c63430008130033416464726573733a206c6f772d6c6576656c2064656c65676174652063616c6c206661696c6564a2646970667358221220b4314a39757424f9d69c9318af312e77d19b5aa6db4bb73d827918baa0625e7764736f6c6343000813003360e06040523073ffffffffffffffffffffffffffffffffffffffff1660809073ffffffffffffffffffffffffffffffffffffffff168152503480156200004457600080fd5b5060405162003a7b38038062003a7b83398181016040528101906200006a919062000261565b818073ffffffffffffffffffffffffffffffffffffffff1660a08173ffffffffffffffffffffffffffffffffffffffff1681525050620000af620000ec60201b60201c565b508073ffffffffffffffffffffffffffffffffffffffff1660c08173ffffffffffffffffffffffffffffffffffffffff168152505050506200038c565b600060019054906101000a900460ff16156200013f576040517f08c379a000000000000000000000000000000000000000000000000000000000815260040162000136906200032f565b60405180910390fd5b60ff801660008054906101000a900460ff1660ff1614620001b05760ff6000806101000a81548160ff021916908360ff1602179055507f7f26b83ff96e1f2b6a682f133852f6798a09c465da95921460cefb384740249860ff604051620001a791906200036f565b60405180910390a15b565b600080fd5b600073ffffffffffffffffffffffffffffffffffffffff82169050919050565b6000620001e482620001b7565b9050919050565b6000620001f882620001d7565b9050919050565b6200020a81620001eb565b81146200021657600080fd5b50565b6000815190506200022a81620001ff565b92915050565b6200023b81620001d7565b81146200024757600080fd5b50565b6000815190506200025b8162000230565b92915050565b600080604083850312156200027b576200027a620001b2565b5b60006200028b8582860162000219565b92505060206200029e858286016200024a565b9150509250929050565b600082825260208201905092915050565b7f496e697469616c697a61626c653a20636f6e747261637420697320696e69746960008201527f616c697a696e6700000000000000000000000000000000000000000000000000602082015250565b600062000317602783620002a8565b91506200032482620002b9565b604082019050919050565b600060208201905081810360008301526200034a8162000308565b9050919050565b600060ff82169050919050565b620003698162000351565b82525050565b60006020820190506200038660008301846200035e565b92915050565b60805160a05160c051613695620003e6600039600081816107fd0152611824015260008181610d3a01526119c5015260008181610821015281816108af01528181610ad101528181610b5f0152610c0f01526136956000f3fe60806040526004361061014e5760003560e01c80635fb701c8116100b6578063c399ec881161006f578063c399ec881461046c578063c4d66de814610497578063d087d288146104c0578063e02afbae146104eb578063ee472f3614610516578063f23a6e611461053f57610155565b80635fb701c81461035a5780638da5cb5b146103855780639a1b7740146103b0578063b0d691fe146103db578063b61d27f614610406578063bc197c811461042f57610155565b80633659cfe6116101085780633659cfe61461027a5780633a871cdd146102a35780634a58db19146102e05780634d44560d146102ea5780634f1ef2861461031357806352d1902d1461032f57610155565b806223de291461015a57806301ffc9a714610183578063150b7a02146101c057806318dfb3c7146101fd57806318fc5c4414610226578063245a7bfc1461024f57610155565b3661015557005b600080fd5b34801561016657600080fd5b50610181600480360381019061017c9190611ebd565b61057c565b005b34801561018f57600080fd5b506101aa60048036038101906101a59190611fe4565b610586565b6040516101b7919061202c565b60405180910390f35b3480156101cc57600080fd5b506101e760048036038101906101e29190612047565b6106c0565b6040516101f491906120de565b60405180910390f35b34801561020957600080fd5b50610224600480360381019061021f91906121a5565b6106d5565b005b34801561023257600080fd5b5061024d60048036038101906102489190612363565b6107e7565b005b34801561025b57600080fd5b506102646107fb565b604051610271919061239f565b60405180910390f35b34801561028657600080fd5b506102a1600480360381019061029c91906123ba565b61081f565b005b3480156102af57600080fd5b506102ca60048036038101906102c59190612442565b6109a7565b6040516102d791906124c0565b60405180910390f35b6102e86109da565b005b3480156102f657600080fd5b50610311600480360381019061030c9190612519565b610a4f565b005b61032d6004803603810190610328919061260e565b610acf565b005b34801561033b57600080fd5b50610344610c0b565b6040516103519190612679565b60405180910390f35b34801561036657600080fd5b5061036f610cc4565b60405161037c919061239f565b60405180910390f35b34801561039157600080fd5b5061039a610cea565b6040516103a7919061239f565b60405180910390f35b3480156103bc57600080fd5b506103c5610d10565b6040516103d2919061239f565b60405180910390f35b3480156103e757600080fd5b506103f0610d36565b6040516103fd91906126f3565b60405180910390f35b34801561041257600080fd5b5061042d6004803603810190610428919061270e565b610d5e565b005b34801561043b57600080fd5b50610456600480360381019061045191906127d8565b610dbb565b60405161046391906120de565b60405180910390f35b34801561047857600080fd5b50610481610dd3565b60405161048e91906124c0565b60405180910390f35b3480156104a357600080fd5b506104be60048036038101906104b991906123ba565b610e5b565b005b3480156104cc57600080fd5b506104d5610f9b565b6040516104e291906124c0565b60405180910390f35b3480156104f757600080fd5b50610500611026565b60405161050d919061295f565b60405180910390f35b34801561052257600080fd5b5061053d60048036038101906105389190612363565b611071565b005b34801561054b57600080fd5b506105666004803603810190610561919061297a565b6111bb565b60405161057391906120de565b60405180910390f35b5050505050505050565b60007f150b7a02000000000000000000000000000000000000000000000000000000007bffffffffffffffffffffffffffffffffffffffffffffffffffffffff1916827bffffffffffffffffffffffffffffffffffffffffffffffffffffffff1916148061065157507f4e2312e0000000000000000000000000000000000000000000000000000000007bffffffffffffffffffffffffffffffffffffffffffffffffffffffff1916827bffffffffffffffffffffffffffffffffffffffffffffffffffffffff1916145b806106b957507f01ffc9a7000000000000000000000000000000000000000000000000000000007bffffffffffffffffffffffffffffffffffffffffffffffffffffffff1916827bffffffffffffffffffffffffffffffffffffffffffffffffffffffff1916145b9050919050565b600063150b7a0260e01b905095945050505050565b6106dd6111d1565b818190508484905014610725576040517f08c379a000000000000000000000000000000000000000000000000000000000815260040161071c90612a71565b60405180910390fd5b60005b848490508110156107e0576107cd85858381811061074957610748612a91565b5b905060200201602081019061075e91906123ba565b600085858581811061077357610772612a91565b5b90506020028101906107859190612acf565b8080601f016020809104026020016040519081016040528093929190818152602001838380828437600081840152601f19601f820116905080830192505050505050506112a0565b80806107d890612b61565b915050610728565b5050505050565b6107ef611324565b6107f88161149c565b50565b7f000000000000000000000000000000000000000000000000000000000000000081565b7f000000000000000000000000000000000000000000000000000000000000000073ffffffffffffffffffffffffffffffffffffffff163073ffffffffffffffffffffffffffffffffffffffff16036108ad576040517f08c379a00000000000000000000000000000000000000000000000000000000081526004016108a490612c1b565b60405180910390fd5b7f000000000000000000000000000000000000000000000000000000000000000073ffffffffffffffffffffffffffffffffffffffff166108ec6114eb565b73ffffffffffffffffffffffffffffffffffffffff1614610942576040517f08c379a000000000000000000000000000000000000000000000000000000000815260040161093990612cad565b60405180910390fd5b61094b81611542565b6109a481600067ffffffffffffffff81111561096a57610969612237565b5b6040519080825280601f01601f19166020018201604052801561099c5781602001600182028036833780820191505090505b50600061154d565b50565b60006109b16116bb565b6109bb8484611732565b90506109ca8460200135611887565b6109d38261188a565b9392505050565b6109e2610d36565b73ffffffffffffffffffffffffffffffffffffffff1663b760faf934306040518363ffffffff1660e01b8152600401610a1b919061239f565b6000604051808303818588803b158015610a3457600080fd5b505af1158015610a48573d6000803e3d6000fd5b5050505050565b610a57611324565b610a5f610d36565b73ffffffffffffffffffffffffffffffffffffffff1663205c287883836040518363ffffffff1660e01b8152600401610a99929190612cdc565b600060405180830381600087803b158015610ab357600080fd5b505af1158015610ac7573d6000803e3d6000fd5b505050505050565b7f000000000000000000000000000000000000000000000000000000000000000073ffffffffffffffffffffffffffffffffffffffff163073ffffffffffffffffffffffffffffffffffffffff1603610b5d576040517f08c379a0000000000000000000000000000000000000000000000000000000008152600401610b5490612c1b565b60405180910390fd5b7f000000000000000000000000000000000000000000000000000000000000000073ffffffffffffffffffffffffffffffffffffffff16610b9c6114eb565b73ffffffffffffffffffffffffffffffffffffffff1614610bf2576040517f08c379a0000000000000000000000000000000000000000000000000000000008152600401610be990612cad565b60405180910390fd5b610bfb82611542565b610c078282600161154d565b5050565b60007f000000000000000000000000000000000000000000000000000000000000000073ffffffffffffffffffffffffffffffffffffffff163073ffffffffffffffffffffffffffffffffffffffff1614610c9b576040517f08c379a0000000000000000000000000000000000000000000000000000000008152600401610c9290612d77565b60405180910390fd5b7f360894a13ba1a3210667c828492db98dca3e2076cc3735a920a3ca505d382bbc60001b905090565b600260009054906101000a900473ffffffffffffffffffffffffffffffffffffffff1681565b600060029054906101000a900473ffffffffffffffffffffffffffffffffffffffff1681565b600160009054906101000a900473ffffffffffffffffffffffffffffffffffffffff1681565b60007f0000000000000000000000000000000000000000000000000000000000000000905090565b610d666111d1565b610db5848484848080601f016020809104026020016040519081016040528093929190818152602001838380828437600081840152601f19601f820116905080830192505050505050506112a0565b50505050565b600063bc197c8160e01b905098975050505050505050565b6000610ddd610d36565b73ffffffffffffffffffffffffffffffffffffffff166370a08231306040518263ffffffff1660e01b8152600401610e15919061239f565b602060405180830381865afa158015610e32573d6000803e3d6000fd5b505050506040513d601f19601f82011682018060405250810190610e569190612dac565b905090565b60008060019054906101000a900460ff16159050808015610e8c5750600160008054906101000a900460ff1660ff16105b80610eb95750610e9b30611926565b158015610eb85750600160008054906101000a900460ff1660ff16145b5b610ef8576040517f08c379a0000000000000000000000000000000000000000000000000000000008152600401610eef90612e4b565b60405180910390fd5b60016000806101000a81548160ff021916908360ff1602179055508015610f35576001600060016101000a81548160ff0219169083151502179055505b610f3e82611949565b8015610f975760008060016101000a81548160ff0219169083151502179055507f7f26b83ff96e1f2b6a682f133852f6798a09c465da95921460cefb38474024986001604051610f8e9190612eb3565b60405180910390a15b5050565b6000610fa5610d36565b73ffffffffffffffffffffffffffffffffffffffff166335567e1a3060006040518363ffffffff1660e01b8152600401610fe0929190612f2d565b602060405180830381865afa158015610ffd573d6000803e3d6000fd5b505050506040513d601f19601f820116820180604052508101906110219190612dac565b905090565b61102e611d31565b6003600480602002604051908101604052809291908260048015611067576020028201915b815481526020019060010190808311611053575b5050505050905090565b60008060019054906101000a900460ff161590508080156110a25750600160008054906101000a900460ff1660ff16105b806110cf57506110b130611926565b1580156110ce5750600160008054906101000a900460ff1660ff16145b5b61110e576040517f08c379a000000000000000000000000000000000000000000000000000000000815260040161110590612e4b565b60405180910390fd5b60016000806101000a81548160ff021916908360ff160217905550801561114b576001600060016101000a81548160ff0219169083151502179055505b6111556000611949565b61115e8261149c565b80156111b75760008060016101000a81548160ff0219169083151502179055507f7f26b83ff96e1f2b6a682f133852f6798a09c465da95921460cefb384740249860016040516111ae9190612eb3565b60405180910390a15b5050565b600063f23a6e6160e01b90509695505050505050565b6111d9610d36565b73ffffffffffffffffffffffffffffffffffffffff163373ffffffffffffffffffffffffffffffffffffffff16148061125f5750600060029054906101000a900473ffffffffffffffffffffffffffffffffffffffff1673ffffffffffffffffffffffffffffffffffffffff163373ffffffffffffffffffffffffffffffffffffffff16145b61129e576040517f08c379a000000000000000000000000000000000000000000000000000000000815260040161129590612fa2565b60405180910390fd5b565b6000808473ffffffffffffffffffffffffffffffffffffffff1684846040516112c99190613033565b60006040518083038185875af1925050503d8060008114611306576040519150601f19603f3d011682016040523d82523d6000602084013e61130b565b606091505b50915091508161131d57805160208201fd5b5050505050565b600060029054906101000a900473ffffffffffffffffffffffffffffffffffffffff1673ffffffffffffffffffffffffffffffffffffffff163373ffffffffffffffffffffffffffffffffffffffff1614806113ab57503073ffffffffffffffffffffffffffffffffffffffff163373ffffffffffffffffffffffffffffffffffffffff16145b806114035750600160009054906101000a900473ffffffffffffffffffffffffffffffffffffffff1673ffffffffffffffffffffffffffffffffffffffff163373ffffffffffffffffffffffffffffffffffffffff16145b8061145b5750600260009054906101000a900473ffffffffffffffffffffffffffffffffffffffff1673ffffffffffffffffffffffffffffffffffffffff163373ffffffffffffffffffffffffffffffffffffffff16145b61149a576040517f08c379a000000000000000000000000000000000000000000000000000000000815260040161149190613096565b60405180910390fd5b565b7f42e4c4ce1432650f17e41c4ea77ed12c0ab20b229d3ffd84a2ebc9f8abb25a836003826040516114ce92919061317a565b60405180910390a18060039060046114e7929190611d53565b5050565b60006115197f360894a13ba1a3210667c828492db98dca3e2076cc3735a920a3ca505d382bbc60001b611a29565b60000160009054906101000a900473ffffffffffffffffffffffffffffffffffffffff16905090565b61154a611324565b50565b6115797f4910fdfa16fed3260ed0e7147f7cc6da11a60208b5b9406d12a635614ffd914360001b611a33565b60000160009054906101000a900460ff161561159d5761159883611a3d565b6116b6565b8273ffffffffffffffffffffffffffffffffffffffff166352d1902d6040518163ffffffff1660e01b8152600401602060405180830381865afa92505050801561160557506040513d601f19601f8201168201806040525081019061160291906131b9565b60015b611644576040517f08c379a000000000000000000000000000000000000000000000000000000000815260040161163b90613258565b60405180910390fd5b7f360894a13ba1a3210667c828492db98dca3e2076cc3735a920a3ca505d382bbc60001b81146116a9576040517f08c379a00000000000000000000000000000000000000000000000000000000081526004016116a0906132ea565b60405180910390fd5b506116b5838383611af6565b5b505050565b6116c3610d36565b73ffffffffffffffffffffffffffffffffffffffff163373ffffffffffffffffffffffffffffffffffffffff1614611730576040517f08c379a000000000000000000000000000000000000000000000000000000000815260040161172790613356565b60405180910390fd5b565b6000808380604001906117459190612acf565b905014611814576000611756611026565b604051602001611766919061295f565b6040516020818303038152906040528051906020012090508084806040019061178f9190612acf565b60808780604001906117a19190612acf565b90506117ad9190613376565b9080926117bc939291906133b4565b6040516117ca929190613414565b604051809103902014611812576040517f08c379a000000000000000000000000000000000000000000000000000000000815260040161180990613479565b60405180910390fd5b505b61187f60405180606001604052807f000000000000000000000000000000000000000000000000000000000000000073ffffffffffffffffffffffffffffffffffffffff168152602001600065ffffffffffff168152602001600065ffffffffffff16815250611b22565b905092915050565b50565b600081146119235760003373ffffffffffffffffffffffffffffffffffffffff16827fffffffffffffffffffffffffffffffffffffffffffffffffffffffffffffffff906040516118da906134bf565b600060405180830381858888f193505050503d8060008114611918576040519150601f19603f3d011682016040523d82523d6000602084013e61191d565b606091505b50509050505b50565b6000808273ffffffffffffffffffffffffffffffffffffffff163b119050919050565b80600060026101000a81548173ffffffffffffffffffffffffffffffffffffffff021916908373ffffffffffffffffffffffffffffffffffffffff160217905550600060029054906101000a900473ffffffffffffffffffffffffffffffffffffffff1673ffffffffffffffffffffffffffffffffffffffff167f000000000000000000000000000000000000000000000000000000000000000073ffffffffffffffffffffffffffffffffffffffff167f47e55c76e7a6f1fd8996a1da8008c1ea29699cca35e7bcd057f2dec313b6e5de60405160405180910390a350565b6000819050919050565b6000819050919050565b611a4681611926565b611a85576040517f08c379a0000000000000000000000000000000000000000000000000000000008152600401611a7c90613546565b60405180910390fd5b80611ab27f360894a13ba1a3210667c828492db98dca3e2076cc3735a920a3ca505d382bbc60001b611a29565b60000160006101000a81548173ffffffffffffffffffffffffffffffffffffffff021916908373ffffffffffffffffffffffffffffffffffffffff16021790555050565b611aff83611b6a565b600082511180611b0c5750805b15611b1d57611b1b8383611bb9565b505b505050565b600060d0826020015165ffffffffffff16901b60a0836040015165ffffffffffff16901b836000015173ffffffffffffffffffffffffffffffffffffffff1617179050919050565b611b7381611a3d565b8073ffffffffffffffffffffffffffffffffffffffff167fbc7cd75a20ee27fd9adebab32041f755214dbc6bffa90cc0225b39da2e5c2d3b60405160405180910390a250565b6060611bde838360405180606001604052806027815260200161363960279139611be6565b905092915050565b60606000808573ffffffffffffffffffffffffffffffffffffffff1685604051611c109190613033565b600060405180830381855af49150503d8060008114611c4b576040519150601f19603f3d011682016040523d82523d6000602084013e611c50565b606091505b5091509150611c6186838387611c6c565b925050509392505050565b60608315611cce576000835103611cc657611c8685611926565b611cc5576040517f08c379a0000000000000000000000000000000000000000000000000000000008152600401611cbc906135b2565b60405180910390fd5b5b829050611cd9565b611cd88383611ce1565b5b949350505050565b600082511115611cf45781518083602001fd5b806040517f08c379a0000000000000000000000000000000000000000000000000000000008152600401611d289190613616565b60405180910390fd5b6040518060800160405280600490602082028036833780820191505090505090565b8260048101928215611d82579160200282015b82811115611d81578251825591602001919060010190611d66565b5b509050611d8f9190611d93565b5090565b5b80821115611dac576000816000905550600101611d94565b5090565b6000604051905090565b600080fd5b600080fd5b600073ffffffffffffffffffffffffffffffffffffffff82169050919050565b6000611def82611dc4565b9050919050565b611dff81611de4565b8114611e0a57600080fd5b50565b600081359050611e1c81611df6565b92915050565b6000819050919050565b611e3581611e22565b8114611e4057600080fd5b50565b600081359050611e5281611e2c565b92915050565b600080fd5b600080fd5b600080fd5b60008083601f840112611e7d57611e7c611e58565b5b8235905067ffffffffffffffff811115611e9a57611e99611e5d565b5b602083019150836001820283011115611eb657611eb5611e62565b5b9250929050565b60008060008060008060008060c0898b031215611edd57611edc611dba565b5b6000611eeb8b828c01611e0d565b9850506020611efc8b828c01611e0d565b9750506040611f0d8b828c01611e0d565b9650506060611f1e8b828c01611e43565b955050608089013567ffffffffffffffff811115611f3f57611f3e611dbf565b5b611f4b8b828c01611e67565b945094505060a089013567ffffffffffffffff811115611f6e57611f6d611dbf565b5b611f7a8b828c01611e67565b92509250509295985092959890939650565b60007fffffffff0000000000000000000000000000000000000000000000000000000082169050919050565b611fc181611f8c565b8114611fcc57600080fd5b50565b600081359050611fde81611fb8565b92915050565b600060208284031215611ffa57611ff9611dba565b5b600061200884828501611fcf565b91505092915050565b60008115159050919050565b61202681612011565b82525050565b6000602082019050612041600083018461201d565b92915050565b60008060008060006080868803121561206357612062611dba565b5b600061207188828901611e0d565b955050602061208288828901611e0d565b945050604061209388828901611e43565b935050606086013567ffffffffffffffff8111156120b4576120b3611dbf565b5b6120c088828901611e67565b92509250509295509295909350565b6120d881611f8c565b82525050565b60006020820190506120f360008301846120cf565b92915050565b60008083601f84011261210f5761210e611e58565b5b8235905067ffffffffffffffff81111561212c5761212b611e5d565b5b60208301915083602082028301111561214857612147611e62565b5b9250929050565b60008083601f84011261216557612164611e58565b5b8235905067ffffffffffffffff81111561218257612181611e5d565b5b60208301915083602082028301111561219e5761219d611e62565b5b9250929050565b600080600080604085870312156121bf576121be611dba565b5b600085013567ffffffffffffffff8111156121dd576121dc611dbf565b5b6121e9878288016120f9565b9450945050602085013567ffffffffffffffff81111561220c5761220b611dbf565b5b6122188782880161214f565b925092505092959194509250565b6000601f19601f8301169050919050565b7f4e487b7100000000000000000000000000000000000000000000000000000000600052604160045260246000fd5b61226f82612226565b810181811067ffffffffffffffff8211171561228e5761228d612237565b5b80604052505050565b60006122a1611db0565b90506122ad8282612266565b919050565b600067ffffffffffffffff8211156122cd576122cc612237565b5b602082029050919050565b60006122eb6122e6846122b2565b612297565b9050806020840283018581111561230557612304611e62565b5b835b8181101561232e578061231a8882611e43565b845260208401935050602081019050612307565b5050509392505050565b600082601f83011261234d5761234c611e58565b5b600461235a8482856122d8565b91505092915050565b60006080828403121561237957612378611dba565b5b600061238784828501612338565b91505092915050565b61239981611de4565b82525050565b60006020820190506123b46000830184612390565b92915050565b6000602082840312156123d0576123cf611dba565b5b60006123de84828501611e0d565b91505092915050565b600080fd5b60006101608284031215612403576124026123e7565b5b81905092915050565b6000819050919050565b61241f8161240c565b811461242a57600080fd5b50565b60008135905061243c81612416565b92915050565b60008060006060848603121561245b5761245a611dba565b5b600084013567ffffffffffffffff81111561247957612478611dbf565b5b612485868287016123ec565b93505060206124968682870161242d565b92505060406124a786828701611e43565b9150509250925092565b6124ba81611e22565b82525050565b60006020820190506124d560008301846124b1565b92915050565b60006124e682611dc4565b9050919050565b6124f6816124db565b811461250157600080fd5b50565b600081359050612513816124ed565b92915050565b600080604083850312156125305761252f611dba565b5b600061253e85828601612504565b925050602061254f85828601611e43565b9150509250929050565b600080fd5b600067ffffffffffffffff82111561257957612578612237565b5b61258282612226565b9050602081019050919050565b82818337600083830152505050565b60006125b16125ac8461255e565b612297565b9050828152602081018484840111156125cd576125cc612559565b5b6125d884828561258f565b509392505050565b600082601f8301126125f5576125f4611e58565b5b813561260584826020860161259e565b91505092915050565b6000806040838503121561262557612624611dba565b5b600061263385828601611e0d565b925050602083013567ffffffffffffffff81111561265457612653611dbf565b5b612660858286016125e0565b9150509250929050565b6126738161240c565b82525050565b600060208201905061268e600083018461266a565b92915050565b6000819050919050565b60006126b96126b46126af84611dc4565b612694565b611dc4565b9050919050565b60006126cb8261269e565b9050919050565b60006126dd826126c0565b9050919050565b6126ed816126d2565b82525050565b600060208201905061270860008301846126e4565b92915050565b6000806000806060858703121561272857612727611dba565b5b600061273687828801611e0d565b945050602061274787828801611e43565b935050604085013567ffffffffffffffff81111561276857612767611dbf565b5b61277487828801611e67565b925092505092959194509250565b60008083601f84011261279857612797611e58565b5b8235905067ffffffffffffffff8111156127b5576127b4611e5d565b5b6020830191508360208202830111156127d1576127d0611e62565b5b9250929050565b60008060008060008060008060a0898b0312156127f8576127f7611dba565b5b60006128068b828c01611e0d565b98505060206128178b828c01611e0d565b975050604089013567ffffffffffffffff81111561283857612837611dbf565b5b6128448b828c01612782565b9650965050606089013567ffffffffffffffff81111561286757612866611dbf565b5b6128738b828c01612782565b9450945050608089013567ffffffffffffffff81111561289657612895611dbf565b5b6128a28b828c01611e67565b92509250509295985092959890939650565b600060049050919050565b600081905092915050565b6000819050919050565b6128dd81611e22565b82525050565b60006128ef83836128d4565b60208301905092915050565b6000602082019050919050565b612911816128b4565b61291b81846128bf565b9250612926826128ca565b8060005b8381101561295757815161293e87826128e3565b9650612949836128fb565b92505060018101905061292a565b505050505050565b60006080820190506129746000830184612908565b92915050565b60008060008060008060a0878903121561299757612996611dba565b5b60006129a589828a01611e0d565b96505060206129b689828a01611e0d565b95505060406129c789828a01611e43565b94505060606129d889828a01611e43565b935050608087013567ffffffffffffffff8111156129f9576129f8611dbf565b5b612a0589828a01611e67565b92509250509295509295509295565b600082825260208201905092915050565b7f77726f6e67206172726179206c656e6774687300000000000000000000000000600082015250565b6000612a5b601383612a14565b9150612a6682612a25565b602082019050919050565b60006020820190508181036000830152612a8a81612a4e565b9050919050565b7f4e487b7100000000000000000000000000000000000000000000000000000000600052603260045260246000fd5b600080fd5b600080fd5b600080fd5b60008083356001602003843603038112612aec57612aeb612ac0565b5b80840192508235915067ffffffffffffffff821115612b0e57612b0d612ac5565b5b602083019250600182023603831315612b2a57612b29612aca565b5b509250929050565b7f4e487b7100000000000000000000000000000000000000000000000000000000600052601160045260246000fd5b6000612b6c82611e22565b91507fffffffffffffffffffffffffffffffffffffffffffffffffffffffffffffffff8203612b9e57612b9d612b32565b5b600182019050919050565b7f46756e6374696f6e206d7573742062652063616c6c6564207468726f7567682060008201527f64656c656761746563616c6c0000000000000000000000000000000000000000602082015250565b6000612c05602c83612a14565b9150612c1082612ba9565b604082019050919050565b60006020820190508181036000830152612c3481612bf8565b9050919050565b7f46756e6374696f6e206d7573742062652063616c6c6564207468726f7567682060008201527f6163746976652070726f78790000000000000000000000000000000000000000602082015250565b6000612c97602c83612a14565b9150612ca282612c3b565b604082019050919050565b60006020820190508181036000830152612cc681612c8a565b9050919050565b612cd6816124db565b82525050565b6000604082019050612cf16000830185612ccd565b612cfe60208301846124b1565b9392505050565b7f555550535570677261646561626c653a206d757374206e6f742062652063616c60008201527f6c6564207468726f7567682064656c656761746563616c6c0000000000000000602082015250565b6000612d61603883612a14565b9150612d6c82612d05565b604082019050919050565b60006020820190508181036000830152612d9081612d54565b9050919050565b600081519050612da681611e2c565b92915050565b600060208284031215612dc257612dc1611dba565b5b6000612dd084828501612d97565b91505092915050565b7f496e697469616c697a61626c653a20636f6e747261637420697320616c72656160008201527f647920696e697469616c697a6564000000000000000000000000000000000000602082015250565b6000612e35602e83612a14565b9150612e4082612dd9565b604082019050919050565b60006020820190508181036000830152612e6481612e28565b9050919050565b6000819050919050565b600060ff82169050919050565b6000612e9d612e98612e9384612e6b565b612694565b612e75565b9050919050565b612ead81612e82565b82525050565b6000602082019050612ec86000830184612ea4565b92915050565b6000819050919050565b600077ffffffffffffffffffffffffffffffffffffffffffffffff82169050919050565b6000612f17612f12612f0d84612ece565b612694565b612ed8565b9050919050565b612f2781612efc565b82525050565b6000604082019050612f426000830185612390565b612f4f6020830184612f1e565b9392505050565b7f6163636f756e743a206e6f74204f776e6572206f7220456e747279506f696e74600082015250565b6000612f8c602083612a14565b9150612f9782612f56565b602082019050919050565b60006020820190508181036000830152612fbb81612f7f565b9050919050565b600081519050919050565b600081905092915050565b60005b83811015612ff6578082015181840152602081019050612fdb565b60008484015250505050565b600061300d82612fc2565b6130178185612fcd565b9350613027818560208601612fd8565b80840191505092915050565b600061303f8284613002565b915081905092915050565b7f6f6e6c79206f776e657200000000000000000000000000000000000000000000600082015250565b6000613080600a83612a14565b915061308b8261304a565b602082019050919050565b600060208201905081810360008301526130af81613073565b9050919050565b600060049050919050565b6000819050919050565b60008160001c9050919050565b6000819050919050565b60006130f56130f0836130cb565b6130d8565b9050919050565b600061310882546130e2565b9050919050565b6000600182019050919050565b613125816130b6565b61312f81846128bf565b925061313a826130c1565b8060005b838110156131725761314f826130fc565b61315987826128e3565b96506131648361310f565b92505060018101905061313e565b505050505050565b600061010082019050613190600083018561311c565b61319d6080830184612908565b9392505050565b6000815190506131b381612416565b92915050565b6000602082840312156131cf576131ce611dba565b5b60006131dd848285016131a4565b91505092915050565b7f45524331393637557067726164653a206e657720696d706c656d656e7461746960008201527f6f6e206973206e6f742055555053000000000000000000000000000000000000602082015250565b6000613242602e83612a14565b915061324d826131e6565b604082019050919050565b6000602082019050818103600083015261327181613235565b9050919050565b7f45524331393637557067726164653a20756e737570706f727465642070726f7860008201527f6961626c65555549440000000000000000000000000000000000000000000000602082015250565b60006132d4602983612a14565b91506132df82613278565b604082019050919050565b60006020820190508181036000830152613303816132c7565b9050919050565b7f6163636f756e743a206e6f742066726f6d20456e747279506f696e7400000000600082015250565b6000613340601c83612a14565b915061334b8261330a565b602082019050919050565b6000602082019050818103600083015261336f81613333565b9050919050565b600061338182611e22565b915061338c83611e22565b92508282039050818111156133a4576133a3612b32565b5b92915050565b600080fd5b600080fd5b600080858511156133c8576133c76133aa565b5b838611156133d9576133d86133af565b5b6001850283019150848603905094509492505050565b60006133fb8385612fcd565b935061340883858461258f565b82840190509392505050565b60006134218284866133ef565b91508190509392505050565b7f77726f6e67207075626b65790000000000000000000000000000000000000000600082015250565b6000613463600c83612a14565b915061346e8261342d565b602082019050919050565b6000602082019050818103600083015261349281613456565b9050919050565b50565b60006134a9600083612fcd565b91506134b482613499565b600082019050919050565b60006134ca8261349c565b9150819050919050565b7f455243313936373a206e657720696d706c656d656e746174696f6e206973206e60008201527f6f74206120636f6e747261637400000000000000000000000000000000000000602082015250565b6000613530602d83612a14565b915061353b826134d4565b604082019050919050565b6000602082019050818103600083015261355f81613523565b9050919050565b7f416464726573733a2063616c6c20746f206e6f6e2d636f6e7472616374000000600082015250565b600061359c601d83612a14565b91506135a782613566565b602082019050919050565b600060208201905081810360008301526135cb8161358f565b9050919050565b600081519050919050565b60006135e8826135d2565b6135f28185612a14565b9350613602818560208601612fd8565b61360b81612226565b840191505092915050565b6000602082019050818103600083015261363081846135dd565b90509291505056fe416464726573733a206c6f772d6c6576656c2064656c65676174652063616c6c206661696c6564a2646970667358221220ac0bb10ca3cee4db3c8aecbb7cb4e58fb28efe3be541140dd22a0cc7d79cb99064736f6c63430008130033",
  "linkReferences": {},
  "deployedLinkReferences": {}
}