{
  "_format": "hh-sol-artifact-1",
  "contractName": "EIP4337Manager",
  "sourceName": "contracts/samples/gnosis/EIP4337Manager.sol",
  "abi": [
    {
      "inputs": [
        {
          "internalType": "address",
          "name": "anEntryPoint",
          "type": "address"
        }
      ],
      "stateMutability": "nonpayable",
      "type": "constructor"
    },
    {
      "inputs": [],
      "name": "eip4337Fallback",
      "outputs": [
        {
          "internalType": "address",
          "name": "",
          "type": "address"
        }
      ],
      "stateMutability": "view",
      "type": "function"
    },
    {
      "inputs": [],
      "name": "entryPoint",
      "outputs": [
        {
          "internalType": "address",
          "name": "",
          "type": "address"
        }
      ],
      "stateMutability": "view",
      "type": "function"
    },
    {
      "inputs": [
        {
          "internalType": "address",
          "name": "to",
          "type": "address"
        },
        {
          "internalType": "uint256",
          "name": "value",
          "type": "uint256"
        },
        {
          "internalType": "bytes",
          "name": "data",
          "type": "bytes"
        },
        {
          "internalType": "enum Enum.Operation",
          "name": "operation",
          "type": "uint8"
        }
      ],
      "name": "executeAndRevert",
      "outputs": [],
      "stateMutability": "nonpayable",
      "type": "function"
    },
    {
      "inputs": [
        {
          "internalType": "contract GnosisSafe",
          "name": "safe",
          "type": "address"
        }
      ],
      "name": "getCurrentEIP4337Manager",
      "outputs": [
        {
          "internalType": "address",
          "name": "prev",
          "type": "address"
        },
        {
          "internalType": "address",
          "name": "manager",
          "type": "address"
        }
      ],
      "stateMutability": "view",
      "type": "function"
    },
    {
      "inputs": [],
      "name": "getNonce",
      "outputs": [
        {
          "internalType": "uint256",
          "name": "",
          "type": "uint256"
        }
      ],
      "stateMutability": "view",
      "type": "function"
    },
    {
      "inputs": [
        {
          "internalType": "address",
          "name": "prevModule",
          "type": "address"
        },
        {
          "internalType": "contract EIP4337Manager",
          "name": "oldManager",
          "type": "address"
        },
        {
          "internalType": "contract EIP4337Manager",
          "name": "newManager",
          "type": "address"
        }
      ],
      "name": "replaceEIP4337Manager",
      "outputs": [],
      "stateMutability": "nonpayable",
      "type": "function"
    },
    {
      "inputs": [
        {
          "internalType": "contract EIP4337Manager",
          "name": "manager",
          "type": "address"
        }
      ],
      "name": "setup4337Modules",
      "outputs": [],
      "stateMutability": "nonpayable",
      "type": "function"
    },
    {
      "inputs": [
        {
          "internalType": "contract GnosisSafe",
          "name": "safe",
          "type": "address"
        },
        {
          "internalType": "contract EIP4337Manager",
          "name": "manager",
          "type": "address"
        }
      ],
      "name": "validateEip4337",
      "outputs": [],
      "stateMutability": "nonpayable",
      "type": "function"
    },
    {
      "inputs": [
        {
          "components": [
            {
              "internalType": "address",
              "name": "sender",
              "type": "address"
            },
            {
              "internalType": "uint256",
              "name": "nonce",
              "type": "uint256"
            },
            {
              "internalType": "bytes",
              "name": "initCode",
              "type": "bytes"
            },
            {
              "internalType": "bytes",
              "name": "callData",
              "type": "bytes"
            },
            {
              "internalType": "uint256",
              "name": "callGasLimit",
              "type": "uint256"
            },
            {
              "internalType": "uint256",
              "name": "verificationGasLimit",
              "type": "uint256"
            },
            {
              "internalType": "uint256",
              "name": "preVerificationGas",
              "type": "uint256"
            },
            {
              "internalType": "uint256",
              "name": "maxFeePerGas",
              "type": "uint256"
            },
            {
              "internalType": "uint256",
              "name": "maxPriorityFeePerGas",
              "type": "uint256"
            },
            {
              "internalType": "bytes",
              "name": "paymasterAndData",
              "type": "bytes"
            },
            {
              "internalType": "bytes",
              "name": "signature",
              "type": "bytes"
            }
          ],
          "internalType": "struct UserOperation",
          "name": "userOp",
          "type": "tuple"
        },
        {
          "internalType": "bytes32",
          "name": "userOpHash",
          "type": "bytes32"
        },
        {
          "internalType": "uint256",
          "name": "missingAccountFunds",
          "type": "uint256"
        }
      ],
      "name": "validateUserOp",
      "outputs": [
        {
          "internalType": "uint256",
          "name": "validationData",
          "type": "uint256"
        }
      ],
      "stateMutability": "nonpayable",
      "type": "function"
    }
  ],
  "bytecode": "0x60c06040523480156200001157600080fd5b5060405162004b8d38038062004b8d833981810160405281019062000037919062000156565b8073ffffffffffffffffffffffffffffffffffffffff1660a08173ffffffffffffffffffffffffffffffffffffffff1681525050306040516200007a90620000de565b62000086919062000199565b604051809103906000f080158015620000a3573d6000803e3d6000fd5b5073ffffffffffffffffffffffffffffffffffffffff1660808173ffffffffffffffffffffffffffffffffffffffff168152505050620001b6565b6118a380620032ea83390190565b600080fd5b600073ffffffffffffffffffffffffffffffffffffffff82169050919050565b60006200011e82620000f1565b9050919050565b620001308162000111565b81146200013c57600080fd5b50565b600081519050620001508162000125565b92915050565b6000602082840312156200016f576200016e620000ec565b5b60006200017f848285016200013f565b91505092915050565b620001938162000111565b82525050565b6000602082019050620001b0600083018462000188565b92915050565b60805160a0516130f2620001f86000396000818161035701528181610bb801528181610da501526111d6015260008181610b600152610c4601526130f26000f3fe608060405234801561001057600080fd5b50600436106100935760003560e01c8063940d3c6011610066578063940d3c6014610133578063b0d691fe1461014f578063d041593b1461016d578063d087d28814610189578063efae6e06146101a757610093565b8063039b1728146100985780633a871cdd146100c957806345b1e0ca146100f957806370b8a01d14610115575b600080fd5b6100b260048036038101906100ad9190611b96565b6101c3565b6040516100c0929190611be4565b60405180910390f35b6100e360048036038101906100de9190611c9e565b61031f565b6040516100f09190611d1c565b60405180910390f35b610113600480360381019061010e9190611d75565b6105f9565b005b61011d610b5e565b60405161012a9190611db5565b60405180910390f35b61014d60048036038101906101489190611f67565b610b82565b005b610157610da3565b6040516101649190611db5565b60405180910390f35b61018760048036038101906101829190611fea565b610dc7565b005b6101916111d2565b60405161019e9190611d1c565b60405180910390f35b6101c160048036038101906101bc9190612017565b611276565b005b6000806001915060008373ffffffffffffffffffffffffffffffffffffffff1663cc2f8452600160646040518363ffffffff1660e01b81526004016102099291906120af565b600060405180830381865afa158015610226573d6000803e3d6000fd5b505050506040513d6000823e3d601f19601f8201168201806040525081019061024f91906121b5565b50905060005b815181101561031057600082828151811061027357610272612211565b5b602002602001015190508073ffffffffffffffffffffffffffffffffffffffff16632bcadc246040518163ffffffff1660e01b8152600401602060405180830381865afa9250505080156102e557506040513d601f19601f820116820180604052508101906102e29190612240565b60015b156102f9578581955095505050505061031a565b8094505080806103089061229c565b915050610255565b5060008092509250505b915091565b6000806000366014600036905061033691906122e4565b90809261034593929190612322565b9061035091906123a1565b60601c90507f000000000000000000000000000000000000000000000000000000000000000073ffffffffffffffffffffffffffffffffffffffff168173ffffffffffffffffffffffffffffffffffffffff16146103e3576040517f08c379a00000000000000000000000000000000000000000000000000000000081526004016103da9061245d565b60405180910390fd5b600030905060006103f386611723565b9050600061045d8880610140019061040b919061248c565b8080601f016020809104026020016040519081016040528093929190818152602001838380828437600081840152601f19601f820116905080830192505050505050508361175990919063ffffffff16565b90506001600454146104a4576040517f08c379a000000000000000000000000000000000000000000000000000000000815260040161049b9061253b565b60405180910390fd5b8273ffffffffffffffffffffffffffffffffffffffff16632f54bf6e826040518263ffffffff1660e01b81526004016104dd9190611db5565b602060405180830381865afa1580156104fa573d6000803e3d6000fd5b505050506040513d601f19601f8201168201806040525081019061051e9190612593565b61052757600194505b67ffffffffffffffff8016886020013510610577576040517f08c379a000000000000000000000000000000000000000000000000000000000815260040161056e9061260c565b60405180910390fd5b60008611156105ee5760008473ffffffffffffffffffffffffffffffffffffffff16876040516105a69061265d565b60006040518083038185875af1925050503d80600081146105e3576040519150601f19603f3d011682016040523d82523d6000602084013e6105e8565b606091505b50509050505b505050509392505050565b6000604167ffffffffffffffff81111561061657610615611e17565b5b6040519080825280601f01601f1916602001820160405280156106485781602001600182028036833780820191505090505b509050601b60f81b8160408151811061066457610663612211565b5b60200101907effffffffffffffffffffffffffffffffffffffffffffffffffffffffffffff1916908160001a905350600160f81b816002815181106106ac576106ab612211565b5b60200101907effffffffffffffffffffffffffffffffffffffffffffffffffffffffffffff1916908160001a905350600160f81b816023815181106106f4576106f3612211565b5b60200101907effffffffffffffffffffffffffffffffffffffffffffffffffffffffffffff1916908160001a90535060008273ffffffffffffffffffffffffffffffffffffffff1663b0d691fe6040518163ffffffff1660e01b8152600401602060405180830381865afa158015610770573d6000803e3d6000fd5b505050506040513d601f19601f820116820180604052508101906107949190612240565b73ffffffffffffffffffffffffffffffffffffffff166335567e1a8560006040518363ffffffff1660e01b81526004016107cf9291906126d1565b602060405180830381865afa1580156107ec573d6000803e3d6000fd5b505050506040513d601f19601f82011682018060405250810190610810919061270f565b905060006040518061016001604052808673ffffffffffffffffffffffffffffffffffffffff16815260200183815260200160405180602001604052806000815250815260200160405180602001604052806000815250815260200160008152602001620f424081526020016000815260200160008152602001600081526020016040518060200160405280600081525081526020018481525090506000600167ffffffffffffffff8111156108c9576108c8611e17565b5b60405190808252806020026020018201604052801561090257816020015b6108ef611aa2565b8152602001906001900390816108e75790505b509050818160008151811061091a57610919612211565b5b602002602001018190525060008573ffffffffffffffffffffffffffffffffffffffff1663b0d691fe6040518163ffffffff1660e01b8152600401602060405180830381865afa158015610972573d6000803e3d6000fd5b505050506040513d601f19601f820116820180604052508101906109969190612240565b90508073ffffffffffffffffffffffffffffffffffffffff16631fad948c83336040518363ffffffff1660e01b81526004016109d39291906129ae565b600060405180830381600087803b1580156109ed57600080fd5b505af19250505080156109fe575060015b610b1a573d8060008114610a2e576040519150601f19603f3d011682016040523d82523d6000602084013e610a33565b606091505b506000604051602401610a469190612a68565b6040516020818303038152906040527f220266b6000000000000000000000000000000000000000000000000000000007bffffffffffffffffffffffffffffffffffffffffffffffffffffffff19166020820180517bffffffffffffffffffffffffffffffffffffffffffffffffffffffff838183161783525050505080519060200120818051906020012014610b1457806040517f08c379a0000000000000000000000000000000000000000000000000000000008152600401610b0b9190612ada565b60405180910390fd5b50610b55565b6040517f08c379a0000000000000000000000000000000000000000000000000000000008152600401610b4c90612b6e565b60405180910390fd5b50505050505050565b7f000000000000000000000000000000000000000000000000000000000000000081565b6000803660146000369050610b9791906122e4565b908092610ba693929190612322565b90610bb191906123a1565b60601c90507f000000000000000000000000000000000000000000000000000000000000000073ffffffffffffffffffffffffffffffffffffffff168173ffffffffffffffffffffffffffffffffffffffff1614610c44576040517f08c379a0000000000000000000000000000000000000000000000000000000008152600401610c3b9061245d565b60405180910390fd5b7f000000000000000000000000000000000000000000000000000000000000000073ffffffffffffffffffffffffffffffffffffffff163373ffffffffffffffffffffffffffffffffffffffff1614610cd2576040517f08c379a0000000000000000000000000000000000000000000000000000000008152600401610cc990612c00565b60405180910390fd5b6000610d01868686867fffffffffffffffffffffffffffffffffffffffffffffffffffffffffffffffff611780565b90506000610d2e7fffffffffffffffffffffffffffffffffffffffffffffffffffffffffffffffff6117d9565b905081610d9a57604481511015610d4457600080fd5b60048101905080806020019051810190610d5e9190612cc1565b6040517f08c379a0000000000000000000000000000000000000000000000000000000008152600401610d919190612ada565b60405180910390fd5b50505050505050565b7f000000000000000000000000000000000000000000000000000000000000000081565b60003090508073ffffffffffffffffffffffffffffffffffffffff16632d9ad53d8373ffffffffffffffffffffffffffffffffffffffff1663b0d691fe6040518163ffffffff1660e01b8152600401602060405180830381865afa158015610e33573d6000803e3d6000fd5b505050506040513d601f19601f82011682018060405250810190610e579190612240565b6040518263ffffffff1660e01b8152600401610e739190611db5565b602060405180830381865afa158015610e90573d6000803e3d6000fd5b505050506040513d601f19601f82011682018060405250810190610eb49190612593565b15610ef4576040517f08c379a0000000000000000000000000000000000000000000000000000000008152600401610eeb90612d7c565b60405180910390fd5b8073ffffffffffffffffffffffffffffffffffffffff16632d9ad53d8373ffffffffffffffffffffffffffffffffffffffff166370b8a01d6040518163ffffffff1660e01b8152600401602060405180830381865afa158015610f5b573d6000803e3d6000fd5b505050506040513d601f19601f82011682018060405250810190610f7f9190612240565b6040518263ffffffff1660e01b8152600401610f9b9190611db5565b602060405180830381865afa158015610fb8573d6000803e3d6000fd5b505050506040513d601f19601f82011682018060405250810190610fdc9190612593565b1561101c576040517f08c379a000000000000000000000000000000000000000000000000000000000815260040161101390612e0e565b60405180910390fd5b8073ffffffffffffffffffffffffffffffffffffffff1663610b59258373ffffffffffffffffffffffffffffffffffffffff1663b0d691fe6040518163ffffffff1660e01b8152600401602060405180830381865afa158015611083573d6000803e3d6000fd5b505050506040513d601f19601f820116820180604052508101906110a79190612240565b6040518263ffffffff1660e01b81526004016110c39190611db5565b600060405180830381600087803b1580156110dd57600080fd5b505af11580156110f1573d6000803e3d6000fd5b505050508073ffffffffffffffffffffffffffffffffffffffff1663610b59258373ffffffffffffffffffffffffffffffffffffffff166370b8a01d6040518163ffffffff1660e01b8152600401602060405180830381865afa15801561115c573d6000803e3d6000fd5b505050506040513d601f19601f820116820180604052508101906111809190612240565b6040518263ffffffff1660e01b815260040161119c9190611db5565b600060405180830381600087803b1580156111b657600080fd5b505af11580156111ca573d6000803e3d6000fd5b505050505050565b60007f000000000000000000000000000000000000000000000000000000000000000073ffffffffffffffffffffffffffffffffffffffff166335567e1a3060006040518363ffffffff1660e01b81526004016112309291906126d1565b602060405180830381865afa15801561124d573d6000803e3d6000fd5b505050506040513d601f19601f82011682018060405250810190611271919061270f565b905090565b600030905060008373ffffffffffffffffffffffffffffffffffffffff166370b8a01d6040518163ffffffff1660e01b8152600401602060405180830381865afa1580156112c8573d6000803e3d6000fd5b505050506040513d601f19601f820116820180604052508101906112ec9190612240565b90508173ffffffffffffffffffffffffffffffffffffffff16632d9ad53d826040518263ffffffff1660e01b81526004016113279190611db5565b602060405180830381865afa158015611344573d6000803e3d6000fd5b505050506040513d601f19601f820116820180604052508101906113689190612593565b6113a7576040517f08c379a000000000000000000000000000000000000000000000000000000000815260040161139e90612ea0565b60405180910390fd5b8173ffffffffffffffffffffffffffffffffffffffff1663e009cfde828673ffffffffffffffffffffffffffffffffffffffff1663b0d691fe6040518163ffffffff1660e01b8152600401602060405180830381865afa15801561140f573d6000803e3d6000fd5b505050506040513d601f19601f820116820180604052508101906114339190612240565b6040518363ffffffff1660e01b8152600401611450929190611be4565b600060405180830381600087803b15801561146a57600080fd5b505af115801561147e573d6000803e3d6000fd5b505050508173ffffffffffffffffffffffffffffffffffffffff1663e009cfde86836040518363ffffffff1660e01b81526004016114bd929190611be4565b600060405180830381600087803b1580156114d757600080fd5b505af11580156114eb573d6000803e3d6000fd5b5050505060008373ffffffffffffffffffffffffffffffffffffffff166370b8a01d6040518163ffffffff1660e01b8152600401602060405180830381865afa15801561153c573d6000803e3d6000fd5b505050506040513d601f19601f820116820180604052508101906115609190612240565b90508273ffffffffffffffffffffffffffffffffffffffff1663610b59258573ffffffffffffffffffffffffffffffffffffffff1663b0d691fe6040518163ffffffff1660e01b8152600401602060405180830381865afa1580156115c9573d6000803e3d6000fd5b505050506040513d601f19601f820116820180604052508101906115ed9190612240565b6040518263ffffffff1660e01b81526004016116099190611db5565b600060405180830381600087803b15801561162357600080fd5b505af1158015611637573d6000803e3d6000fd5b505050508273ffffffffffffffffffffffffffffffffffffffff1663610b5925826040518263ffffffff1660e01b81526004016116749190611db5565b600060405180830381600087803b15801561168e57600080fd5b505af11580156116a2573d6000803e3d6000fd5b505050508273ffffffffffffffffffffffffffffffffffffffff1663f08a0323826040518263ffffffff1660e01b81526004016116df9190611db5565b600060405180830381600087803b1580156116f957600080fd5b505af115801561170d573d6000803e3d6000fd5b5050505061171b83856105f9565b505050505050565b60007f19457468657265756d205369676e6564204d6573736167653a0a33320000000060005281601c52603c6000209050919050565b60008060006117688585611809565b915091506117758161185a565b819250505092915050565b600060018081111561179557611794612ec0565b5b8360018111156117a8576117a7612ec0565b5b036117c0576000808551602087018986f490506117d0565b600080855160208701888a87f190505b95945050505050565b60603d828111156117e8578290505b604051602082018101604052818152816000602083013e8092505050919050565b600080604183510361184a5760008060006020860151925060408601519150606086015160001a905061183e878285856119c0565b94509450505050611853565b60006002915091505b9250929050565b6000600481111561186e5761186d612ec0565b5b81600481111561188157611880612ec0565b5b03156119bd576001600481111561189b5761189a612ec0565b5b8160048111156118ae576118ad612ec0565b5b036118ee576040517f08c379a00000000000000000000000000000000000000000000000000000000081526004016118e590612f3b565b60405180910390fd5b6002600481111561190257611901612ec0565b5b81600481111561191557611914612ec0565b5b03611955576040517f08c379a000000000000000000000000000000000000000000000000000000000815260040161194c90612fa7565b60405180910390fd5b6003600481111561196957611968612ec0565b5b81600481111561197c5761197b612ec0565b5b036119bc576040517f08c379a00000000000000000000000000000000000000000000000000000000081526004016119b390613039565b60405180910390fd5b5b50565b6000807f7fffffffffffffffffffffffffffffff5d576e7357a4501ddfe92f46681b20a08360001c11156119fb576000600391509150611a99565b600060018787878760405160008152602001604052604051611a209493929190613077565b6020604051602081039080840390855afa158015611a42573d6000803e3d6000fd5b505050602060405103519050600073ffffffffffffffffffffffffffffffffffffffff168173ffffffffffffffffffffffffffffffffffffffff1603611a9057600060019250925050611a99565b80600092509250505b94509492505050565b604051806101600160405280600073ffffffffffffffffffffffffffffffffffffffff168152602001600081526020016060815260200160608152602001600081526020016000815260200160008152602001600081526020016000815260200160608152602001606081525090565b6000604051905090565b600080fd5b600080fd5b600073ffffffffffffffffffffffffffffffffffffffff82169050919050565b6000611b5182611b26565b9050919050565b6000611b6382611b46565b9050919050565b611b7381611b58565b8114611b7e57600080fd5b50565b600081359050611b9081611b6a565b92915050565b600060208284031215611bac57611bab611b1c565b5b6000611bba84828501611b81565b91505092915050565b6000611bce82611b26565b9050919050565b611bde81611bc3565b82525050565b6000604082019050611bf96000830185611bd5565b611c066020830184611bd5565b9392505050565b600080fd5b60006101608284031215611c2957611c28611c0d565b5b81905092915050565b6000819050919050565b611c4581611c32565b8114611c5057600080fd5b50565b600081359050611c6281611c3c565b92915050565b6000819050919050565b611c7b81611c68565b8114611c8657600080fd5b50565b600081359050611c9881611c72565b92915050565b600080600060608486031215611cb757611cb6611b1c565b5b600084013567ffffffffffffffff811115611cd557611cd4611b21565b5b611ce186828701611c12565b9350506020611cf286828701611c53565b9250506040611d0386828701611c89565b9150509250925092565b611d1681611c68565b82525050565b6000602082019050611d316000830184611d0d565b92915050565b6000611d4282611bc3565b9050919050565b611d5281611d37565b8114611d5d57600080fd5b50565b600081359050611d6f81611d49565b92915050565b60008060408385031215611d8c57611d8b611b1c565b5b6000611d9a85828601611b81565b9250506020611dab85828601611d60565b9150509250929050565b6000602082019050611dca6000830184611bd5565b92915050565b611dd981611bc3565b8114611de457600080fd5b50565b600081359050611df681611dd0565b92915050565b600080fd5b600080fd5b6000601f19601f8301169050919050565b7f4e487b7100000000000000000000000000000000000000000000000000000000600052604160045260246000fd5b611e4f82611e06565b810181811067ffffffffffffffff82111715611e6e57611e6d611e17565b5b80604052505050565b6000611e81611b12565b9050611e8d8282611e46565b919050565b600067ffffffffffffffff821115611ead57611eac611e17565b5b611eb682611e06565b9050602081019050919050565b82818337600083830152505050565b6000611ee5611ee084611e92565b611e77565b905082815260208101848484011115611f0157611f00611e01565b5b611f0c848285611ec3565b509392505050565b600082601f830112611f2957611f28611dfc565b5b8135611f39848260208601611ed2565b91505092915050565b60028110611f4f57600080fd5b50565b600081359050611f6181611f42565b92915050565b60008060008060808587031215611f8157611f80611b1c565b5b6000611f8f87828801611de7565b9450506020611fa087828801611c89565b935050604085013567ffffffffffffffff811115611fc157611fc0611b21565b5b611fcd87828801611f14565b9250506060611fde87828801611f52565b91505092959194509250565b60006020828403121561200057611fff611b1c565b5b600061200e84828501611d60565b91505092915050565b6000806000606084860312156120305761202f611b1c565b5b600061203e86828701611de7565b935050602061204f86828701611d60565b925050604061206086828701611d60565b9150509250925092565b6000819050919050565b6000819050919050565b600061209961209461208f8461206a565b612074565b611c68565b9050919050565b6120a98161207e565b82525050565b60006040820190506120c46000830185611bd5565b6120d160208301846120a0565b9392505050565b600067ffffffffffffffff8211156120f3576120f2611e17565b5b602082029050602081019050919050565b600080fd5b60008151905061211881611dd0565b92915050565b600061213161212c846120d8565b611e77565b9050808382526020820190506020840283018581111561215457612153612104565b5b835b8181101561217d57806121698882612109565b845260208401935050602081019050612156565b5050509392505050565b600082601f83011261219c5761219b611dfc565b5b81516121ac84826020860161211e565b91505092915050565b600080604083850312156121cc576121cb611b1c565b5b600083015167ffffffffffffffff8111156121ea576121e9611b21565b5b6121f685828601612187565b925050602061220785828601612109565b9150509250929050565b7f4e487b7100000000000000000000000000000000000000000000000000000000600052603260045260246000fd5b60006020828403121561225657612255611b1c565b5b600061226484828501612109565b91505092915050565b7f4e487b7100000000000000000000000000000000000000000000000000000000600052601160045260246000fd5b60006122a782611c68565b91507fffffffffffffffffffffffffffffffffffffffffffffffffffffffffffffffff82036122d9576122d861226d565b5b600182019050919050565b60006122ef82611c68565b91506122fa83611c68565b92508282039050818111156123125761231161226d565b5b92915050565b600080fd5b600080fd5b6000808585111561233657612335612318565b5b838611156123475761234661231d565b5b6001850283019150848603905094509492505050565b600082905092915050565b60007fffffffffffffffffffffffffffffffffffffffff00000000000000000000000082169050919050565b600082821b905092915050565b60006123ad838361235d565b826123b88135612368565b925060148210156123f8576123f37fffffffffffffffffffffffffffffffffffffffff00000000000000000000000083601403600802612394565b831692505b505092915050565b600082825260208201905092915050565b7f6163636f756e743a206e6f742066726f6d20656e747279706f696e7400000000600082015250565b6000612447601c83612400565b915061245282612411565b602082019050919050565b600060208201905081810360008301526124768161243a565b9050919050565b600080fd5b600080fd5b600080fd5b600080833560016020038436030381126124a9576124a861247d565b5b80840192508235915067ffffffffffffffff8211156124cb576124ca612482565b5b6020830192506001820236038313156124e7576124e6612487565b5b509250929050565b7f6163636f756e743a206f6e6c79207468726573686f6c64203100000000000000600082015250565b6000612525601983612400565b9150612530826124ef565b602082019050919050565b6000602082019050818103600083015261255481612518565b9050919050565b60008115159050919050565b6125708161255b565b811461257b57600080fd5b50565b60008151905061258d81612567565b92915050565b6000602082840312156125a9576125a8611b1c565b5b60006125b78482850161257e565b91505092915050565b7f6163636f756e743a206e6f6e73657175656e7469616c206e6f6e636500000000600082015250565b60006125f6601c83612400565b9150612601826125c0565b602082019050919050565b60006020820190508181036000830152612625816125e9565b9050919050565b600081905092915050565b50565b600061264760008361262c565b915061265282612637565b600082019050919050565b60006126688261263a565b9150819050919050565b6000819050919050565b600077ffffffffffffffffffffffffffffffffffffffffffffffff82169050919050565b60006126bb6126b66126b184612672565b612074565b61267c565b9050919050565b6126cb816126a0565b82525050565b60006040820190506126e66000830185611bd5565b6126f360208301846126c2565b9392505050565b60008151905061270981611c72565b92915050565b60006020828403121561272557612724611b1c565b5b6000612733848285016126fa565b91505092915050565b600081519050919050565b600082825260208201905092915050565b6000819050602082019050919050565b61277181611bc3565b82525050565b61278081611c68565b82525050565b600081519050919050565b600082825260208201905092915050565b60005b838110156127c05780820151818401526020810190506127a5565b60008484015250505050565b60006127d782612786565b6127e18185612791565b93506127f18185602086016127a2565b6127fa81611e06565b840191505092915050565b60006101608301600083015161281e6000860182612768565b5060208301516128316020860182612777565b506040830151848203604086015261284982826127cc565b9150506060830151848203606086015261286382826127cc565b91505060808301516128786080860182612777565b5060a083015161288b60a0860182612777565b5060c083015161289e60c0860182612777565b5060e08301516128b160e0860182612777565b506101008301516128c6610100860182612777565b506101208301518482036101208601526128e082826127cc565b9150506101408301518482036101408601526128fc82826127cc565b9150508091505092915050565b60006129158383612805565b905092915050565b6000602082019050919050565b60006129358261273c565b61293f8185612747565b93508360208202850161295185612758565b8060005b8581101561298d578484038952815161296e8582612909565b94506129798361291d565b925060208a01995050600181019050612955565b50829750879550505050505092915050565b6129a881611b46565b82525050565b600060408201905081810360008301526129c8818561292a565b90506129d7602083018461299f565b9392505050565b600060ff82169050919050565b6000612a06612a016129fc84612672565b612074565b6129de565b9050919050565b612a16816129eb565b82525050565b7f41413234207369676e6174757265206572726f72000000000000000000000000600082015250565b6000612a52601483612400565b9150612a5d82612a1c565b602082019050919050565b6000604082019050612a7d6000830184612a0d565b8181036020830152612a8e81612a45565b905092915050565b600081519050919050565b6000612aac82612a96565b612ab68185612400565b9350612ac68185602086016127a2565b612acf81611e06565b840191505092915050565b60006020820190508181036000830152612af48184612aa1565b905092915050565b7f76616c6964617465456970343333373a2068616e646c654f7073206d7573742060008201527f6661696c00000000000000000000000000000000000000000000000000000000602082015250565b6000612b58602483612400565b9150612b6382612afc565b604082019050919050565b60006020820190508181036000830152612b8781612b4b565b9050919050565b7f6163636f756e743a206e6f742066726f6d204549503433333746616c6c62616360008201527f6b00000000000000000000000000000000000000000000000000000000000000602082015250565b6000612bea602183612400565b9150612bf582612b8e565b604082019050919050565b60006020820190508181036000830152612c1981612bdd565b9050919050565b600067ffffffffffffffff821115612c3b57612c3a611e17565b5b612c4482611e06565b9050602081019050919050565b6000612c64612c5f84612c20565b611e77565b905082815260208101848484011115612c8057612c7f611e01565b5b612c8b8482856127a2565b509392505050565b600082601f830112612ca857612ca7611dfc565b5b8151612cb8848260208601612c51565b91505092915050565b600060208284031215612cd757612cd6611b1c565b5b600082015167ffffffffffffffff811115612cf557612cf4611b21565b5b612d0184828501612c93565b91505092915050565b7f7365747570343333374d6f64756c65733a20656e747279706f696e7420616c7260008201527f6561647920656e61626c65640000000000000000000000000000000000000000602082015250565b6000612d66602c83612400565b9150612d7182612d0a565b604082019050919050565b60006020820190508181036000830152612d9581612d59565b9050919050565b7f7365747570343333374d6f64756c65733a206569703433333746616c6c62616360008201527f6b20616c726561647920656e61626c6564000000000000000000000000000000602082015250565b6000612df8603183612400565b9150612e0382612d9c565b604082019050919050565b60006020820190508181036000830152612e2781612deb565b9050919050565b7f7265706c616365454950343333374d616e616765723a206f6c644d616e61676560008201527f72206973206e6f74206163746976650000000000000000000000000000000000602082015250565b6000612e8a602f83612400565b9150612e9582612e2e565b604082019050919050565b60006020820190508181036000830152612eb981612e7d565b9050919050565b7f4e487b7100000000000000000000000000000000000000000000000000000000600052602160045260246000fd5b7f45434453413a20696e76616c6964207369676e61747572650000000000000000600082015250565b6000612f25601883612400565b9150612f3082612eef565b602082019050919050565b60006020820190508181036000830152612f5481612f18565b9050919050565b7f45434453413a20696e76616c6964207369676e6174757265206c656e67746800600082015250565b6000612f91601f83612400565b9150612f9c82612f5b565b602082019050919050565b60006020820190508181036000830152612fc081612f84565b9050919050565b7f45434453413a20696e76616c6964207369676e6174757265202773272076616c60008201527f7565000000000000000000000000000000000000000000000000000000000000602082015250565b6000613023602283612400565b915061302e82612fc7565b604082019050919050565b6000602082019050818103600083015261305281613016565b9050919050565b61306281611c32565b82525050565b613071816129de565b82525050565b600060808201905061308c6000830187613059565b6130996020830186613068565b6130a66040830185613059565b6130b36060830184613059565b9594505050505056fea26469706673582212200516aff1c7e1721ca3bdac985befaad89f58102a56538349f4adc6dc77196e2664736f6c6343000813003360a06040523480156200001157600080fd5b50604051620018a3380380620018a38339818101604052810190620000379190620000dc565b8073ffffffffffffffffffffffffffffffffffffffff1660808173ffffffffffffffffffffffffffffffffffffffff1681525050506200010e565b600080fd5b600073ffffffffffffffffffffffffffffffffffffffff82169050919050565b6000620000a48262000077565b9050919050565b620000b68162000097565b8114620000c257600080fd5b50565b600081519050620000d681620000ab565b92915050565b600060208284031215620000f557620000f462000072565b5b60006200010584828501620000c5565b91505092915050565b60805161177262000131600039600081816104b2015261065a01526117726000f3fe608060405234801561001057600080fd5b50600436106100b35760003560e01c8063940d3c6011610071578063940d3c60146101b2578063a3f4df7e146101ce578063bc197c81146101ec578063d087d2881461021c578063f23a6e611461023a578063ffa1ad741461026a576100b3565b806223de29146100b857806301ffc9a7146100d4578063150b7a02146101045780631626ba7e146101345780632bcadc24146101645780633a871cdd14610182575b600080fd5b6100d260048036038101906100cd9190610aa7565b610288565b005b6100ee60048036038101906100e99190610bce565b610292565b6040516100fb9190610c16565b60405180910390f35b61011e60048036038101906101199190610c31565b6103cc565b60405161012b9190610cc8565b60405180910390f35b61014e60048036038101906101499190610e5a565b6103e1565b60405161015b9190610cc8565b60405180910390f35b61016c6104b0565b6040516101799190610ec5565b60405180910390f35b61019c60048036038101906101979190610f05565b6104d4565b6040516101a99190610f83565b60405180910390f35b6101cc60048036038101906101c79190610fc3565b6104ff565b005b6101d661050e565b6040516101e391906110c5565b60405180910390f35b6102066004803603810190610201919061113d565b610547565b6040516102139190610cc8565b60405180910390f35b61022461055f565b6040516102319190610f83565b60405180910390f35b610254600480360381019061024f9190611219565b610586565b6040516102619190610cc8565b60405180910390f35b61027261059c565b60405161027f91906110c5565b60405180910390f35b5050505050505050565b60007f4e2312e0000000000000000000000000000000000000000000000000000000007bffffffffffffffffffffffffffffffffffffffffffffffffffffffff1916827bffffffffffffffffffffffffffffffffffffffffffffffffffffffff1916148061035d57507f150b7a02000000000000000000000000000000000000000000000000000000007bffffffffffffffffffffffffffffffffffffffffffffffffffffffff1916827bffffffffffffffffffffffffffffffffffffffffffffffffffffffff1916145b806103c557507f01ffc9a7000000000000000000000000000000000000000000000000000000007bffffffffffffffffffffffffffffffffffffffffffffffffffffffff1916827bffffffffffffffffffffffffffffffffffffffffffffffffffffffff1916145b9050919050565b600063150b7a0260e01b905095945050505050565b6000806103ed846105d5565b90506000610404848361060b90919063ffffffff16565b905060003390508073ffffffffffffffffffffffffffffffffffffffff16632f54bf6e836040518263ffffffff1660e01b81526004016104449190610ec5565b602060405180830381865afa158015610461573d6000803e3d6000fd5b505050506040513d601f19601f8201168201806040525081019061048591906112df565b1561049c57631626ba7e60e01b93505050506104aa565b63ffffffff60e01b93505050505b92915050565b7f000000000000000000000000000000000000000000000000000000000000000081565b6000806104df610632565b9050808060200190518101906104f59190611321565b9150509392505050565b610507610632565b5050505050565b6040518060400160405280601881526020017f44656661756c742043616c6c6261636b2048616e646c6572000000000000000081525081565b600063bc197c8160e01b905098975050505050505050565b60008061056a610632565b9050808060200190518101906105809190611321565b91505090565b600063f23a6e6160e01b90509695505050505050565b6040518060400160405280600581526020017f312e302e3000000000000000000000000000000000000000000000000000000081525081565b60007f19457468657265756d205369676e6564204d6573736167653a0a33320000000060005281601c52603c6000209050919050565b600080600061061a8585610701565b9150915061062781610752565b819250505092915050565b606060003390506000808273ffffffffffffffffffffffffffffffffffffffff16635229073f7f00000000000000000000000000000000000000000000000000000000000000006000803660016040518663ffffffff1660e01b815260040161069f959493929190611448565b6000604051808303816000875af11580156106be573d6000803e3d6000fd5b505050506040513d6000823e3d601f19601f820116820180604052508101906106e79190611506565b91509150816106f857805160208201fd5b80935050505090565b60008060418351036107425760008060006020860151925060408601519150606086015160001a9050610736878285856108b8565b9450945050505061074b565b60006002915091505b9250929050565b60006004811115610766576107656113d1565b5b816004811115610779576107786113d1565b5b03156108b55760016004811115610793576107926113d1565b5b8160048111156107a6576107a56113d1565b5b036107e6576040517f08c379a00000000000000000000000000000000000000000000000000000000081526004016107dd906115ae565b60405180910390fd5b600260048111156107fa576107f96113d1565b5b81600481111561080d5761080c6113d1565b5b0361084d576040517f08c379a00000000000000000000000000000000000000000000000000000000081526004016108449061161a565b60405180910390fd5b60036004811115610861576108606113d1565b5b816004811115610874576108736113d1565b5b036108b4576040517f08c379a00000000000000000000000000000000000000000000000000000000081526004016108ab906116ac565b60405180910390fd5b5b50565b6000807f7fffffffffffffffffffffffffffffff5d576e7357a4501ddfe92f46681b20a08360001c11156108f3576000600391509150610991565b60006001878787876040516000815260200160405260405161091894939291906116f7565b6020604051602081039080840390855afa15801561093a573d6000803e3d6000fd5b505050602060405103519050600073ffffffffffffffffffffffffffffffffffffffff168173ffffffffffffffffffffffffffffffffffffffff160361098857600060019250925050610991565b80600092509250505b94509492505050565b6000604051905090565b600080fd5b600080fd5b600073ffffffffffffffffffffffffffffffffffffffff82169050919050565b60006109d9826109ae565b9050919050565b6109e9816109ce565b81146109f457600080fd5b50565b600081359050610a06816109e0565b92915050565b6000819050919050565b610a1f81610a0c565b8114610a2a57600080fd5b50565b600081359050610a3c81610a16565b92915050565b600080fd5b600080fd5b600080fd5b60008083601f840112610a6757610a66610a42565b5b8235905067ffffffffffffffff811115610a8457610a83610a47565b5b602083019150836001820283011115610aa057610a9f610a4c565b5b9250929050565b60008060008060008060008060c0898b031215610ac757610ac66109a4565b5b6000610ad58b828c016109f7565b9850506020610ae68b828c016109f7565b9750506040610af78b828c016109f7565b9650506060610b088b828c01610a2d565b955050608089013567ffffffffffffffff811115610b2957610b286109a9565b5b610b358b828c01610a51565b945094505060a089013567ffffffffffffffff811115610b5857610b576109a9565b5b610b648b828c01610a51565b92509250509295985092959890939650565b60007fffffffff0000000000000000000000000000000000000000000000000000000082169050919050565b610bab81610b76565b8114610bb657600080fd5b50565b600081359050610bc881610ba2565b92915050565b600060208284031215610be457610be36109a4565b5b6000610bf284828501610bb9565b91505092915050565b60008115159050919050565b610c1081610bfb565b82525050565b6000602082019050610c2b6000830184610c07565b92915050565b600080600080600060808688031215610c4d57610c4c6109a4565b5b6000610c5b888289016109f7565b9550506020610c6c888289016109f7565b9450506040610c7d88828901610a2d565b935050606086013567ffffffffffffffff811115610c9e57610c9d6109a9565b5b610caa88828901610a51565b92509250509295509295909350565b610cc281610b76565b82525050565b6000602082019050610cdd6000830184610cb9565b92915050565b6000819050919050565b610cf681610ce3565b8114610d0157600080fd5b50565b600081359050610d1381610ced565b92915050565b600080fd5b6000601f19601f8301169050919050565b7f4e487b7100000000000000000000000000000000000000000000000000000000600052604160045260246000fd5b610d6782610d1e565b810181811067ffffffffffffffff82111715610d8657610d85610d2f565b5b80604052505050565b6000610d9961099a565b9050610da58282610d5e565b919050565b600067ffffffffffffffff821115610dc557610dc4610d2f565b5b610dce82610d1e565b9050602081019050919050565b82818337600083830152505050565b6000610dfd610df884610daa565b610d8f565b905082815260208101848484011115610e1957610e18610d19565b5b610e24848285610ddb565b509392505050565b600082601f830112610e4157610e40610a42565b5b8135610e51848260208601610dea565b91505092915050565b60008060408385031215610e7157610e706109a4565b5b6000610e7f85828601610d04565b925050602083013567ffffffffffffffff811115610ea057610e9f6109a9565b5b610eac85828601610e2c565b9150509250929050565b610ebf816109ce565b82525050565b6000602082019050610eda6000830184610eb6565b92915050565b600080fd5b60006101608284031215610efc57610efb610ee0565b5b81905092915050565b600080600060608486031215610f1e57610f1d6109a4565b5b600084013567ffffffffffffffff811115610f3c57610f3b6109a9565b5b610f4886828701610ee5565b9350506020610f5986828701610d04565b9250506040610f6a86828701610a2d565b9150509250925092565b610f7d81610a0c565b82525050565b6000602082019050610f986000830184610f74565b92915050565b60028110610fab57600080fd5b50565b600081359050610fbd81610f9e565b92915050565b60008060008060808587031215610fdd57610fdc6109a4565b5b6000610feb878288016109f7565b9450506020610ffc87828801610a2d565b935050604085013567ffffffffffffffff81111561101d5761101c6109a9565b5b61102987828801610e2c565b925050606061103a87828801610fae565b91505092959194509250565b600081519050919050565b600082825260208201905092915050565b60005b83811015611080578082015181840152602081019050611065565b60008484015250505050565b600061109782611046565b6110a18185611051565b93506110b1818560208601611062565b6110ba81610d1e565b840191505092915050565b600060208201905081810360008301526110df818461108c565b905092915050565b60008083601f8401126110fd576110fc610a42565b5b8235905067ffffffffffffffff81111561111a57611119610a47565b5b60208301915083602082028301111561113657611135610a4c565b5b9250929050565b60008060008060008060008060a0898b03121561115d5761115c6109a4565b5b600061116b8b828c016109f7565b985050602061117c8b828c016109f7565b975050604089013567ffffffffffffffff81111561119d5761119c6109a9565b5b6111a98b828c016110e7565b9650965050606089013567ffffffffffffffff8111156111cc576111cb6109a9565b5b6111d88b828c016110e7565b9450945050608089013567ffffffffffffffff8111156111fb576111fa6109a9565b5b6112078b828c01610a51565b92509250509295985092959890939650565b60008060008060008060a08789031215611236576112356109a4565b5b600061124489828a016109f7565b965050602061125589828a016109f7565b955050604061126689828a01610a2d565b945050606061127789828a01610a2d565b935050608087013567ffffffffffffffff811115611298576112976109a9565b5b6112a489828a01610a51565b92509250509295509295509295565b6112bc81610bfb565b81146112c757600080fd5b50565b6000815190506112d9816112b3565b92915050565b6000602082840312156112f5576112f46109a4565b5b6000611303848285016112ca565b91505092915050565b60008151905061131b81610a16565b92915050565b600060208284031215611337576113366109a4565b5b60006113458482850161130c565b91505092915050565b6000819050919050565b6000819050919050565b600061137d6113786113738461134e565b611358565b610a0c565b9050919050565b61138d81611362565b82525050565b600082825260208201905092915050565b60006113b08385611393565b93506113bd838584610ddb565b6113c683610d1e565b840190509392505050565b7f4e487b7100000000000000000000000000000000000000000000000000000000600052602160045260246000fd5b60028110611411576114106113d1565b5b50565b600081905061142282611400565b919050565b600061143282611414565b9050919050565b61144281611427565b82525050565b600060808201905061145d6000830188610eb6565b61146a6020830187611384565b818103604083015261147d8185876113a4565b905061148c6060830184611439565b9695505050505050565b60006114a96114a484610daa565b610d8f565b9050828152602081018484840111156114c5576114c4610d19565b5b6114d0848285611062565b509392505050565b600082601f8301126114ed576114ec610a42565b5b81516114fd848260208601611496565b91505092915050565b6000806040838503121561151d5761151c6109a4565b5b600061152b858286016112ca565b925050602083015167ffffffffffffffff81111561154c5761154b6109a9565b5b611558858286016114d8565b9150509250929050565b7f45434453413a20696e76616c6964207369676e61747572650000000000000000600082015250565b6000611598601883611051565b91506115a382611562565b602082019050919050565b600060208201905081810360008301526115c78161158b565b9050919050565b7f45434453413a20696e76616c6964207369676e6174757265206c656e67746800600082015250565b6000611604601f83611051565b915061160f826115ce565b602082019050919050565b60006020820190508181036000830152611633816115f7565b9050919050565b7f45434453413a20696e76616c6964207369676e6174757265202773272076616c60008201527f7565000000000000000000000000000000000000000000000000000000000000602082015250565b6000611696602283611051565b91506116a18261163a565b604082019050919050565b600060208201905081810360008301526116c581611689565b9050919050565b6116d581610ce3565b82525050565b600060ff82169050919050565b6116f1816116db565b82525050565b600060808201905061170c60008301876116cc565b61171960208301866116e8565b61172660408301856116cc565b61173360608301846116cc565b9594505050505056fea2646970667358221220fd64cf004be3df8d1e8d9bbe7e0ab4a6590271f3188bf6bfb282ee442be7458a64736f6c63430008130033",
  "linkReferences": {},
  "deployedLinkReferences": {}
}